{
  "_format": "hh-sol-artifact-1",
  "contractName": "TruthHubDemo",
  "sourceName": "contracts/TruthHubDemo.sol",
  "abi": [
    {
      "inputs": [
        {
          "internalType": "contract VeriToken",
          "name": "veriTokenAddress",
          "type": "address"
        },
        {
          "internalType": "contract ArticleNFT",
          "name": "articleNftAddress",
          "type": "address"
        }
      ],
      "stateMutability": "nonpayable",
      "type": "constructor"
    },
    {
      "inputs": [
        {
          "internalType": "address",
          "name": "account",
          "type": "address"
        }
      ],
      "name": "AddressInsufficientBalance",
      "type": "error"
    },
    {
      "inputs": [],
      "name": "FailedInnerCall",
      "type": "error"
    },
    {
      "inputs": [],
      "name": "MathOverflowedMulDiv",
      "type": "error"
    },
    {
      "anonymous": false,
      "inputs": [
        {
          "indexed": false,
          "internalType": "address",
          "name": "_buyer",
          "type": "address"
        },
        {
          "indexed": false,
          "internalType": "uint256",
          "name": "_articleId",
          "type": "uint256"
        },
        {
          "indexed": false,
          "internalType": "uint256",
          "name": "_nftAmount",
          "type": "uint256"
        },
        {
          "indexed": false,
          "internalType": "address",
          "name": "_author",
          "type": "address"
        }
      ],
      "name": "BuyArticleNFT",
      "type": "event"
    },
    {
      "anonymous": false,
      "inputs": [
        {
          "indexed": false,
          "internalType": "address",
          "name": "_claimer",
          "type": "address"
        },
        {
          "indexed": false,
          "internalType": "uint256",
          "name": "_articleId",
          "type": "uint256"
        },
        {
          "indexed": false,
          "internalType": "uint256",
          "name": "_etherReceived",
          "type": "uint256"
        },
        {
          "indexed": false,
          "internalType": "uint256",
          "name": "_tokenReceived",
          "type": "uint256"
        }
      ],
      "name": "ClaimReward",
      "type": "event"
    },
    {
      "anonymous": false,
      "inputs": [
        {
          "indexed": false,
          "internalType": "address",
          "name": "_author",
          "type": "address"
        },
        {
          "indexed": false,
          "internalType": "uint256",
          "name": "_articleId",
          "type": "uint256"
        },
        {
          "indexed": false,
          "internalType": "uint256",
          "name": "_nftAmount",
          "type": "uint256"
        }
      ],
      "name": "MintArticleNFT",
      "type": "event"
    },
    {
      "anonymous": false,
      "inputs": [
        {
          "indexed": false,
          "internalType": "address",
          "name": "_author",
          "type": "address"
        },
        {
          "indexed": false,
          "internalType": "bytes32",
          "name": "_eventId",
          "type": "bytes32"
        },
        {
          "indexed": false,
          "internalType": "uint256",
          "name": "_authorReputation",
          "type": "uint256"
        },
        {
          "indexed": false,
          "internalType": "uint256",
          "name": "_articleId",
          "type": "uint256"
        },
        {
          "indexed": false,
          "internalType": "uint256",
          "name": "_etherSpentToPublish",
          "type": "uint256"
        },
        {
          "indexed": false,
          "internalType": "uint256",
          "name": "_minimumBlockVote",
          "type": "uint256"
        },
        {
          "indexed": false,
          "internalType": "uint256",
          "name": "_maximumBlockVote",
          "type": "uint256"
        }
      ],
      "name": "PublishArticle",
      "type": "event"
    },
    {
      "anonymous": false,
      "inputs": [
        {
          "indexed": false,
          "internalType": "address",
          "name": "_author",
          "type": "address"
        },
        {
          "indexed": false,
          "internalType": "bytes32",
          "name": "_signature",
          "type": "bytes32"
        },
        {
          "indexed": false,
          "internalType": "bytes32",
          "name": "_nostrPublicKey",
          "type": "bytes32"
        }
      ],
      "name": "RegisterAuthor",
      "type": "event"
    },
    {
      "anonymous": false,
      "inputs": [
        {
          "indexed": false,
          "internalType": "address",
          "name": "_voter",
          "type": "address"
        },
        {
          "indexed": false,
          "internalType": "uint256",
          "name": "articleId",
          "type": "uint256"
        },
        {
          "indexed": false,
          "internalType": "bool",
          "name": "_voteExpressed",
          "type": "bool"
        },
        {
          "indexed": false,
          "internalType": "uint256",
          "name": "_tokenSpentToVote",
          "type": "uint256"
        },
        {
          "indexed": false,
          "internalType": "uint256",
          "name": "_etherSpentToVote",
          "type": "uint256"
        },
        {
          "indexed": false,
          "internalType": "uint256",
          "name": "_voterReputation",
          "type": "uint256"
        }
      ],
      "name": "Vote",
      "type": "event"
    },
    {
      "inputs": [],
      "name": "amountVeriPerUserPurged",
      "outputs": [
        {
          "internalType": "uint256",
          "name": "",
          "type": "uint256"
        }
      ],
      "stateMutability": "view",
      "type": "function"
    },
    {
      "inputs": [],
      "name": "articleNFTBuyInEther",
      "outputs": [
        {
          "internalType": "uint256",
          "name": "",
          "type": "uint256"
        }
      ],
      "stateMutability": "view",
      "type": "function"
    },
    {
      "inputs": [],
      "name": "articleNFTMintInVeri",
      "outputs": [
        {
          "internalType": "uint256",
          "name": "",
          "type": "uint256"
        }
      ],
      "stateMutability": "view",
      "type": "function"
    },
    {
      "inputs": [
        {
          "internalType": "uint256",
          "name": "",
          "type": "uint256"
        }
      ],
      "name": "articles",
      "outputs": [
        {
          "internalType": "uint256",
          "name": "articleId",
          "type": "uint256"
        },
        {
          "internalType": "bytes32",
          "name": "eventId",
          "type": "bytes32"
        },
        {
          "internalType": "address",
          "name": "author",
          "type": "address"
        },
        {
          "internalType": "uint256",
          "name": "upvotes",
          "type": "uint256"
        },
        {
          "internalType": "uint256",
          "name": "downvotes",
          "type": "uint256"
        },
        {
          "internalType": "uint256",
          "name": "etherSpentToPublish",
          "type": "uint256"
        },
        {
          "internalType": "uint256",
          "name": "upvoters",
          "type": "uint256"
        },
        {
          "internalType": "uint256",
          "name": "downvoters",
          "type": "uint256"
        },
        {
          "internalType": "uint256",
          "name": "minimumBlockThreshold",
          "type": "uint256"
        },
        {
          "internalType": "uint256",
          "name": "maximumBlockThreshold",
          "type": "uint256"
        },
        {
          "internalType": "uint256",
          "name": "ethersSpentInUpvotes",
          "type": "uint256"
        },
        {
          "internalType": "uint256",
          "name": "ethersSpentInDownvotes",
          "type": "uint256"
        },
        {
          "internalType": "uint256",
          "name": "veriSpentInUpvotes",
          "type": "uint256"
        },
        {
          "internalType": "uint256",
          "name": "veriSpentInDownvotes",
          "type": "uint256"
        }
      ],
      "stateMutability": "view",
      "type": "function"
    },
    {
      "inputs": [
        {
          "internalType": "address",
          "name": "",
          "type": "address"
        }
      ],
      "name": "authors",
      "outputs": [
        {
          "internalType": "bytes32",
          "name": "",
          "type": "bytes32"
        }
      ],
      "stateMutability": "view",
      "type": "function"
    },
    {
      "inputs": [
        {
          "internalType": "uint256",
          "name": "articleId",
          "type": "uint256"
        },
        {
          "internalType": "uint256",
          "name": "nftAmount",
          "type": "uint256"
        }
      ],
      "name": "buyArticleNFT",
      "outputs": [],
      "stateMutability": "payable",
      "type": "function"
    },
    {
      "inputs": [
        {
          "internalType": "uint256",
          "name": "articleId",
          "type": "uint256"
        }
      ],
      "name": "claimReward",
      "outputs": [],
      "stateMutability": "nonpayable",
      "type": "function"
    },
    {
      "inputs": [
        {
          "internalType": "address",
          "name": "user",
          "type": "address"
        }
      ],
      "name": "computeMaximumBoost",
      "outputs": [
        {
          "internalType": "uint256",
          "name": "",
          "type": "uint256"
        }
      ],
      "stateMutability": "view",
      "type": "function"
    },
    {
      "inputs": [
        {
          "internalType": "address",
          "name": "author",
          "type": "address"
        }
      ],
      "name": "computePublishPrice",
      "outputs": [
        {
          "internalType": "uint256",
          "name": "",
          "type": "uint256"
        }
      ],
      "stateMutability": "view",
      "type": "function"
    },
    {
      "inputs": [
        {
          "internalType": "address",
          "name": "reader",
          "type": "address"
        }
      ],
      "name": "computeVotePrice",
      "outputs": [
        {
          "internalType": "uint256",
          "name": "",
          "type": "uint256"
        }
      ],
      "stateMutability": "view",
      "type": "function"
    },
    {
      "inputs": [],
      "name": "contractArticleNFT",
      "outputs": [
        {
          "internalType": "contract ArticleNFT",
          "name": "",
          "type": "address"
        }
      ],
      "stateMutability": "view",
      "type": "function"
    },
    {
      "inputs": [],
      "name": "contractVeriToken",
      "outputs": [
        {
          "internalType": "contract VeriToken",
          "name": "",
          "type": "address"
        }
      ],
      "stateMutability": "view",
      "type": "function"
    },
    {
      "inputs": [],
      "name": "endWeightVote",
      "outputs": [
        {
          "internalType": "uint256",
          "name": "",
          "type": "uint256"
        }
      ],
      "stateMutability": "view",
      "type": "function"
    },
    {
      "inputs": [],
      "name": "etherPublishPrice",
      "outputs": [
        {
          "internalType": "uint256",
          "name": "",
          "type": "uint256"
        }
      ],
      "stateMutability": "view",
      "type": "function"
    },
    {
      "inputs": [],
      "name": "etherVotePrice",
      "outputs": [
        {
          "internalType": "uint256",
          "name": "",
          "type": "uint256"
        }
      ],
      "stateMutability": "view",
      "type": "function"
    },
    {
      "inputs": [
        {
          "internalType": "address",
          "name": "author",
          "type": "address"
        }
      ],
      "name": "getAuthorArticlesPublished",
      "outputs": [
        {
          "internalType": "uint256[]",
          "name": "",
          "type": "uint256[]"
        }
      ],
      "stateMutability": "view",
      "type": "function"
    },
    {
      "inputs": [
        {
          "internalType": "address",
          "name": "user",
          "type": "address"
        }
      ],
      "name": "getAuthorReputation",
      "outputs": [
        {
          "internalType": "uint8",
          "name": "",
          "type": "uint8"
        }
      ],
      "stateMutability": "view",
      "type": "function"
    },
    {
      "inputs": [
        {
          "internalType": "address",
          "name": "reader",
          "type": "address"
        }
      ],
      "name": "getReaderArticlesVoted",
      "outputs": [
        {
          "internalType": "uint256[]",
          "name": "",
          "type": "uint256[]"
        }
      ],
      "stateMutability": "view",
      "type": "function"
    },
    {
      "inputs": [
        {
          "internalType": "address",
          "name": "user",
          "type": "address"
        }
      ],
      "name": "getReaderReputation",
      "outputs": [
        {
          "internalType": "uint8",
          "name": "",
          "type": "uint8"
        }
      ],
      "stateMutability": "view",
      "type": "function"
    },
    {
      "inputs": [
        {
          "internalType": "address",
          "name": "user",
          "type": "address"
        }
      ],
      "name": "isAuthor",
      "outputs": [
        {
          "internalType": "bool",
          "name": "",
          "type": "bool"
        }
      ],
      "stateMutability": "view",
      "type": "function"
    },
    {
      "inputs": [
        {
          "internalType": "uint256",
          "name": "articleId",
          "type": "uint256"
        }
      ],
      "name": "isBestArticle",
      "outputs": [
        {
          "internalType": "bool",
          "name": "",
          "type": "bool"
        }
      ],
      "stateMutability": "view",
      "type": "function"
    },
    {
      "inputs": [
        {
          "internalType": "address",
          "name": "user",
          "type": "address"
        }
      ],
      "name": "isBestAuthor",
      "outputs": [
        {
          "internalType": "bool",
          "name": "",
          "type": "bool"
        }
      ],
      "stateMutability": "view",
      "type": "function"
    },
    {
      "inputs": [
        {
          "internalType": "address",
          "name": "user",
          "type": "address"
        },
        {
          "internalType": "uint256",
          "name": "articleId",
          "type": "uint256"
        }
      ],
      "name": "isValidClaimer",
      "outputs": [
        {
          "internalType": "bool",
          "name": "",
          "type": "bool"
        }
      ],
      "stateMutability": "view",
      "type": "function"
    },
    {
      "inputs": [
        {
          "internalType": "address",
          "name": "user",
          "type": "address"
        },
        {
          "internalType": "uint256",
          "name": "articleId",
          "type": "uint256"
        }
      ],
      "name": "isValidVoter",
      "outputs": [
        {
          "internalType": "bool",
          "name": "",
          "type": "bool"
        }
      ],
      "stateMutability": "view",
      "type": "function"
    },
    {
      "inputs": [
        {
          "internalType": "uint256",
          "name": "articleId",
          "type": "uint256"
        }
      ],
      "name": "isVoteClosed",
      "outputs": [
        {
          "internalType": "bool",
          "name": "",
          "type": "bool"
        }
      ],
      "stateMutability": "view",
      "type": "function"
    },
    {
      "inputs": [
        {
          "internalType": "uint256",
          "name": "articleId",
          "type": "uint256"
        }
      ],
      "name": "isVoteOpen",
      "outputs": [
        {
          "internalType": "bool",
          "name": "",
          "type": "bool"
        }
      ],
      "stateMutability": "view",
      "type": "function"
    },
    {
      "inputs": [],
      "name": "maximumBlockDelta",
      "outputs": [
        {
          "internalType": "uint256",
          "name": "",
          "type": "uint256"
        }
      ],
      "stateMutability": "view",
      "type": "function"
    },
    {
      "inputs": [],
      "name": "minimumBlockDelta",
      "outputs": [
        {
          "internalType": "uint256",
          "name": "",
          "type": "uint256"
        }
      ],
      "stateMutability": "view",
      "type": "function"
    },
    {
      "inputs": [
        {
          "internalType": "uint256",
          "name": "articleId",
          "type": "uint256"
        },
        {
          "internalType": "uint256",
          "name": "nftAmount",
          "type": "uint256"
        }
      ],
      "name": "mintArticleNFT",
      "outputs": [],
      "stateMutability": "nonpayable",
      "type": "function"
    },
    {
      "inputs": [],
      "name": "multiplierVeriPerEther",
      "outputs": [
        {
          "internalType": "uint256",
          "name": "",
          "type": "uint256"
        }
      ],
      "stateMutability": "view",
      "type": "function"
    },
    {
      "inputs": [
        {
          "internalType": "bytes32",
          "name": "",
          "type": "bytes32"
        }
      ],
      "name": "nostrAccountToEthereumAccount",
      "outputs": [
        {
          "internalType": "address",
          "name": "",
          "type": "address"
        }
      ],
      "stateMutability": "view",
      "type": "function"
    },
    {
      "inputs": [
        {
          "internalType": "address",
          "name": "",
          "type": "address"
        },
        {
          "internalType": "address",
          "name": "",
          "type": "address"
        },
        {
          "internalType": "uint256[]",
          "name": "",
          "type": "uint256[]"
        },
        {
          "internalType": "uint256[]",
          "name": "",
          "type": "uint256[]"
        },
        {
          "internalType": "bytes",
          "name": "",
          "type": "bytes"
        }
      ],
      "name": "onERC1155BatchReceived",
      "outputs": [
        {
          "internalType": "bytes4",
          "name": "",
          "type": "bytes4"
        }
      ],
      "stateMutability": "nonpayable",
      "type": "function"
    },
    {
      "inputs": [
        {
          "internalType": "address",
          "name": "",
          "type": "address"
        },
        {
          "internalType": "address",
          "name": "",
          "type": "address"
        },
        {
          "internalType": "uint256",
          "name": "",
          "type": "uint256"
        },
        {
          "internalType": "uint256",
          "name": "",
          "type": "uint256"
        },
        {
          "internalType": "bytes",
          "name": "",
          "type": "bytes"
        }
      ],
      "name": "onERC1155Received",
      "outputs": [
        {
          "internalType": "bytes4",
          "name": "",
          "type": "bytes4"
        }
      ],
      "stateMutability": "nonpayable",
      "type": "function"
    },
    {
      "inputs": [
        {
          "internalType": "bytes32",
          "name": "eventId",
          "type": "bytes32"
        }
      ],
      "name": "publishArticle",
      "outputs": [
        {
          "internalType": "uint256",
          "name": "",
          "type": "uint256"
        }
      ],
      "stateMutability": "payable",
      "type": "function"
    },
    {
      "inputs": [
        {
          "internalType": "bytes32",
          "name": "signature",
          "type": "bytes32"
        },
        {
          "internalType": "bytes32",
          "name": "nostrPublicKey",
          "type": "bytes32"
        }
      ],
      "name": "registerAuthor",
      "outputs": [],
      "stateMutability": "nonpayable",
      "type": "function"
    },
    {
      "inputs": [
        {
          "internalType": "bytes4",
          "name": "interfaceId",
          "type": "bytes4"
        }
      ],
      "name": "supportsInterface",
      "outputs": [
        {
          "internalType": "bool",
          "name": "",
          "type": "bool"
        }
      ],
      "stateMutability": "view",
      "type": "function"
    },
    {
      "inputs": [],
      "name": "totalArticles",
      "outputs": [
        {
          "internalType": "uint256",
          "name": "",
          "type": "uint256"
        }
      ],
      "stateMutability": "view",
      "type": "function"
    },
    {
      "inputs": [
        {
          "internalType": "uint256",
          "name": "articleId",
          "type": "uint256"
        },
        {
          "internalType": "bool",
          "name": "voteExpressed",
          "type": "bool"
        },
        {
          "internalType": "uint256",
          "name": "tokenSpentToVote",
          "type": "uint256"
        }
      ],
      "name": "vote",
      "outputs": [],
      "stateMutability": "payable",
      "type": "function"
    },
    {
      "stateMutability": "payable",
      "type": "receive"
    }
  ],
  "bytecode": "0x6101e06040523480156200001257600080fd5b50604051620037d4380380620037d48339810160408190526200003591620000c8565b66038d7ea4c68000608052662386f26fc1000060a0526103e860c05267016345785d8a000060e05268015af1d78b58c40000610140526000610100819052606461012052600455671bc16d674ec800006101605266071afd498d0000610180526001600160a01b039182166101a052166101c05262000107565b6001600160a01b0381168114620000c557600080fd5b50565b60008060408385031215620000dc57600080fd5b8251620000e981620000af565b6020840151909250620000fc81620000af565b809150509250929050565b60805160a05160c05160e05161010051610120516101405161016051610180516101a0516101c0516135896200024b600039600081816104f501528181610ecf0152818161105b0152611738015260008181610744015281816110c10152818161163d01528181611fd10152818161207201526124a60152600081816105290152610fa4015260008181610418015281816110f10152611669015260008181610461015281816109eb0152818161139d015281816114a0015281816119a801526122d501526000818161037d01528181610b9c0152610d4701526000818161024701528181610b6d0152610d1d0152600081816108f401528181611d520152611f9201526000818161055d01528181611ba501528181611bff0152611e230152600081816103e4015261098b015260008181610948015261287801526135896000f3fe6080604052600436106102295760003560e01c8063ae169a5011610123578063d4b12530116100ab578063f1fddbae1161006f578063f1fddbae14610896578063f23a6e61146108b6578063f4180e09146108e2578063f78ba71014610916578063fe4b899e1461093657600080fd5b8063d4b12530146106f2578063d5ad477614610712578063d5fef23114610732578063e148c81d14610766578063edcfafe61461078657600080fd5b8063bef2e1ee116100f2578063bef2e1ee14610624578063bf9c50011461063a578063c71acbe614610667578063d100381114610694578063d46a5d7e146106df57600080fd5b8063ae169a501461057f578063b24c16f21461059f578063bb33b998146105bf578063bc197c81146105df57600080fd5b80634fd13391116101b1578063745101dc11610175578063745101dc146104a357806388c7c707146104c3578063897fdff0146104e35780639ea8931a146105175780639efbf5011461054b57600080fd5b80634fd13391146103d2578063577abe8d146104065780635b3e84371461043a57806365f4aded1461044f5780636d7c55f51461048357600080fd5b80630e92e864116101f85780630e92e8641461032b5780631c08bc051461034b5780632a0ca5da1461036b5780634165c2fa1461039f5780634992391b146103b257600080fd5b80630140e93e1461023557806301ffc9a71461027c5780630b60b31f146102bd5780630de26ef5146102dd57600080fd5b3661023057005b600080fd5b34801561024157600080fd5b506102697f000000000000000000000000000000000000000000000000000000000000000081565b6040519081526020015b60405180910390f35b34801561028857600080fd5b506102ad6102973660046130a3565b6001600160e01b0319166301ffc9a760e01b1490565b6040519015158152602001610273565b3480156102c957600080fd5b506102696102d83660046130e4565b61096a565b3480156102e957600080fd5b506103136102f83660046130ff565b6001602052600090815260409020546001600160a01b031681565b6040516001600160a01b039091168152602001610273565b34801561033757600080fd5b506102696103463660046130e4565b6109b7565b34801561035757600080fd5b506102ad6103663660046130ff565b6109d0565b34801561037757600080fd5b506102697f000000000000000000000000000000000000000000000000000000000000000081565b6102696103ad3660046130ff565b610a63565b3480156103be57600080fd5b506102ad6103cd366004613118565b610db9565b3480156103de57600080fd5b506102697f000000000000000000000000000000000000000000000000000000000000000081565b34801561041257600080fd5b506102697f000000000000000000000000000000000000000000000000000000000000000081565b61044d610448366004613142565b610eb4565b005b34801561045b57600080fd5b506102697f000000000000000000000000000000000000000000000000000000000000000081565b34801561048f57600080fd5b5061044d61049e366004613142565b611219565b3480156104af57600080fd5b506102ad6104be3660046130ff565b611366565b3480156104cf57600080fd5b5061044d6104de366004613142565b6113ef565b3480156104ef57600080fd5b506103137f000000000000000000000000000000000000000000000000000000000000000081565b34801561052357600080fd5b506102697f000000000000000000000000000000000000000000000000000000000000000081565b34801561055757600080fd5b506102697f000000000000000000000000000000000000000000000000000000000000000081565b34801561058b57600080fd5b5061044d61059a3660046130ff565b6117e3565b3480156105ab57600080fd5b506102ad6105ba3660046130ff565b61218e565b3480156105cb57600080fd5b506102ad6105da3660046130e4565b6121c5565b3480156105eb57600080fd5b5061060b6105fa36600461329b565b63bc197c8160e01b95945050505050565b6040516001600160e01b03199091168152602001610273565b34801561063057600080fd5b5061026960045481565b34801561064657600080fd5b506102696106553660046130e4565b60006020819052908152604090205481565b34801561067357600080fd5b506106876106823660046130e4565b6121f3565b6040516102739190613345565b3480156106a057600080fd5b506106cd6106af3660046130e4565b6001600160a01b031660009081526003602052604090205460ff1690565b60405160ff9091168152602001610273565b61044d6106ed366004613397565b612217565b3480156106fe57600080fd5b506102ad61070d3660046130e4565b6127d2565b34801561071e57600080fd5b5061068761072d3660046130e4565b6127f8565b34801561073e57600080fd5b506103137f000000000000000000000000000000000000000000000000000000000000000081565b34801561077257600080fd5b506106cd6107813660046130e4565b61281c565b34801561079257600080fd5b506108206107a13660046130ff565b600d6020528060005260406000206000915090508060000154908060010154908060020160009054906101000a90046001600160a01b03169080600301549080600401549080600501549080600601549080600701549080600801549080600901549080600a01549080600b01549080600c01549080600d015490508e565b604080519e8f5260208f019d909d526001600160a01b03909b169b8d019b909b5260608c019890985260808b019690965260a08a019490945260c089019290925260e08801526101008701526101208601526101408501526101608401526101808301919091526101a08201526101c001610273565b3480156108a257600080fd5b506102696108b13660046130e4565b612865565b3480156108c257600080fd5b5061060b6108d13660046133cf565b63f23a6e6160e01b95945050505050565b3480156108ee57600080fd5b506102697f000000000000000000000000000000000000000000000000000000000000000081565b34801561092257600080fd5b506102ad610931366004613118565b61289d565b34801561094257600080fd5b506102697f000000000000000000000000000000000000000000000000000000000000000081565b6001600160a01b03811660009081526003602052604081205460ff166109b07f0000000000000000000000000000000000000000000000000000000000000000826128f7565b9392505050565b6000806109c38361281c565b90506109b0816000612984565b6000818152600d6020526040812060048101546003909101547f000000000000000000000000000000000000000000000000000000000000000091610a149161344a565b10158015610a3357506000828152600d60205260409020600801544310155b80610a4e57506000828152600d602052604090206009015443115b15610a5b57506001919050565b506000919050565b336000908152602081905260408120548103610abe5760405162461bcd60e51b81526020600482015260156024820152742cb7ba9030b932903737ba1030b71030baba3437b960591b60448201526064015b60405180910390fd5b610ac73361096a565b341015610b095760405162461bcd60e51b815260206004820152601060248201526f2737ba1032b737bab3b41032ba3432b960811b6044820152606401610ab5565b600160046000828254610b1c919061344a565b9091555050600454604080516101c081018252828152602081018590523391810191909152600060608201819052608082018190523460a083015260c0820181905260e08201526101008101610b927f00000000000000000000000000000000000000000000000000000000000000004361344a565b8152602001610bc17f00000000000000000000000000000000000000000000000000000000000000004361344a565b815260006020808301829052604080840183905260608085018490526080948501849052868452600d80845282852087518155878501516001820155878401516002820180546001600160a01b0319166001600160a01b0390921691909117905591870151600383015594860151600482015560a0860151600582015560c0860151600682015560e086015160078083019190915561010087015160088301556101208701516009830155610140870151600a830155610160870151600b830155610180870151600c8301556101a090960151940193909355929092529020610caa90336129fc565b506000818152600860205260409020610cc390336129fc565b50336000908152600660205260409020610cdd9082612a11565b50336000818152600360205260409020547ff83f703b5ee2e539aab813380e2850c7b28c6b667e9d0cfae5cff7667d79b0aa9190859060ff168434610d427f00000000000000000000000000000000000000000000000000000000000000004361344a565b610d6c7f00000000000000000000000000000000000000000000000000000000000000004361344a565b604080516001600160a01b03989098168852602088019690965260ff94909416868601526060860192909252608085015260a084015260c0830152519081900360e00190a190505b919050565b6000818152600760205260408120610dd19084612a1d565b80610def57506000828152600860205260409020610def9084612a1d565b15610eaa576000828152600d6020526040902060048101546003909101541115610e3d576000828152600760205260409020610e2b9084612a1d565b15610e3857506001610eae565b610eaa565b6000828152600d6020526040902060048101546003909101541015610eaa576000828152600860205260409020610e749084612a1d565b8015610e9d57506000828152600d60205260409020600201546001600160a01b03848116911614155b15610eaa57506001610eae565b5060005b92915050565b604051627eeac760e11b8152306004820152602481018390527f00000000000000000000000000000000000000000000000000000000000000006001600160a01b03169062fdd58e90604401602060405180830381865afa158015610f1d573d6000803e3d6000fd5b505050506040513d601f19601f82011682018060405250810190610f41919061345d565b811115610f9f5760405162461bcd60e51b815260206004820152602660248201527f546865726520617265206e6f7420736f206d616e79204e465420746f20626520604482015265189bdd59da1d60d21b6064820152608401610ab5565b610fc97f000000000000000000000000000000000000000000000000000000000000000082613476565b3410156110245760405162461bcd60e51b815260206004820152602360248201527f596f7520646964206e6f742070617920656e6f75676820666f7220746865204e60448201526246547360e81b6064820152608401610ab5565b604051637921219560e11b8152306004820152336024820152604481018390526064810182905260a06084820152600060a48201527f00000000000000000000000000000000000000000000000000000000000000006001600160a01b03169063f242432a9060c401600060405180830381600087803b1580156110a757600080fd5b505af11580156110bb573d6000803e3d6000fd5b505050507f00000000000000000000000000000000000000000000000000000000000000006001600160a01b031663a9059cbb337f00000000000000000000000000000000000000000000000000000000000000008461111b9190613476565b6040516001600160e01b031960e085901b1681526001600160a01b03909216600483015260248201526044016020604051808303816000875af1158015611166573d6000803e3d6000fd5b505050506040513d601f19601f8201168201806040525081019061118a919061348d565b506000828152600d60205260409020600201546111b0906001600160a01b031634612a3f565b6000828152600d60209081526040918290206002015482513381529182018590529181018390526001600160a01b0390911660608201527f1cb9f23b41a0eb0a373c6e0aedc819dcd3533a8d510484e4e17441b5570dafb2906080015b60405180910390a15050565b33600090815260208190526040902054156112765760405162461bcd60e51b815260206004820152601960248201527f596f752061726520616c726561647920616e20617574686f72000000000000006044820152606401610ab5565b6000818152600160205260409020546001600160a01b0316156112f65760405162461bcd60e51b815260206004820152603260248201527f4e6f737472206163636f756e7420616c7265616479206173736f636961746564604482015271103a379030b737ba3432b91030baba3437b960711b6064820152608401610ab5565b6112ff33612adb565b33600081815260208181526040808320859055848352600182529182902080546001600160a01b031916841790558151928352820184905281018290527f54c08473d27645da32d0a97083341a40425d1dec45408d2e54e24171c87a94869060600161120d565b6000818152600d602052604081206009015443118015906113c857506000828152600d6020526040902060048101546003909101547f0000000000000000000000000000000000000000000000000000000000000000916113c69161344a565b105b80610a4e57506000828152600d6020526040902060080154431015610a5b57506001919050565b33600090815260036020526040902054605a60ff909116116114835760405162461bcd60e51b815260206004820152604160248201527f596f757220617574686f722072657075746174696f6e20697320746f6f206c6f60448201527f7720746f2061636365737320746f20746869732066756e6374696f6e616c69746064820152607960f81b608482015260a401610ab5565b6000828152600d60205260409020600481015460039091015483917f0000000000000000000000000000000000000000000000000000000000000000916114ca919061344a565b101580156114e957506000818152600d60205260409020600801544310155b8061150457506000818152600d602052604090206009015443115b61153f5760405162461bcd60e51b815260206004820152600c60248201526b2b37ba329034b99037b832b760a11b6044820152606401610ab5565b6000818152600d602052604090206004810154600390910154116115bb5760405162461bcd60e51b815260206004820152602d60248201527f5468652061727469636c6520776173206e6f7420617070726f7665642062792060448201526c74686520636f6d6d756e69747960981b6064820152608401610ab5565b6000838152600d60205260409020600201546001600160a01b031633146116335760405162461bcd60e51b815260206004820152602660248201527f596f7520617265206e6f742074686520617574686f72206f6620746869732061604482015265727469636c6560d01b6064820152608401610ab5565b6001600160a01b037f0000000000000000000000000000000000000000000000000000000000000000166323b872dd333061168e7f000000000000000000000000000000000000000000000000000000000000000087613476565b6040516001600160e01b031960e086901b1681526001600160a01b03938416600482015292909116602483015260448201526064016020604051808303816000875af11580156116e2573d6000803e3d6000fd5b505050506040513d601f19601f82011682018060405250810190611706919061348d565b5060405163731133e960e01b8152306004820152602481018490526044810183905260806064820152600060848201527f00000000000000000000000000000000000000000000000000000000000000006001600160a01b03169063731133e99060a401600060405180830381600087803b15801561178457600080fd5b505af1158015611798573d6000803e3d6000fd5b505060408051338152602081018790529081018590527f4d024829a284b876a94bae1a32407db920b88e312d6db5af0e8c89b178669cfd9250606001905060405180910390a1505050565b600081815260076020526040902081906117fd9033612a1d565b8061181b5750600081815260086020526040902061181b9033612a1d565b61185a5760405162461bcd60e51b815260206004820152601060248201526f596f7520646964206e6f7420766f746560801b6044820152606401610ab5565b6000818152600d60205260409020600481015460039091015411156118e25760008181526007602052604090206118919033612a1d565b6118dd5760405162461bcd60e51b815260206004820152601b60248201527f596f7520617265206e6f7420696e20746865206d616a6f7269747900000000006044820152606401610ab5565b61198b565b6000818152600d602052604090206004810154600390910154101561198b5760008181526008602052604090206119199033612a1d565b801561193f57506000818152600d60205260409020600201546001600160a01b03163314155b61198b5760405162461bcd60e51b815260206004820152601b60248201527f596f7520617265206e6f7420696e20746865206d616a6f7269747900000000006044820152606401610ab5565b6000828152600d60205260409020600481015460039091015483917f0000000000000000000000000000000000000000000000000000000000000000916119d2919061344a565b101580156119f157506000818152600d60205260409020600801544310155b80611a0c57506000818152600d602052604090206009015443115b611a475760405162461bcd60e51b815260206004820152600c60248201526b2b37ba329034b99037b832b760a11b6044820152606401610ab5565b6000838152600d602052604081206004810154600390910154829182918291829103611b25576000888152600d6020526040902060020154336001600160a01b0390911603611aa9576000888152600d60205260409020600501549450611b20565b6000888152600a6020908152604080832033808552908352818420548c855260098452828520918552925290912054611ae2919061344a565b6000898152600c6020908152604080832033808552908352818420548d8552600b8452828520918552925290912054919650611b1d9161344a565b92505b600093505b6000888152600d6020526040902060048101546003909101541115611d8a576000888152600d6020526040902060020154336001600160a01b0390911603611bdd576000888152600d60205260409020600b810154600590910154611b8a919061344a565b6000898152600d6020526040902060050154909550611bc9907f0000000000000000000000000000000000000000000000000000000000000000612b24565b9450611bd89050336001612b6f565b611c50565b60008881526009602090815260408083203384529091529020549450611c23857f0000000000000000000000000000000000000000000000000000000000000000612b24565b60008a8152600b6020908152604080832033808552925290912054919650909450611c5091506001612c36565b6000888152600760205260408120611c6790612ce0565b60008a815260086020526040812091925090611c8290612ce0565b90506000611c908284612cea565b60008c8152600d6020819052604090912090810154600690910154919250611cb791612d31565b9450600090505b81811015611d325760008c8152600860205260408120611cde9082612d64565b60008e8152600d60205260409020600201549091506001600160a01b03808316911614611d1057611d10816000612c36565b60008d8152600860205260409020611d289082612d70565b5050600101611cbe565b5060008b8152600760205260409020611d4b9033612d70565b50611d76817f0000000000000000000000000000000000000000000000000000000000000000612b24565b9550611d849050858861344a565b96505050505b6000888152600d6020526040902060048101546003909101541015611fbd576000888152600d602052604090206007810154600a8201546005909201549091611dd29161344a565b611ddc91906134c0565b6000898152600a60209081526040808320338452909152902054611e00919061344a565b6000898152600a60209081526040808320338452909152902054909550611e47907f0000000000000000000000000000000000000000000000000000000000000000612b24565b60008a8152600c6020908152604080832033808552925290912054919650909450611e7491506001612c36565b6000888152600860205260408120600190611e8e90612ce0565b611e9891906134e2565b60008a815260076020526040812091925090611eb390612ce0565b90506000611ec18284612cea565b60008c8152600d60205260409020600c810154600790910154919250611ee691612d31565b9450600090505b81811015611f725760008c8152600760205260408120611f0d9082612d64565b60008e8152600d60205260409020600201549091506001600160a01b0390811690821603611f4557611f40816000612b6f565b611f50565b611f50816000612c36565b60008d8152600760205260409020611f689082612d70565b5050600101611eed565b5060008b8152600860205260409020611f8b9033612d70565b50611fb6817f0000000000000000000000000000000000000000000000000000000000000000612b24565b9550505050505b611fc73386612a3f565b6001600160a01b037f0000000000000000000000000000000000000000000000000000000000000000166340c10f1933612001858861344a565b6040516001600160e01b031960e085901b1681526001600160a01b0390921660048301526024820152604401600060405180830381600087803b15801561204757600080fd5b505af115801561205b573d6000803e3d6000fd5b505050506000831115612113576001600160a01b037f00000000000000000000000000000000000000000000000000000000000000001663a9059cbb336120a2848761344a565b6040516001600160e01b031960e085901b1681526001600160a01b03909216600483015260248201526044016020604051808303816000875af11580156120ed573d6000803e3d6000fd5b505050506040513d601f19601f82011682018060405250810190612111919061348d565b505b7fb26ea8ad92f258bc70244e0ced197b6e05b0dbecd2bfc0950a39d921baafa93f3389878487612143888b61344a565b61214d919061344a565b612157919061344a565b604080516001600160a01b039095168552602085019390935291830152606082015260800160405180910390a15050505050505050565b6000612199826109d0565b15610a5b576000828152600d6020526040902060048101546003909101541115610a5b57506001919050565b6001600160a01b038116600090815260036020526040812054605a60ff9091161115610a5b57506001919050565b6001600160a01b0381166000908152600660205260409020606090610eae90612d85565b6000838152600960209081526040808320338452909152902054839015801561225757506000818152600a60209081526040808320338452909152902054155b61229c5760405162461bcd60e51b8152602060048201526016602482015275165bdd481a185d9948185b1c9958591e481d9bdd195960521b6044820152606401610ab5565b6000848152600d60205260409020600901548490431180159061230057506000818152600d6020526040902060048101546003909101547f0000000000000000000000000000000000000000000000000000000000000000916122fe9161344a565b105b8061231b57506000818152600d602052604090206008015443105b6123585760405162461bcd60e51b815260206004820152600e60248201526d159bdd19481a5cc818db1bdcd95960921b6044820152606401610ab5565b6000858152600d60205260409020600201546001600160a01b031633036123cb5760405162461bcd60e51b815260206004820152602160248201527f596f75206172652074686520617574686f72206f66207468652061727469636c6044820152606560f81b6064820152608401610ab5565b6123d433612865565b3410156124165760405162461bcd60e51b815260206004820152601060248201526f2737ba1032b737bab3b41032ba3432b960811b6044820152606401610ab5565b61241f336109b7565b83111561247e5760405162461bcd60e51b815260206004820152602760248201527f546f6f206d616e7920746f6b656e73207370656e7420746f20626f6f73742074604482015266686520766f746560c81b6064820152608401610ab5565b821561251d576040516323b872dd60e01b8152336004820152306024820152604481018490527f00000000000000000000000000000000000000000000000000000000000000006001600160a01b0316906323b872dd906064016020604051808303816000875af11580156124f7573d6000803e3d6000fd5b505050506040513d601f19601f8201168201806040525081019061251b919061348d565b505b61252633612d92565b60006125313361281c565b90508415612644576125438185612984565b6000878152600d60205260408120600301805490919061256490849061344a565b90915550506000868152600d6020526040812060060180546001929061258b90849061344a565b909155505060008681526007602052604090206125a890336129fc565b50600086815260096020908152604080832033845282528083203490819055898452600d9092528220600a018054919290916125e590849061344a565b90915550506000868152600b602090815260408083203384529091528120805486929061261390849061344a565b90915550506000868152600d60205260408120600c01805486929061263990849061344a565b9091555061274a9050565b61264e8185612984565b6000878152600d60205260408120600401805490919061266f90849061344a565b90915550506000868152600d6020526040812060070180546001929061269690849061344a565b909155505060008681526008602052604090206126b390336129fc565b506000868152600a6020908152604080832033845282528083203490819055898452600d9092528220600b018054919290916126f090849061344a565b90915550506000868152600c602090815260408083203384529091528120805486929061271e90849061344a565b90915550506000868152600d60208190526040822001805486929061274490849061344a565b90915550505b3360009081526005602052604090206127639087612a11565b5033600081815260026020908152604091829020548251938452908301899052871515838301526060830187905234608084015260ff1660a0830152517ff4139a7862f013f6e5cb1b345240bc426539f16017e9934e7ed413b55d2f84419181900360c00190a1505050505050565b6001600160a01b03811660009081526020819052604081205415610a5b57506001919050565b6001600160a01b0381166000908152600560205260409020606090610eae90612d85565b6001600160a01b03811660009081526002602052604081205460ff16810361284657506033919050565b506001600160a01b031660009081526002602052604090205460ff1690565b6000806128718361281c565b90506109b07f0000000000000000000000000000000000000000000000000000000000000000826128f7565b60008181526009602090815260408083206001600160a01b0386168452909152812054158015610e9d57506000828152600a602090815260408083206001600160a01b0387168452909152902054610eaa57506001610eae565b600080600060338460ff161161294f5760008061291860338760ff16612dda565b92506129279050826002612b24565b91506129369050606482612dfc565b9450612946905087856064612e17565b9250505061297c565b61295d8460ff166033612dda565b925061296d905085836064612e17565b905061297981866134e2565b90505b949350505050565b60008060338460ff16116129a9576129a08460ff166031612dfc565b91506129de9050565b6000806129ba8660ff166033612dda565b92506129c99050826002612b24565b91506129d89050606482612dfc565b93505050505b6129f08167016345785d8a0000613476565b905061297c838261344a565b60006109b0836001600160a01b038416612edb565b60006109b08383612edb565b6001600160a01b038116600090815260018301602052604081205415156109b0565b80471015612a625760405163cd78605960e01b8152306004820152602401610ab5565b6000826001600160a01b03168260405160006040518083038185875af1925050503d8060008114612aaf576040519150601f19603f3d011682016040523d82523d6000602084013e612ab4565b606091505b5050905080612ad657604051630a12f52160e11b815260040160405180910390fd5b505050565b6001600160a01b03811660009081526003602052604081205460ff169003612b21576001600160a01b0381166000908152600360205260409020805460ff191660331790555b50565b60008083600003612b3b5750600190506000612b68565b83830283858281612b4e57612b4e6134aa565b0414612b61576000809250925050612b68565b6001925090505b9250929050565b8015612be4576001600160a01b038216600090815260036020526040902054606560ff9091161015612be0576001600160a01b03821660009081526003602052604081208054600a9290612bc790849060ff166134f5565b92506101000a81548160ff021916908360ff1602179055505b5050565b6001600160a01b038216600090815260036020526040902054600160ff9091161115612be0576001600160a01b03821660009081526003602052604081208054600a9290612bc790849060ff1661350e565b8015612c8e576001600160a01b038216600090815260026020526040902054606560ff9091161015612be0576001600160a01b03821660009081526002602052604081208054600a9290612bc790849060ff166134f5565b6001600160a01b038216600090815260026020526040902054600160ff9091161115612be0576001600160a01b03821660009081526002602052604081208054600a9290612bc790849060ff1661350e565b6000610eae825490565b600081600003612d0557612cfe82846134c0565b9050610eae565b8215610eaa5781612d176001856134e2565b612d2191906134c0565b612d2c90600161344a565b6109b0565b60008082600003612d4757506000905080612b68565b6001838581612d5857612d586134aa565b04915091509250929050565b60006109b08383612f2a565b60006109b0836001600160a01b038416612f54565b606060006109b083613047565b6001600160a01b03811660009081526002602052604081205460ff169003612b21576001600160a01b0381166000908152600260205260409020805460ff1916603317905550565b60008083831115612df057506000905080612b68565b50600193919092039150565b60008083830184811015612b61576000809250925050612b68565b6000838302816000198587098281108382030391505080600003612e4e57838281612e4457612e446134aa565b04925050506109b0565b808411612e6e5760405163227bc15360e01b815260040160405180910390fd5b6000848688096000868103871696879004966002600389028118808a02820302808a02820302808a02820302808a02820302808a02820302808a02909103029181900381900460010186841190950394909402919094039290920491909117919091029150509392505050565b6000818152600183016020526040812054612f2257508154600181810184556000848152602080822090930184905584548482528286019093526040902091909155610eae565b506000610eae565b6000826000018281548110612f4157612f41613527565b9060005260206000200154905092915050565b6000818152600183016020526040812054801561303d576000612f786001836134e2565b8554909150600090612f8c906001906134e2565b9050808214612ff1576000866000018281548110612fac57612fac613527565b9060005260206000200154905080876000018481548110612fcf57612fcf613527565b6000918252602080832090910192909255918252600188019052604090208390555b85548690806130025761300261353d565b600190038181906000526020600020016000905590558560010160008681526020019081526020016000206000905560019350505050610eae565b6000915050610eae565b60608160000180548060200260200160405190810160405280929190818152602001828054801561309757602002820191906000526020600020905b815481526020019060010190808311613083575b50505050509050919050565b6000602082840312156130b557600080fd5b81356001600160e01b0319811681146109b057600080fd5b80356001600160a01b0381168114610db457600080fd5b6000602082840312156130f657600080fd5b6109b0826130cd565b60006020828403121561311157600080fd5b5035919050565b6000806040838503121561312b57600080fd5b613134836130cd565b946020939093013593505050565b6000806040838503121561315557600080fd5b50508035926020909101359150565b634e487b7160e01b600052604160045260246000fd5b604051601f8201601f1916810167ffffffffffffffff811182821017156131a3576131a3613164565b604052919050565b600082601f8301126131bc57600080fd5b8135602067ffffffffffffffff8211156131d8576131d8613164565b8160051b6131e782820161317a565b928352848101820192828101908785111561320157600080fd5b83870192505b8483101561322057823582529183019190830190613207565b979650505050505050565b600082601f83011261323c57600080fd5b813567ffffffffffffffff81111561325657613256613164565b613269601f8201601f191660200161317a565b81815284602083860101111561327e57600080fd5b816020850160208301376000918101602001919091529392505050565b600080600080600060a086880312156132b357600080fd5b6132bc866130cd565b94506132ca602087016130cd565b9350604086013567ffffffffffffffff808211156132e757600080fd5b6132f389838a016131ab565b9450606088013591508082111561330957600080fd5b61331589838a016131ab565b9350608088013591508082111561332b57600080fd5b506133388882890161322b565b9150509295509295909350565b6020808252825182820181905260009190848201906040850190845b8181101561337d57835183529284019291840191600101613361565b50909695505050505050565b8015158114612b2157600080fd5b6000806000606084860312156133ac57600080fd5b8335925060208401356133be81613389565b929592945050506040919091013590565b600080600080600060a086880312156133e757600080fd5b6133f0866130cd565b94506133fe602087016130cd565b93506040860135925060608601359150608086013567ffffffffffffffff81111561342857600080fd5b6133388882890161322b565b634e487b7160e01b600052601160045260246000fd5b80820180821115610eae57610eae613434565b60006020828403121561346f57600080fd5b5051919050565b8082028115828204841417610eae57610eae613434565b60006020828403121561349f57600080fd5b81516109b081613389565b634e487b7160e01b600052601260045260246000fd5b6000826134dd57634e487b7160e01b600052601260045260246000fd5b500490565b81810381811115610eae57610eae613434565b60ff8181168382160190811115610eae57610eae613434565b60ff8281168282160390811115610eae57610eae613434565b634e487b7160e01b600052603260045260246000fd5b634e487b7160e01b600052603160045260246000fdfea2646970667358221220fdbbf79dfaeba0d923585a81c8091cb9be1af67558c6ff95705865dfa44ed03564736f6c63430008160033",
  "linkReferences": {},
  "deployedLinkReferences": {}
}