{"contracts/TruthHub.sol":{"TruthHub":{"abi":[{"inputs":[{"internalType":"contract VeriToken","name":"veriTokenAddress","type":"address"},{"internalType":"contract ArticleNFT","name":"articleNftAddress","type":"address"}],"stateMutability":"nonpayable","type":"constructor"},{"inputs":[{"internalType":"address","name":"account","type":"address"}],"name":"AddressInsufficientBalance","type":"error"},{"inputs":[],"name":"FailedInnerCall","type":"error"},{"inputs":[],"name":"MathOverflowedMulDiv","type":"error"},{"anonymous":false,"inputs":[{"indexed":false,"internalType":"address","name":"_buyer","type":"address"},{"indexed":false,"internalType":"uint256","name":"_articleId","type":"uint256"},{"indexed":false,"internalType":"uint256","name":"_nftAmount","type":"uint256"},{"indexed":false,"internalType":"address","name":"_author","type":"address"}],"name":"BuyArticleNFT","type":"event"},{"anonymous":false,"inputs":[{"indexed":false,"internalType":"address","name":"_claimer","type":"address"},{"indexed":false,"internalType":"uint256","name":"_articleId","type":"uint256"},{"indexed":false,"internalType":"uint256","name":"_etherReceived","type":"uint256"},{"indexed":false,"internalType":"uint256","name":"_tokenReceived","type":"uint256"}],"name":"ClaimReward","type":"event"},{"anonymous":false,"inputs":[{"indexed":false,"internalType":"address","name":"_author","type":"address"},{"indexed":false,"internalType":"uint256","name":"_articleId","type":"uint256"},{"indexed":false,"internalType":"uint256","name":"_nftAmount","type":"uint256"}],"name":"MintArticleNFT","type":"event"},{"anonymous":false,"inputs":[{"indexed":false,"internalType":"address","name":"_author","type":"address"},{"indexed":false,"internalType":"bytes32","name":"_eventId","type":"bytes32"},{"indexed":false,"internalType":"uint256","name":"_authorReputation","type":"uint256"},{"indexed":false,"internalType":"uint256","name":"_articleId","type":"uint256"},{"indexed":false,"internalType":"uint256","name":"_etherSpentToPublish","type":"uint256"},{"indexed":false,"internalType":"uint256","name":"_minimumBlockVote","type":"uint256"},{"indexed":false,"internalType":"uint256","name":"_maximumBlockVote","type":"uint256"}],"name":"PublishArticle","type":"event"},{"anonymous":false,"inputs":[{"indexed":false,"internalType":"address","name":"_author","type":"address"},{"indexed":false,"internalType":"bytes32","name":"_signature","type":"bytes32"},{"indexed":false,"internalType":"bytes32","name":"_nostrPublicKey","type":"bytes32"}],"name":"RegisterAuthor","type":"event"},{"anonymous":false,"inputs":[{"indexed":false,"internalType":"address","name":"_voter","type":"address"},{"indexed":false,"internalType":"uint256","name":"articleId","type":"uint256"},{"indexed":false,"internalType":"bool","name":"_voteExpressed","type":"bool"},{"indexed":false,"internalType":"uint256","name":"_tokenSpentToVote","type":"uint256"},{"indexed":false,"internalType":"uint256","name":"_etherSpentToVote","type":"uint256"},{"indexed":false,"internalType":"uint256","name":"_voterReputation","type":"uint256"}],"name":"Vote","type":"event"},{"inputs":[],"name":"amountVeriPerUserPurged","outputs":[{"internalType":"uint256","name":"","type":"uint256"}],"stateMutability":"view","type":"function"},{"inputs":[],"name":"articleNFTBuyInEther","outputs":[{"internalType":"uint256","name":"","type":"uint256"}],"stateMutability":"view","type":"function"},{"inputs":[],"name":"articleNFTMintInVeri","outputs":[{"internalType":"uint256","name":"","type":"uint256"}],"stateMutability":"view","type":"function"},{"inputs":[{"internalType":"uint256","name":"","type":"uint256"}],"name":"articles","outputs":[{"internalType":"uint256","name":"articleId","type":"uint256"},{"internalType":"bytes32","name":"eventId","type":"bytes32"},{"internalType":"address","name":"author","type":"address"},{"internalType":"uint256","name":"upvotes","type":"uint256"},{"internalType":"uint256","name":"downvotes","type":"uint256"},{"internalType":"uint256","name":"etherSpentToPublish","type":"uint256"},{"internalType":"uint256","name":"upvoters","type":"uint256"},{"internalType":"uint256","name":"downvoters","type":"uint256"},{"internalType":"uint256","name":"minimumBlockThreshold","type":"uint256"},{"internalType":"uint256","name":"maximumBlockThreshold","type":"uint256"},{"internalType":"uint256","name":"ethersSpentInUpvotes","type":"uint256"},{"internalType":"uint256","name":"ethersSpentInDownvotes","type":"uint256"},{"internalType":"uint256","name":"veriSpentInUpvotes","type":"uint256"},{"internalType":"uint256","name":"veriSpentInDownvotes","type":"uint256"}],"stateMutability":"view","type":"function"},{"inputs":[{"internalType":"address","name":"","type":"address"}],"name":"authors","outputs":[{"internalType":"bytes32","name":"","type":"bytes32"}],"stateMutability":"view","type":"function"},{"inputs":[{"internalType":"uint256","name":"articleId","type":"uint256"},{"internalType":"uint256","name":"nftAmount","type":"uint256"}],"name":"buyArticleNFT","outputs":[],"stateMutability":"payable","type":"function"},{"inputs":[{"internalType":"uint256","name":"articleId","type":"uint256"}],"name":"claimReward","outputs":[],"stateMutability":"nonpayable","type":"function"},{"inputs":[{"internalType":"address","name":"user","type":"address"}],"name":"computeMaximumBoost","outputs":[{"internalType":"uint256","name":"","type":"uint256"}],"stateMutability":"view","type":"function"},{"inputs":[{"internalType":"address","name":"author","type":"address"}],"name":"computePublishPrice","outputs":[{"internalType":"uint256","name":"","type":"uint256"}],"stateMutability":"view","type":"function"},{"inputs":[{"internalType":"address","name":"reader","type":"address"}],"name":"computeVotePrice","outputs":[{"internalType":"uint256","name":"","type":"uint256"}],"stateMutability":"view","type":"function"},{"inputs":[],"name":"contractArticleNFT","outputs":[{"internalType":"contract ArticleNFT","name":"","type":"address"}],"stateMutability":"view","type":"function"},{"inputs":[],"name":"contractVeriToken","outputs":[{"internalType":"contract VeriToken","name":"","type":"address"}],"stateMutability":"view","type":"function"},{"inputs":[],"name":"endWeightVote","outputs":[{"internalType":"uint256","name":"","type":"uint256"}],"stateMutability":"view","type":"function"},{"inputs":[],"name":"etherPublishPrice","outputs":[{"internalType":"uint256","name":"","type":"uint256"}],"stateMutability":"view","type":"function"},{"inputs":[],"name":"etherVotePrice","outputs":[{"internalType":"uint256","name":"","type":"uint256"}],"stateMutability":"view","type":"function"},{"inputs":[{"internalType":"bytes32","name":"","type":"bytes32"}],"name":"eventIdToArticleId","outputs":[{"internalType":"uint256","name":"","type":"uint256"}],"stateMutability":"view","type":"function"},{"inputs":[{"internalType":"address","name":"author","type":"address"}],"name":"getAuthorArticlesPublished","outputs":[{"internalType":"uint256[]","name":"","type":"uint256[]"}],"stateMutability":"view","type":"function"},{"inputs":[{"internalType":"address","name":"user","type":"address"}],"name":"getAuthorReputation","outputs":[{"internalType":"uint8","name":"","type":"uint8"}],"stateMutability":"view","type":"function"},{"inputs":[{"internalType":"address","name":"reader","type":"address"}],"name":"getReaderArticlesVoted","outputs":[{"internalType":"uint256[]","name":"","type":"uint256[]"}],"stateMutability":"view","type":"function"},{"inputs":[{"internalType":"address","name":"user","type":"address"}],"name":"getReaderReputation","outputs":[{"internalType":"uint8","name":"","type":"uint8"}],"stateMutability":"view","type":"function"},{"inputs":[{"internalType":"address","name":"user","type":"address"}],"name":"isAuthor","outputs":[{"internalType":"bool","name":"","type":"bool"}],"stateMutability":"view","type":"function"},{"inputs":[{"internalType":"uint256","name":"articleId","type":"uint256"}],"name":"isBestArticle","outputs":[{"internalType":"bool","name":"","type":"bool"}],"stateMutability":"view","type":"function"},{"inputs":[{"internalType":"address","name":"user","type":"address"}],"name":"isBestAuthor","outputs":[{"internalType":"bool","name":"","type":"bool"}],"stateMutability":"view","type":"function"},{"inputs":[{"internalType":"address","name":"user","type":"address"},{"internalType":"uint256","name":"articleId","type":"uint256"}],"name":"isValidClaimer","outputs":[{"internalType":"bool","name":"","type":"bool"}],"stateMutability":"view","type":"function"},{"inputs":[{"internalType":"address","name":"user","type":"address"},{"internalType":"uint256","name":"articleId","type":"uint256"}],"name":"isValidVoter","outputs":[{"internalType":"bool","name":"","type":"bool"}],"stateMutability":"view","type":"function"},{"inputs":[{"internalType":"uint256","name":"articleId","type":"uint256"}],"name":"isVoteClosed","outputs":[{"internalType":"bool","name":"","type":"bool"}],"stateMutability":"view","type":"function"},{"inputs":[{"internalType":"uint256","name":"articleId","type":"uint256"}],"name":"isVoteOpen","outputs":[{"internalType":"bool","name":"","type":"bool"}],"stateMutability":"view","type":"function"},{"inputs":[],"name":"maximumBlockDelta","outputs":[{"internalType":"uint256","name":"","type":"uint256"}],"stateMutability":"view","type":"function"},{"inputs":[],"name":"minimumBlockDelta","outputs":[{"internalType":"uint256","name":"","type":"uint256"}],"stateMutability":"view","type":"function"},{"inputs":[{"internalType":"uint256","name":"articleId","type":"uint256"},{"internalType":"uint256","name":"nftAmount","type":"uint256"}],"name":"mintArticleNFT","outputs":[],"stateMutability":"nonpayable","type":"function"},{"inputs":[],"name":"multiplierVeriPerEther","outputs":[{"internalType":"uint256","name":"","type":"uint256"}],"stateMutability":"view","type":"function"},{"inputs":[{"internalType":"bytes32","name":"","type":"bytes32"}],"name":"nostrAccountToEthereumAccount","outputs":[{"internalType":"address","name":"","type":"address"}],"stateMutability":"view","type":"function"},{"inputs":[{"internalType":"address","name":"","type":"address"},{"internalType":"address","name":"","type":"address"},{"internalType":"uint256[]","name":"","type":"uint256[]"},{"internalType":"uint256[]","name":"","type":"uint256[]"},{"internalType":"bytes","name":"","type":"bytes"}],"name":"onERC1155BatchReceived","outputs":[{"internalType":"bytes4","name":"","type":"bytes4"}],"stateMutability":"nonpayable","type":"function"},{"inputs":[{"internalType":"address","name":"","type":"address"},{"internalType":"address","name":"","type":"address"},{"internalType":"uint256","name":"","type":"uint256"},{"internalType":"uint256","name":"","type":"uint256"},{"internalType":"bytes","name":"","type":"bytes"}],"name":"onERC1155Received","outputs":[{"internalType":"bytes4","name":"","type":"bytes4"}],"stateMutability":"nonpayable","type":"function"},{"inputs":[{"internalType":"bytes32","name":"eventId","type":"bytes32"}],"name":"publishArticle","outputs":[{"internalType":"uint256","name":"","type":"uint256"}],"stateMutability":"payable","type":"function"},{"inputs":[{"internalType":"bytes32","name":"signature","type":"bytes32"},{"internalType":"bytes32","name":"nostrPublicKey","type":"bytes32"}],"name":"registerAuthor","outputs":[],"stateMutability":"nonpayable","type":"function"},{"inputs":[{"internalType":"bytes4","name":"interfaceId","type":"bytes4"}],"name":"supportsInterface","outputs":[{"internalType":"bool","name":"","type":"bool"}],"stateMutability":"view","type":"function"},{"inputs":[],"name":"totalArticles","outputs":[{"internalType":"uint256","name":"","type":"uint256"}],"stateMutability":"view","type":"function"},{"inputs":[{"internalType":"uint256","name":"articleId","type":"uint256"},{"internalType":"bool","name":"voteExpressed","type":"bool"},{"internalType":"uint256","name":"tokenSpentToVote","type":"uint256"}],"name":"vote","outputs":[],"stateMutability":"payable","type":"function"},{"stateMutability":"payable","type":"receive"}],"evm":{"bytecode":{"linkReferences":{},"object":"6101e06040523480156200001257600080fd5b50604051620037e7380380620037e78339810160408190526200003591620000ca565b66038d7ea4c68000608052662386f26fc1000060a0526103e860c05267016345785d8a000060e052681b1ae4d6e2ef50000061014052615a0061010052619d80610120526000600455671bc16d674ec800006101605266071afd498d0000610180526001600160a01b039182166101a052166101c05262000109565b6001600160a01b0381168114620000c757600080fd5b50565b60008060408385031215620000de57600080fd5b8251620000eb81620000b1565b6020840151909250620000fe81620000b1565b809150509250929050565b60805160a05160c05160e05161010051610120516101405161016051610180516101a0516101c05161359a6200024d6000396000818161050001528181610f72015281816110fe01526117db01526000818161077c01528181611164015281816116e0015281816120740152818161211501526124d6015260008181610534015261104701526000818161042301528181611194015261170c01526000818161046c01528181610a23015281816114400152818161154301528181611a4b015261237801526000818161038801528181610c300152610dea01526000818161025201528181610c010152610dc001526000818161092c01528181611df5015261203501526000818161056801528181611c4801528181611ca20152611ec60152600081816103ef01526109c301526000818161098001526128a8015261359a6000f3fe6080604052600436106102345760003560e01c8063a9c659e41161012e578063d4b12530116100ab578063f1fddbae1161006f578063f1fddbae146108ce578063f23a6e61146108ee578063f4180e091461091a578063f78ba7101461094e578063fe4b899e1461096e57600080fd5b8063d4b125301461072a578063d5ad47761461074a578063d5fef2311461076a578063e148c81d1461079e578063edcfafe6146107be57600080fd5b8063bef2e1ee116100f2578063bef2e1ee1461065c578063bf9c500114610672578063c71acbe61461069f578063d1003811146106cc578063d46a5d7e1461071757600080fd5b8063a9c659e41461058a578063ae169a50146105b7578063b24c16f2146105d7578063bb33b998146105f7578063bc197c811461061757600080fd5b80634fd13391116101bc578063745101dc11610180578063745101dc146104ae57806388c7c707146104ce578063897fdff0146104ee5780639ea8931a146105225780639efbf5011461055657600080fd5b80634fd13391146103dd578063577abe8d146104115780635b3e84371461044557806365f4aded1461045a5780636d7c55f51461048e57600080fd5b80630e92e864116102035780630e92e864146103365780631c08bc05146103565780632a0ca5da146103765780634165c2fa146103aa5780634992391b146103bd57600080fd5b80630140e93e1461024057806301ffc9a7146102875780630b60b31f146102c85780630de26ef5146102e857600080fd5b3661023b57005b600080fd5b34801561024c57600080fd5b506102747f000000000000000000000000000000000000000000000000000000000000000081565b6040519081526020015b60405180910390f35b34801561029357600080fd5b506102b86102a23660046130b4565b6001600160e01b0319166301ffc9a760e01b1490565b604051901515815260200161027e565b3480156102d457600080fd5b506102746102e33660046130f5565b6109a2565b3480156102f457600080fd5b5061031e610303366004613110565b6001602052600090815260409020546001600160a01b031681565b6040516001600160a01b03909116815260200161027e565b34801561034257600080fd5b506102746103513660046130f5565b6109ef565b34801561036257600080fd5b506102b8610371366004613110565b610a08565b34801561038257600080fd5b506102747f000000000000000000000000000000000000000000000000000000000000000081565b6102746103b8366004613110565b610a9b565b3480156103c957600080fd5b506102b86103d8366004613129565b610e5c565b3480156103e957600080fd5b506102747f000000000000000000000000000000000000000000000000000000000000000081565b34801561041d57600080fd5b506102747f000000000000000000000000000000000000000000000000000000000000000081565b610458610453366004613153565b610f57565b005b34801561046657600080fd5b506102747f000000000000000000000000000000000000000000000000000000000000000081565b34801561049a57600080fd5b506104586104a9366004613153565b6112bc565b3480156104ba57600080fd5b506102b86104c9366004613110565b611409565b3480156104da57600080fd5b506104586104e9366004613153565b611492565b3480156104fa57600080fd5b5061031e7f000000000000000000000000000000000000000000000000000000000000000081565b34801561052e57600080fd5b506102747f000000000000000000000000000000000000000000000000000000000000000081565b34801561056257600080fd5b506102747f000000000000000000000000000000000000000000000000000000000000000081565b34801561059657600080fd5b506102746105a5366004613110565b600e6020526000908152604090205481565b3480156105c357600080fd5b506104586105d2366004613110565b611886565b3480156105e357600080fd5b506102b86105f2366004613110565b612231565b34801561060357600080fd5b506102b86106123660046130f5565b612268565b34801561062357600080fd5b506106436106323660046132ac565b63bc197c8160e01b95945050505050565b6040516001600160e01b0319909116815260200161027e565b34801561066857600080fd5b5061027460045481565b34801561067e57600080fd5b5061027461068d3660046130f5565b60006020819052908152604090205481565b3480156106ab57600080fd5b506106bf6106ba3660046130f5565b612296565b60405161027e9190613356565b3480156106d857600080fd5b506107056106e73660046130f5565b6001600160a01b031660009081526003602052604090205460ff1690565b60405160ff909116815260200161027e565b6104586107253660046133a8565b6122ba565b34801561073657600080fd5b506102b86107453660046130f5565b612802565b34801561075657600080fd5b506106bf6107653660046130f5565b612828565b34801561077657600080fd5b5061031e7f000000000000000000000000000000000000000000000000000000000000000081565b3480156107aa57600080fd5b506107056107b93660046130f5565b61284c565b3480156107ca57600080fd5b506108586107d9366004613110565b600d6020528060005260406000206000915090508060000154908060010154908060020160009054906101000a90046001600160a01b03169080600301549080600401549080600501549080600601549080600701549080600801549080600901549080600a01549080600b01549080600c01549080600d015490508e565b604080519e8f5260208f019d909d526001600160a01b03909b169b8d019b909b5260608c019890985260808b019690965260a08a019490945260c089019290925260e08801526101008701526101208601526101408501526101608401526101808301919091526101a08201526101c00161027e565b3480156108da57600080fd5b506102746108e93660046130f5565b612895565b3480156108fa57600080fd5b506106436109093660046133e0565b63f23a6e6160e01b95945050505050565b34801561092657600080fd5b506102747f000000000000000000000000000000000000000000000000000000000000000081565b34801561095a57600080fd5b506102b8610969366004613129565b6128cd565b34801561097a57600080fd5b506102747f000000000000000000000000000000000000000000000000000000000000000081565b6001600160a01b03811660009081526003602052604081205460ff166109e87f000000000000000000000000000000000000000000000000000000000000000082612927565b9392505050565b6000806109fb8361284c565b90506109e8816000612995565b6000818152600d6020526040812060048101546003909101547f000000000000000000000000000000000000000000000000000000000000000091610a4c9161345b565b10158015610a6b57506000828152600d60205260409020600801544310155b80610a8657506000828152600d602052604090206009015443115b15610a9357506001919050565b506000919050565b336000908152602081905260408120548103610af65760405162461bcd60e51b81526020600482015260156024820152742cb7ba9030b932903737ba1030b71030baba3437b960591b60448201526064015b60405180910390fd5b610aff336109a2565b341015610b415760405162461bcd60e51b815260206004820152601060248201526f2737ba1032b737bab3b41032ba3432b960811b6044820152606401610aed565b6000828152600e602052604090205415610b9d5760405162461bcd60e51b815260206004820152601960248201527f41727469636c6520616c7265616479207075626c6973686564000000000000006044820152606401610aed565b600160046000828254610bb0919061345b565b9091555050600454604080516101c081018252828152602081018590523391810191909152600060608201819052608082018190523460a083015260c0820181905260e08201526101008101610c267f00000000000000000000000000000000000000000000000000000000000000004361345b565b8152602001610c557f00000000000000000000000000000000000000000000000000000000000000004361345b565b815260006020808301829052604080840183905260608085018490526080948501849052868452600d80845282852087518155878501516001820155878401516002820180546001600160a01b0319166001600160a01b0390921691909117905591870151600383015594860151600482015560a0860151600582015560c0860151600682015560e086015160078083019190915561010087015160088301556101208701516009830155610140870151600a830155610160870151600b830155610180870151600c8301556101a090960151940193909355929092529020610d3e9033612a0d565b506000818152600860205260409020610d579033612a0d565b506000838152600e6020908152604080832084905533835260069091529020610d809082612a22565b50336000818152600360205260409020547ff83f703b5ee2e539aab813380e2850c7b28c6b667e9d0cfae5cff7667d79b0aa9190859060ff168434610de57f00000000000000000000000000000000000000000000000000000000000000004361345b565b610e0f7f00000000000000000000000000000000000000000000000000000000000000004361345b565b604080516001600160a01b03989098168852602088019690965260ff94909416868601526060860192909252608085015260a084015260c0830152519081900360e00190a190505b919050565b6000818152600760205260408120610e749084612a2e565b80610e9257506000828152600860205260409020610e929084612a2e565b15610f4d576000828152600d6020526040902060048101546003909101541115610ee0576000828152600760205260409020610ece9084612a2e565b15610edb57506001610f51565b610f4d565b6000828152600d6020526040902060048101546003909101541015610f4d576000828152600860205260409020610f179084612a2e565b8015610f4057506000828152600d60205260409020600201546001600160a01b03848116911614155b15610f4d57506001610f51565b5060005b92915050565b604051627eeac760e11b8152306004820152602481018390527f00000000000000000000000000000000000000000000000000000000000000006001600160a01b03169062fdd58e90604401602060405180830381865afa158015610fc0573d6000803e3d6000fd5b505050506040513d601f19601f82011682018060405250810190610fe4919061346e565b8111156110425760405162461bcd60e51b815260206004820152602660248201527f546865726520617265206e6f7420736f206d616e79204e465420746f20626520604482015265189bdd59da1d60d21b6064820152608401610aed565b61106c7f000000000000000000000000000000000000000000000000000000000000000082613487565b3410156110c75760405162461bcd60e51b815260206004820152602360248201527f596f7520646964206e6f742070617920656e6f75676820666f7220746865204e60448201526246547360e81b6064820152608401610aed565b604051637921219560e11b8152306004820152336024820152604481018390526064810182905260a06084820152600060a48201527f00000000000000000000000000000000000000000000000000000000000000006001600160a01b03169063f242432a9060c401600060405180830381600087803b15801561114a57600080fd5b505af115801561115e573d6000803e3d6000fd5b505050507f00000000000000000000000000000000000000000000000000000000000000006001600160a01b031663a9059cbb337f0000000000000000000000000000000000000000000000000000000000000000846111be9190613487565b6040516001600160e01b031960e085901b1681526001600160a01b03909216600483015260248201526044016020604051808303816000875af1158015611209573d6000803e3d6000fd5b505050506040513d601f19601f8201168201806040525081019061122d919061349e565b506000828152600d6020526040902060020154611253906001600160a01b031634612a50565b6000828152600d60209081526040918290206002015482513381529182018590529181018390526001600160a01b0390911660608201527f1cb9f23b41a0eb0a373c6e0aedc819dcd3533a8d510484e4e17441b5570dafb2906080015b60405180910390a15050565b33600090815260208190526040902054156113195760405162461bcd60e51b815260206004820152601960248201527f596f752061726520616c726561647920616e20617574686f72000000000000006044820152606401610aed565b6000818152600160205260409020546001600160a01b0316156113995760405162461bcd60e51b815260206004820152603260248201527f4e6f737472206163636f756e7420616c7265616479206173736f636961746564604482015271103a379030b737ba3432b91030baba3437b960711b6064820152608401610aed565b6113a233612aec565b33600081815260208181526040808320859055848352600182529182902080546001600160a01b031916841790558151928352820184905281018290527f54c08473d27645da32d0a97083341a40425d1dec45408d2e54e24171c87a9486906060016112b0565b6000818152600d6020526040812060090154431180159061146b57506000828152600d6020526040902060048101546003909101547f0000000000000000000000000000000000000000000000000000000000000000916114699161345b565b105b80610a8657506000828152600d6020526040902060080154431015610a9357506001919050565b33600090815260036020526040902054605a60ff909116116115265760405162461bcd60e51b815260206004820152604160248201527f596f757220617574686f722072657075746174696f6e20697320746f6f206c6f60448201527f7720746f2061636365737320746f20746869732066756e6374696f6e616c69746064820152607960f81b608482015260a401610aed565b6000828152600d60205260409020600481015460039091015483917f00000000000000000000000000000000000000000000000000000000000000009161156d919061345b565b1015801561158c57506000818152600d60205260409020600801544310155b806115a757506000818152600d602052604090206009015443115b6115e25760405162461bcd60e51b815260206004820152600c60248201526b2b37ba329034b99037b832b760a11b6044820152606401610aed565b6000818152600d6020526040902060048101546003909101541161165e5760405162461bcd60e51b815260206004820152602d60248201527f5468652061727469636c6520776173206e6f7420617070726f7665642062792060448201526c74686520636f6d6d756e69747960981b6064820152608401610aed565b6000838152600d60205260409020600201546001600160a01b031633146116d65760405162461bcd60e51b815260206004820152602660248201527f596f7520617265206e6f742074686520617574686f72206f6620746869732061604482015265727469636c6560d01b6064820152608401610aed565b6001600160a01b037f0000000000000000000000000000000000000000000000000000000000000000166323b872dd33306117317f000000000000000000000000000000000000000000000000000000000000000087613487565b6040516001600160e01b031960e086901b1681526001600160a01b03938416600482015292909116602483015260448201526064016020604051808303816000875af1158015611785573d6000803e3d6000fd5b505050506040513d601f19601f820116820180604052508101906117a9919061349e565b5060405163731133e960e01b8152306004820152602481018490526044810183905260806064820152600060848201527f00000000000000000000000000000000000000000000000000000000000000006001600160a01b03169063731133e99060a401600060405180830381600087803b15801561182757600080fd5b505af115801561183b573d6000803e3d6000fd5b505060408051338152602081018790529081018590527f4d024829a284b876a94bae1a32407db920b88e312d6db5af0e8c89b178669cfd9250606001905060405180910390a1505050565b600081815260076020526040902081906118a09033612a2e565b806118be575060008181526008602052604090206118be9033612a2e565b6118fd5760405162461bcd60e51b815260206004820152601060248201526f596f7520646964206e6f7420766f746560801b6044820152606401610aed565b6000818152600d60205260409020600481015460039091015411156119855760008181526007602052604090206119349033612a2e565b6119805760405162461bcd60e51b815260206004820152601b60248201527f596f7520617265206e6f7420696e20746865206d616a6f7269747900000000006044820152606401610aed565b611a2e565b6000818152600d6020526040902060048101546003909101541015611a2e5760008181526008602052604090206119bc9033612a2e565b80156119e257506000818152600d60205260409020600201546001600160a01b03163314155b611a2e5760405162461bcd60e51b815260206004820152601b60248201527f596f7520617265206e6f7420696e20746865206d616a6f7269747900000000006044820152606401610aed565b6000828152600d60205260409020600481015460039091015483917f000000000000000000000000000000000000000000000000000000000000000091611a75919061345b565b10158015611a9457506000818152600d60205260409020600801544310155b80611aaf57506000818152600d602052604090206009015443115b611aea5760405162461bcd60e51b815260206004820152600c60248201526b2b37ba329034b99037b832b760a11b6044820152606401610aed565b6000838152600d602052604081206004810154600390910154829182918291829103611bc8576000888152600d6020526040902060020154336001600160a01b0390911603611b4c576000888152600d60205260409020600501549450611bc3565b6000888152600a6020908152604080832033808552908352818420548c855260098452828520918552925290912054611b85919061345b565b6000898152600c6020908152604080832033808552908352818420548d8552600b8452828520918552925290912054919650611bc09161345b565b92505b600093505b6000888152600d6020526040902060048101546003909101541115611e2d576000888152600d6020526040902060020154336001600160a01b0390911603611c80576000888152600d60205260409020600b810154600590910154611c2d919061345b565b6000898152600d6020526040902060050154909550611c6c907f0000000000000000000000000000000000000000000000000000000000000000612b35565b9450611c7b9050336001612b80565b611cf3565b60008881526009602090815260408083203384529091529020549450611cc6857f0000000000000000000000000000000000000000000000000000000000000000612b35565b60008a8152600b6020908152604080832033808552925290912054919650909450611cf391506001612c47565b6000888152600760205260408120611d0a90612cf1565b60008a815260086020526040812091925090611d2590612cf1565b90506000611d338284612cfb565b60008c8152600d6020819052604090912090810154600690910154919250611d5a91612d42565b9450600090505b81811015611dd55760008c8152600860205260408120611d819082612d75565b60008e8152600d60205260409020600201549091506001600160a01b03808316911614611db357611db3816000612c47565b60008d8152600860205260409020611dcb9082612d81565b5050600101611d61565b5060008b8152600760205260409020611dee9033612d81565b50611e19817f0000000000000000000000000000000000000000000000000000000000000000612b35565b9550611e279050858861345b565b96505050505b6000888152600d6020526040902060048101546003909101541015612060576000888152600d602052604090206007810154600a8201546005909201549091611e759161345b565b611e7f91906134d1565b6000898152600a60209081526040808320338452909152902054611ea3919061345b565b6000898152600a60209081526040808320338452909152902054909550611eea907f0000000000000000000000000000000000000000000000000000000000000000612b35565b60008a8152600c6020908152604080832033808552925290912054919650909450611f1791506001612c47565b6000888152600860205260408120600190611f3190612cf1565b611f3b91906134f3565b60008a815260076020526040812091925090611f5690612cf1565b90506000611f648284612cfb565b60008c8152600d60205260409020600c810154600790910154919250611f8991612d42565b9450600090505b818110156120155760008c8152600760205260408120611fb09082612d75565b60008e8152600d60205260409020600201549091506001600160a01b0390811690821603611fe857611fe3816000612b80565b611ff3565b611ff3816000612c47565b60008d815260076020526040902061200b9082612d81565b5050600101611f90565b5060008b815260086020526040902061202e9033612d81565b50612059817f0000000000000000000000000000000000000000000000000000000000000000612b35565b9550505050505b61206a3386612a50565b6001600160a01b037f0000000000000000000000000000000000000000000000000000000000000000166340c10f19336120a4858861345b565b6040516001600160e01b031960e085901b1681526001600160a01b0390921660048301526024820152604401600060405180830381600087803b1580156120ea57600080fd5b505af11580156120fe573d6000803e3d6000fd5b5050505060008311156121b6576001600160a01b037f00000000000000000000000000000000000000000000000000000000000000001663a9059cbb33612145848761345b565b6040516001600160e01b031960e085901b1681526001600160a01b03909216600483015260248201526044016020604051808303816000875af1158015612190573d6000803e3d6000fd5b505050506040513d601f19601f820116820180604052508101906121b4919061349e565b505b7fb26ea8ad92f258bc70244e0ced197b6e05b0dbecd2bfc0950a39d921baafa93f33898784876121e6888b61345b565b6121f0919061345b565b6121fa919061345b565b604080516001600160a01b039095168552602085019390935291830152606082015260800160405180910390a15050505050505050565b600061223c82610a08565b15610a93576000828152600d6020526040902060048101546003909101541115610a9357506001919050565b6001600160a01b038116600090815260036020526040812054605a60ff9091161115610a9357506001919050565b6001600160a01b0381166000908152600660205260409020606090610f5190612d96565b600083815260096020908152604080832033845290915290205483901580156122fa57506000818152600a60209081526040808320338452909152902054155b61233f5760405162461bcd60e51b8152602060048201526016602482015275165bdd481a185d9948185b1c9958591e481d9bdd195960521b6044820152606401610aed565b6000848152600d6020526040902060090154849043118015906123a357506000818152600d6020526040902060048101546003909101547f0000000000000000000000000000000000000000000000000000000000000000916123a19161345b565b105b806123be57506000818152600d602052604090206008015443105b6123fb5760405162461bcd60e51b815260206004820152600e60248201526d159bdd19481a5cc818db1bdcd95960921b6044820152606401610aed565b61240433612895565b3410156124465760405162461bcd60e51b815260206004820152601060248201526f2737ba1032b737bab3b41032ba3432b960811b6044820152606401610aed565b61244f336109ef565b8311156124ae5760405162461bcd60e51b815260206004820152602760248201527f546f6f206d616e7920746f6b656e73207370656e7420746f20626f6f73742074604482015266686520766f746560c81b6064820152608401610aed565b821561254d576040516323b872dd60e01b8152336004820152306024820152604481018490527f00000000000000000000000000000000000000000000000000000000000000006001600160a01b0316906323b872dd906064016020604051808303816000875af1158015612527573d6000803e3d6000fd5b505050506040513d601f19601f8201168201806040525081019061254b919061349e565b505b61255633612da3565b60006125613361284c565b90508415612674576125738185612995565b6000878152600d60205260408120600301805490919061259490849061345b565b90915550506000868152600d602052604081206006018054600192906125bb90849061345b565b909155505060008681526007602052604090206125d89033612a0d565b50600086815260096020908152604080832033845282528083203490819055898452600d9092528220600a0180549192909161261590849061345b565b90915550506000868152600b602090815260408083203384529091528120805486929061264390849061345b565b90915550506000868152600d60205260408120600c01805486929061266990849061345b565b9091555061277a9050565b61267e8185612995565b6000878152600d60205260408120600401805490919061269f90849061345b565b90915550506000868152600d602052604081206007018054600192906126c690849061345b565b909155505060008681526008602052604090206126e39033612a0d565b506000868152600a6020908152604080832033845282528083203490819055898452600d9092528220600b0180549192909161272090849061345b565b90915550506000868152600c602090815260408083203384529091528120805486929061274e90849061345b565b90915550506000868152600d60208190526040822001805486929061277490849061345b565b90915550505b3360009081526005602052604090206127939087612a22565b5033600081815260026020908152604091829020548251938452908301899052871515838301526060830187905234608084015260ff1660a0830152517ff4139a7862f013f6e5cb1b345240bc426539f16017e9934e7ed413b55d2f84419181900360c00190a1505050505050565b6001600160a01b03811660009081526020819052604081205415610a9357506001919050565b6001600160a01b0381166000908152600560205260409020606090610f5190612d96565b6001600160a01b03811660009081526002602052604081205460ff16810361287657506033919050565b506001600160a01b031660009081526002602052604090205460ff1690565b6000806128a18361284c565b90506109e87f000000000000000000000000000000000000000000000000000000000000000082612927565b60008181526009602090815260408083206001600160a01b0386168452909152812054158015610f4057506000828152600a602090815260408083206001600160a01b0387168452909152902054610f4d57506001610f51565b60008060338360ff161161296f5760008061294660338660ff16612deb565b92506129559050826002612b35565b91506129649050606482612e0d565b935061298192505050565b61297d8360ff166033612deb565b9150505b61298d84826064612e28565b949350505050565b60008060338460ff16116129ba576129b18460ff166031612e0d565b91506129ef9050565b6000806129cb8660ff166033612deb565b92506129da9050826002612b35565b91506129e99050606482612e0d565b93505050505b612a018167016345785d8a0000613487565b905061298d838261345b565b60006109e8836001600160a01b038416612eec565b60006109e88383612eec565b6001600160a01b038116600090815260018301602052604081205415156109e8565b80471015612a735760405163cd78605960e01b8152306004820152602401610aed565b6000826001600160a01b03168260405160006040518083038185875af1925050503d8060008114612ac0576040519150601f19603f3d011682016040523d82523d6000602084013e612ac5565b606091505b5050905080612ae757604051630a12f52160e11b815260040160405180910390fd5b505050565b6001600160a01b03811660009081526003602052604081205460ff169003612b32576001600160a01b0381166000908152600360205260409020805460ff191660331790555b50565b60008083600003612b4c5750600190506000612b79565b83830283858281612b5f57612b5f6134bb565b0414612b72576000809250925050612b79565b6001925090505b9250929050565b8015612bf5576001600160a01b038216600090815260036020526040902054606560ff9091161015612bf1576001600160a01b0382166000908152600360205260408120805460019290612bd890849060ff16613506565b92506101000a81548160ff021916908360ff1602179055505b5050565b6001600160a01b038216600090815260036020526040902054600160ff9091161115612bf1576001600160a01b0382166000908152600360205260408120805460019290612bd890849060ff1661351f565b8015612c9f576001600160a01b038216600090815260026020526040902054606560ff9091161015612bf1576001600160a01b0382166000908152600260205260408120805460019290612bd890849060ff16613506565b6001600160a01b038216600090815260026020526040902054600160ff9091161115612bf1576001600160a01b0382166000908152600260205260408120805460019290612bd890849060ff1661351f565b6000610f51825490565b600081600003612d1657612d0f82846134d1565b9050610f51565b8215610f4d5781612d286001856134f3565b612d3291906134d1565b612d3d90600161345b565b6109e8565b60008082600003612d5857506000905080612b79565b6001838581612d6957612d696134bb565b04915091509250929050565b60006109e88383612f3b565b60006109e8836001600160a01b038416612f65565b606060006109e883613058565b6001600160a01b03811660009081526002602052604081205460ff169003612b32576001600160a01b0381166000908152600260205260409020805460ff1916603317905550565b60008083831115612e0157506000905080612b79565b50600193919092039150565b60008083830184811015612b72576000809250925050612b79565b6000838302816000198587098281108382030391505080600003612e5f57838281612e5557612e556134bb565b04925050506109e8565b808411612e7f5760405163227bc15360e01b815260040160405180910390fd5b6000848688096000868103871696879004966002600389028118808a02820302808a02820302808a02820302808a02820302808a02820302808a02909103029181900381900460010186841190950394909402919094039290920491909117919091029150509392505050565b6000818152600183016020526040812054612f3357508154600181810184556000848152602080822090930184905584548482528286019093526040902091909155610f51565b506000610f51565b6000826000018281548110612f5257612f52613538565b9060005260206000200154905092915050565b6000818152600183016020526040812054801561304e576000612f896001836134f3565b8554909150600090612f9d906001906134f3565b9050808214613002576000866000018281548110612fbd57612fbd613538565b9060005260206000200154905080876000018481548110612fe057612fe0613538565b6000918252602080832090910192909255918252600188019052604090208390555b85548690806130135761301361354e565b600190038181906000526020600020016000905590558560010160008681526020019081526020016000206000905560019350505050610f51565b6000915050610f51565b6060816000018054806020026020016040519081016040528092919081815260200182805480156130a857602002820191906000526020600020905b815481526020019060010190808311613094575b50505050509050919050565b6000602082840312156130c657600080fd5b81356001600160e01b0319811681146109e857600080fd5b80356001600160a01b0381168114610e5757600080fd5b60006020828403121561310757600080fd5b6109e8826130de565b60006020828403121561312257600080fd5b5035919050565b6000806040838503121561313c57600080fd5b613145836130de565b946020939093013593505050565b6000806040838503121561316657600080fd5b50508035926020909101359150565b634e487b7160e01b600052604160045260246000fd5b604051601f8201601f1916810167ffffffffffffffff811182821017156131b4576131b4613175565b604052919050565b600082601f8301126131cd57600080fd5b8135602067ffffffffffffffff8211156131e9576131e9613175565b8160051b6131f882820161318b565b928352848101820192828101908785111561321257600080fd5b83870192505b8483101561323157823582529183019190830190613218565b979650505050505050565b600082601f83011261324d57600080fd5b813567ffffffffffffffff81111561326757613267613175565b61327a601f8201601f191660200161318b565b81815284602083860101111561328f57600080fd5b816020850160208301376000918101602001919091529392505050565b600080600080600060a086880312156132c457600080fd5b6132cd866130de565b94506132db602087016130de565b9350604086013567ffffffffffffffff808211156132f857600080fd5b61330489838a016131bc565b9450606088013591508082111561331a57600080fd5b61332689838a016131bc565b9350608088013591508082111561333c57600080fd5b506133498882890161323c565b9150509295509295909350565b6020808252825182820181905260009190848201906040850190845b8181101561338e57835183529284019291840191600101613372565b50909695505050505050565b8015158114612b3257600080fd5b6000806000606084860312156133bd57600080fd5b8335925060208401356133cf8161339a565b929592945050506040919091013590565b600080600080600060a086880312156133f857600080fd5b613401866130de565b945061340f602087016130de565b93506040860135925060608601359150608086013567ffffffffffffffff81111561343957600080fd5b6133498882890161323c565b634e487b7160e01b600052601160045260246000fd5b80820180821115610f5157610f51613445565b60006020828403121561348057600080fd5b5051919050565b8082028115828204841417610f5157610f51613445565b6000602082840312156134b057600080fd5b81516109e88161339a565b634e487b7160e01b600052601260045260246000fd5b6000826134ee57634e487b7160e01b600052601260045260246000fd5b500490565b81810381811115610f5157610f51613445565b60ff8181168382160190811115610f5157610f51613445565b60ff8281168282160390811115610f5157610f51613445565b634e487b7160e01b600052603260045260246000fd5b634e487b7160e01b600052603160045260246000fdfea264697066735822122078b9f960f5ab0c10587666f2090338e83a11b0ea3e381511387fd3b44500503564736f6c63430008160033","opcodes":"PUSH2 0x1E0 PUSH1 0x40 MSTORE CALLVALUE DUP1 ISZERO PUSH3 0x12 JUMPI PUSH1 0x0 DUP1 REVERT JUMPDEST POP PUSH1 0x40 MLOAD PUSH3 0x37E7 CODESIZE SUB DUP1 PUSH3 0x37E7 DUP4 CODECOPY DUP2 ADD PUSH1 0x40 DUP2 SWAP1 MSTORE PUSH3 0x35 SWAP2 PUSH3 0xCA JUMP JUMPDEST PUSH7 0x38D7EA4C68000 PUSH1 0x80 MSTORE PUSH7 0x2386F26FC10000 PUSH1 0xA0 MSTORE PUSH2 0x3E8 PUSH1 0xC0 MSTORE PUSH8 0x16345785D8A0000 PUSH1 0xE0 MSTORE PUSH9 0x1B1AE4D6E2EF500000 PUSH2 0x140 MSTORE PUSH2 0x5A00 PUSH2 0x100 MSTORE PUSH2 0x9D80 PUSH2 0x120 MSTORE PUSH1 0x0 PUSH1 0x4 SSTORE PUSH8 0x1BC16D674EC80000 PUSH2 0x160 MSTORE PUSH7 0x71AFD498D0000 PUSH2 0x180 MSTORE PUSH1 0x1 PUSH1 0x1 PUSH1 0xA0 SHL SUB SWAP2 DUP3 AND PUSH2 0x1A0 MSTORE AND PUSH2 0x1C0 MSTORE PUSH3 0x109 JUMP JUMPDEST PUSH1 0x1 PUSH1 0x1 PUSH1 0xA0 SHL SUB DUP2 AND DUP2 EQ PUSH3 0xC7 JUMPI PUSH1 0x0 DUP1 REVERT JUMPDEST POP JUMP JUMPDEST PUSH1 0x0 DUP1 PUSH1 0x40 DUP4 DUP6 SUB SLT ISZERO PUSH3 0xDE JUMPI PUSH1 0x0 DUP1 REVERT JUMPDEST DUP3 MLOAD PUSH3 0xEB DUP2 PUSH3 0xB1 JUMP JUMPDEST PUSH1 0x20 DUP5 ADD MLOAD SWAP1 SWAP3 POP PUSH3 0xFE DUP2 PUSH3 0xB1 JUMP JUMPDEST DUP1 SWAP2 POP POP SWAP3 POP SWAP3 SWAP1 POP JUMP JUMPDEST PUSH1 0x80 MLOAD PUSH1 0xA0 MLOAD PUSH1 0xC0 MLOAD PUSH1 0xE0 MLOAD PUSH2 0x100 MLOAD PUSH2 0x120 MLOAD PUSH2 0x140 MLOAD PUSH2 0x160 MLOAD PUSH2 0x180 MLOAD PUSH2 0x1A0 MLOAD PUSH2 0x1C0 MLOAD PUSH2 0x359A PUSH3 0x24D PUSH1 0x0 CODECOPY PUSH1 0x0 DUP2 DUP2 PUSH2 0x500 ADD MSTORE DUP2 DUP2 PUSH2 0xF72 ADD MSTORE DUP2 DUP2 PUSH2 0x10FE ADD MSTORE PUSH2 0x17DB ADD MSTORE PUSH1 0x0 DUP2 DUP2 PUSH2 0x77C ADD MSTORE DUP2 DUP2 PUSH2 0x1164 ADD MSTORE DUP2 DUP2 PUSH2 0x16E0 ADD MSTORE DUP2 DUP2 PUSH2 0x2074 ADD MSTORE DUP2 DUP2 PUSH2 0x2115 ADD MSTORE PUSH2 0x24D6 ADD MSTORE PUSH1 0x0 DUP2 DUP2 PUSH2 0x534 ADD MSTORE PUSH2 0x1047 ADD MSTORE PUSH1 0x0 DUP2 DUP2 PUSH2 0x423 ADD MSTORE DUP2 DUP2 PUSH2 0x1194 ADD MSTORE PUSH2 0x170C ADD MSTORE PUSH1 0x0 DUP2 DUP2 PUSH2 0x46C ADD MSTORE DUP2 DUP2 PUSH2 0xA23 ADD MSTORE DUP2 DUP2 PUSH2 0x1440 ADD MSTORE DUP2 DUP2 PUSH2 0x1543 ADD MSTORE DUP2 DUP2 PUSH2 0x1A4B ADD MSTORE PUSH2 0x2378 ADD MSTORE PUSH1 0x0 DUP2 DUP2 PUSH2 0x388 ADD MSTORE DUP2 DUP2 PUSH2 0xC30 ADD MSTORE PUSH2 0xDEA ADD MSTORE PUSH1 0x0 DUP2 DUP2 PUSH2 0x252 ADD MSTORE DUP2 DUP2 PUSH2 0xC01 ADD MSTORE PUSH2 0xDC0 ADD MSTORE PUSH1 0x0 DUP2 DUP2 PUSH2 0x92C ADD MSTORE DUP2 DUP2 PUSH2 0x1DF5 ADD MSTORE PUSH2 0x2035 ADD MSTORE PUSH1 0x0 DUP2 DUP2 PUSH2 0x568 ADD MSTORE DUP2 DUP2 PUSH2 0x1C48 ADD MSTORE DUP2 DUP2 PUSH2 0x1CA2 ADD MSTORE PUSH2 0x1EC6 ADD MSTORE PUSH1 0x0 DUP2 DUP2 PUSH2 0x3EF ADD MSTORE PUSH2 0x9C3 ADD MSTORE PUSH1 0x0 DUP2 DUP2 PUSH2 0x980 ADD MSTORE PUSH2 0x28A8 ADD MSTORE PUSH2 0x359A PUSH1 0x0 RETURN INVALID PUSH1 0x80 PUSH1 0x40 MSTORE PUSH1 0x4 CALLDATASIZE LT PUSH2 0x234 JUMPI PUSH1 0x0 CALLDATALOAD PUSH1 0xE0 SHR DUP1 PUSH4 0xA9C659E4 GT PUSH2 0x12E JUMPI DUP1 PUSH4 0xD4B12530 GT PUSH2 0xAB JUMPI DUP1 PUSH4 0xF1FDDBAE GT PUSH2 0x6F JUMPI DUP1 PUSH4 0xF1FDDBAE EQ PUSH2 0x8CE JUMPI DUP1 PUSH4 0xF23A6E61 EQ PUSH2 0x8EE JUMPI DUP1 PUSH4 0xF4180E09 EQ PUSH2 0x91A JUMPI DUP1 PUSH4 0xF78BA710 EQ PUSH2 0x94E JUMPI DUP1 PUSH4 0xFE4B899E EQ PUSH2 0x96E JUMPI PUSH1 0x0 DUP1 REVERT JUMPDEST DUP1 PUSH4 0xD4B12530 EQ PUSH2 0x72A JUMPI DUP1 PUSH4 0xD5AD4776 EQ PUSH2 0x74A JUMPI DUP1 PUSH4 0xD5FEF231 EQ PUSH2 0x76A JUMPI DUP1 PUSH4 0xE148C81D EQ PUSH2 0x79E JUMPI DUP1 PUSH4 0xEDCFAFE6 EQ PUSH2 0x7BE JUMPI PUSH1 0x0 DUP1 REVERT JUMPDEST DUP1 PUSH4 0xBEF2E1EE GT PUSH2 0xF2 JUMPI DUP1 PUSH4 0xBEF2E1EE EQ PUSH2 0x65C JUMPI DUP1 PUSH4 0xBF9C5001 EQ PUSH2 0x672 JUMPI DUP1 PUSH4 0xC71ACBE6 EQ PUSH2 0x69F JUMPI DUP1 PUSH4 0xD1003811 EQ PUSH2 0x6CC JUMPI DUP1 PUSH4 0xD46A5D7E EQ PUSH2 0x717 JUMPI PUSH1 0x0 DUP1 REVERT JUMPDEST DUP1 PUSH4 0xA9C659E4 EQ PUSH2 0x58A JUMPI DUP1 PUSH4 0xAE169A50 EQ PUSH2 0x5B7 JUMPI DUP1 PUSH4 0xB24C16F2 EQ PUSH2 0x5D7 JUMPI DUP1 PUSH4 0xBB33B998 EQ PUSH2 0x5F7 JUMPI DUP1 PUSH4 0xBC197C81 EQ PUSH2 0x617 JUMPI PUSH1 0x0 DUP1 REVERT JUMPDEST DUP1 PUSH4 0x4FD13391 GT PUSH2 0x1BC JUMPI DUP1 PUSH4 0x745101DC GT PUSH2 0x180 JUMPI DUP1 PUSH4 0x745101DC EQ PUSH2 0x4AE JUMPI DUP1 PUSH4 0x88C7C707 EQ PUSH2 0x4CE JUMPI DUP1 PUSH4 0x897FDFF0 EQ PUSH2 0x4EE JUMPI DUP1 PUSH4 0x9EA8931A EQ PUSH2 0x522 JUMPI DUP1 PUSH4 0x9EFBF501 EQ PUSH2 0x556 JUMPI PUSH1 0x0 DUP1 REVERT JUMPDEST DUP1 PUSH4 0x4FD13391 EQ PUSH2 0x3DD JUMPI DUP1 PUSH4 0x577ABE8D EQ PUSH2 0x411 JUMPI DUP1 PUSH4 0x5B3E8437 EQ PUSH2 0x445 JUMPI DUP1 PUSH4 0x65F4ADED EQ PUSH2 0x45A JUMPI DUP1 PUSH4 0x6D7C55F5 EQ PUSH2 0x48E JUMPI PUSH1 0x0 DUP1 REVERT JUMPDEST DUP1 PUSH4 0xE92E864 GT PUSH2 0x203 JUMPI DUP1 PUSH4 0xE92E864 EQ PUSH2 0x336 JUMPI DUP1 PUSH4 0x1C08BC05 EQ PUSH2 0x356 JUMPI DUP1 PUSH4 0x2A0CA5DA EQ PUSH2 0x376 JUMPI DUP1 PUSH4 0x4165C2FA EQ PUSH2 0x3AA JUMPI DUP1 PUSH4 0x4992391B EQ PUSH2 0x3BD JUMPI PUSH1 0x0 DUP1 REVERT JUMPDEST DUP1 PUSH4 0x140E93E EQ PUSH2 0x240 JUMPI DUP1 PUSH4 0x1FFC9A7 EQ PUSH2 0x287 JUMPI DUP1 PUSH4 0xB60B31F EQ PUSH2 0x2C8 JUMPI DUP1 PUSH4 0xDE26EF5 EQ PUSH2 0x2E8 JUMPI PUSH1 0x0 DUP1 REVERT JUMPDEST CALLDATASIZE PUSH2 0x23B JUMPI STOP JUMPDEST PUSH1 0x0 DUP1 REVERT JUMPDEST CALLVALUE DUP1 ISZERO PUSH2 0x24C JUMPI PUSH1 0x0 DUP1 REVERT JUMPDEST POP PUSH2 0x274 PUSH32 0x0 DUP2 JUMP JUMPDEST PUSH1 0x40 MLOAD SWAP1 DUP2 MSTORE PUSH1 0x20 ADD JUMPDEST PUSH1 0x40 MLOAD DUP1 SWAP2 SUB SWAP1 RETURN JUMPDEST CALLVALUE DUP1 ISZERO PUSH2 0x293 JUMPI PUSH1 0x0 DUP1 REVERT JUMPDEST POP PUSH2 0x2B8 PUSH2 0x2A2 CALLDATASIZE PUSH1 0x4 PUSH2 0x30B4 JUMP JUMPDEST PUSH1 0x1 PUSH1 0x1 PUSH1 0xE0 SHL SUB NOT AND PUSH4 0x1FFC9A7 PUSH1 0xE0 SHL EQ SWAP1 JUMP JUMPDEST PUSH1 0x40 MLOAD SWAP1 ISZERO ISZERO DUP2 MSTORE PUSH1 0x20 ADD PUSH2 0x27E JUMP JUMPDEST CALLVALUE DUP1 ISZERO PUSH2 0x2D4 JUMPI PUSH1 0x0 DUP1 REVERT JUMPDEST POP PUSH2 0x274 PUSH2 0x2E3 CALLDATASIZE PUSH1 0x4 PUSH2 0x30F5 JUMP JUMPDEST PUSH2 0x9A2 JUMP JUMPDEST CALLVALUE DUP1 ISZERO PUSH2 0x2F4 JUMPI PUSH1 0x0 DUP1 REVERT JUMPDEST POP PUSH2 0x31E PUSH2 0x303 CALLDATASIZE PUSH1 0x4 PUSH2 0x3110 JUMP JUMPDEST PUSH1 0x1 PUSH1 0x20 MSTORE PUSH1 0x0 SWAP1 DUP2 MSTORE PUSH1 0x40 SWAP1 KECCAK256 SLOAD PUSH1 0x1 PUSH1 0x1 PUSH1 0xA0 SHL SUB AND DUP2 JUMP JUMPDEST PUSH1 0x40 MLOAD PUSH1 0x1 PUSH1 0x1 PUSH1 0xA0 SHL SUB SWAP1 SWAP2 AND DUP2 MSTORE PUSH1 0x20 ADD PUSH2 0x27E JUMP JUMPDEST CALLVALUE DUP1 ISZERO PUSH2 0x342 JUMPI PUSH1 0x0 DUP1 REVERT JUMPDEST POP PUSH2 0x274 PUSH2 0x351 CALLDATASIZE PUSH1 0x4 PUSH2 0x30F5 JUMP JUMPDEST PUSH2 0x9EF JUMP JUMPDEST CALLVALUE DUP1 ISZERO PUSH2 0x362 JUMPI PUSH1 0x0 DUP1 REVERT JUMPDEST POP PUSH2 0x2B8 PUSH2 0x371 CALLDATASIZE PUSH1 0x4 PUSH2 0x3110 JUMP JUMPDEST PUSH2 0xA08 JUMP JUMPDEST CALLVALUE DUP1 ISZERO PUSH2 0x382 JUMPI PUSH1 0x0 DUP1 REVERT JUMPDEST POP PUSH2 0x274 PUSH32 0x0 DUP2 JUMP JUMPDEST PUSH2 0x274 PUSH2 0x3B8 CALLDATASIZE PUSH1 0x4 PUSH2 0x3110 JUMP JUMPDEST PUSH2 0xA9B JUMP JUMPDEST CALLVALUE DUP1 ISZERO PUSH2 0x3C9 JUMPI PUSH1 0x0 DUP1 REVERT JUMPDEST POP PUSH2 0x2B8 PUSH2 0x3D8 CALLDATASIZE PUSH1 0x4 PUSH2 0x3129 JUMP JUMPDEST PUSH2 0xE5C JUMP JUMPDEST CALLVALUE DUP1 ISZERO PUSH2 0x3E9 JUMPI PUSH1 0x0 DUP1 REVERT JUMPDEST POP PUSH2 0x274 PUSH32 0x0 DUP2 JUMP JUMPDEST CALLVALUE DUP1 ISZERO PUSH2 0x41D JUMPI PUSH1 0x0 DUP1 REVERT JUMPDEST POP PUSH2 0x274 PUSH32 0x0 DUP2 JUMP JUMPDEST PUSH2 0x458 PUSH2 0x453 CALLDATASIZE PUSH1 0x4 PUSH2 0x3153 JUMP JUMPDEST PUSH2 0xF57 JUMP JUMPDEST STOP JUMPDEST CALLVALUE DUP1 ISZERO PUSH2 0x466 JUMPI PUSH1 0x0 DUP1 REVERT JUMPDEST POP PUSH2 0x274 PUSH32 0x0 DUP2 JUMP JUMPDEST CALLVALUE DUP1 ISZERO PUSH2 0x49A JUMPI PUSH1 0x0 DUP1 REVERT JUMPDEST POP PUSH2 0x458 PUSH2 0x4A9 CALLDATASIZE PUSH1 0x4 PUSH2 0x3153 JUMP JUMPDEST PUSH2 0x12BC JUMP JUMPDEST CALLVALUE DUP1 ISZERO PUSH2 0x4BA JUMPI PUSH1 0x0 DUP1 REVERT JUMPDEST POP PUSH2 0x2B8 PUSH2 0x4C9 CALLDATASIZE PUSH1 0x4 PUSH2 0x3110 JUMP JUMPDEST PUSH2 0x1409 JUMP JUMPDEST CALLVALUE DUP1 ISZERO PUSH2 0x4DA JUMPI PUSH1 0x0 DUP1 REVERT JUMPDEST POP PUSH2 0x458 PUSH2 0x4E9 CALLDATASIZE PUSH1 0x4 PUSH2 0x3153 JUMP JUMPDEST PUSH2 0x1492 JUMP JUMPDEST CALLVALUE DUP1 ISZERO PUSH2 0x4FA JUMPI PUSH1 0x0 DUP1 REVERT JUMPDEST POP PUSH2 0x31E PUSH32 0x0 DUP2 JUMP JUMPDEST CALLVALUE DUP1 ISZERO PUSH2 0x52E JUMPI PUSH1 0x0 DUP1 REVERT JUMPDEST POP PUSH2 0x274 PUSH32 0x0 DUP2 JUMP JUMPDEST CALLVALUE DUP1 ISZERO PUSH2 0x562 JUMPI PUSH1 0x0 DUP1 REVERT JUMPDEST POP PUSH2 0x274 PUSH32 0x0 DUP2 JUMP JUMPDEST CALLVALUE DUP1 ISZERO PUSH2 0x596 JUMPI PUSH1 0x0 DUP1 REVERT JUMPDEST POP PUSH2 0x274 PUSH2 0x5A5 CALLDATASIZE PUSH1 0x4 PUSH2 0x3110 JUMP JUMPDEST PUSH1 0xE PUSH1 0x20 MSTORE PUSH1 0x0 SWAP1 DUP2 MSTORE PUSH1 0x40 SWAP1 KECCAK256 SLOAD DUP2 JUMP JUMPDEST CALLVALUE DUP1 ISZERO PUSH2 0x5C3 JUMPI PUSH1 0x0 DUP1 REVERT JUMPDEST POP PUSH2 0x458 PUSH2 0x5D2 CALLDATASIZE PUSH1 0x4 PUSH2 0x3110 JUMP JUMPDEST PUSH2 0x1886 JUMP JUMPDEST CALLVALUE DUP1 ISZERO PUSH2 0x5E3 JUMPI PUSH1 0x0 DUP1 REVERT JUMPDEST POP PUSH2 0x2B8 PUSH2 0x5F2 CALLDATASIZE PUSH1 0x4 PUSH2 0x3110 JUMP JUMPDEST PUSH2 0x2231 JUMP JUMPDEST CALLVALUE DUP1 ISZERO PUSH2 0x603 JUMPI PUSH1 0x0 DUP1 REVERT JUMPDEST POP PUSH2 0x2B8 PUSH2 0x612 CALLDATASIZE PUSH1 0x4 PUSH2 0x30F5 JUMP JUMPDEST PUSH2 0x2268 JUMP JUMPDEST CALLVALUE DUP1 ISZERO PUSH2 0x623 JUMPI PUSH1 0x0 DUP1 REVERT JUMPDEST POP PUSH2 0x643 PUSH2 0x632 CALLDATASIZE PUSH1 0x4 PUSH2 0x32AC JUMP JUMPDEST PUSH4 0xBC197C81 PUSH1 0xE0 SHL SWAP6 SWAP5 POP POP POP POP POP JUMP JUMPDEST PUSH1 0x40 MLOAD PUSH1 0x1 PUSH1 0x1 PUSH1 0xE0 SHL SUB NOT SWAP1 SWAP2 AND DUP2 MSTORE PUSH1 0x20 ADD PUSH2 0x27E JUMP JUMPDEST CALLVALUE DUP1 ISZERO PUSH2 0x668 JUMPI PUSH1 0x0 DUP1 REVERT JUMPDEST POP PUSH2 0x274 PUSH1 0x4 SLOAD DUP2 JUMP JUMPDEST CALLVALUE DUP1 ISZERO PUSH2 0x67E JUMPI PUSH1 0x0 DUP1 REVERT JUMPDEST POP PUSH2 0x274 PUSH2 0x68D CALLDATASIZE PUSH1 0x4 PUSH2 0x30F5 JUMP JUMPDEST PUSH1 0x0 PUSH1 0x20 DUP2 SWAP1 MSTORE SWAP1 DUP2 MSTORE PUSH1 0x40 SWAP1 KECCAK256 SLOAD DUP2 JUMP JUMPDEST CALLVALUE DUP1 ISZERO PUSH2 0x6AB JUMPI PUSH1 0x0 DUP1 REVERT JUMPDEST POP PUSH2 0x6BF PUSH2 0x6BA CALLDATASIZE PUSH1 0x4 PUSH2 0x30F5 JUMP JUMPDEST PUSH2 0x2296 JUMP JUMPDEST PUSH1 0x40 MLOAD PUSH2 0x27E SWAP2 SWAP1 PUSH2 0x3356 JUMP JUMPDEST CALLVALUE DUP1 ISZERO PUSH2 0x6D8 JUMPI PUSH1 0x0 DUP1 REVERT JUMPDEST POP PUSH2 0x705 PUSH2 0x6E7 CALLDATASIZE PUSH1 0x4 PUSH2 0x30F5 JUMP JUMPDEST PUSH1 0x1 PUSH1 0x1 PUSH1 0xA0 SHL SUB AND PUSH1 0x0 SWAP1 DUP2 MSTORE PUSH1 0x3 PUSH1 0x20 MSTORE PUSH1 0x40 SWAP1 KECCAK256 SLOAD PUSH1 0xFF AND SWAP1 JUMP JUMPDEST PUSH1 0x40 MLOAD PUSH1 0xFF SWAP1 SWAP2 AND DUP2 MSTORE PUSH1 0x20 ADD PUSH2 0x27E JUMP JUMPDEST PUSH2 0x458 PUSH2 0x725 CALLDATASIZE PUSH1 0x4 PUSH2 0x33A8 JUMP JUMPDEST PUSH2 0x22BA JUMP JUMPDEST CALLVALUE DUP1 ISZERO PUSH2 0x736 JUMPI PUSH1 0x0 DUP1 REVERT JUMPDEST POP PUSH2 0x2B8 PUSH2 0x745 CALLDATASIZE PUSH1 0x4 PUSH2 0x30F5 JUMP JUMPDEST PUSH2 0x2802 JUMP JUMPDEST CALLVALUE DUP1 ISZERO PUSH2 0x756 JUMPI PUSH1 0x0 DUP1 REVERT JUMPDEST POP PUSH2 0x6BF PUSH2 0x765 CALLDATASIZE PUSH1 0x4 PUSH2 0x30F5 JUMP JUMPDEST PUSH2 0x2828 JUMP JUMPDEST CALLVALUE DUP1 ISZERO PUSH2 0x776 JUMPI PUSH1 0x0 DUP1 REVERT JUMPDEST POP PUSH2 0x31E PUSH32 0x0 DUP2 JUMP JUMPDEST CALLVALUE DUP1 ISZERO PUSH2 0x7AA JUMPI PUSH1 0x0 DUP1 REVERT JUMPDEST POP PUSH2 0x705 PUSH2 0x7B9 CALLDATASIZE PUSH1 0x4 PUSH2 0x30F5 JUMP JUMPDEST PUSH2 0x284C JUMP JUMPDEST CALLVALUE DUP1 ISZERO PUSH2 0x7CA JUMPI PUSH1 0x0 DUP1 REVERT JUMPDEST POP PUSH2 0x858 PUSH2 0x7D9 CALLDATASIZE PUSH1 0x4 PUSH2 0x3110 JUMP JUMPDEST PUSH1 0xD PUSH1 0x20 MSTORE DUP1 PUSH1 0x0 MSTORE PUSH1 0x40 PUSH1 0x0 KECCAK256 PUSH1 0x0 SWAP2 POP SWAP1 POP DUP1 PUSH1 0x0 ADD SLOAD SWAP1 DUP1 PUSH1 0x1 ADD SLOAD SWAP1 DUP1 PUSH1 0x2 ADD PUSH1 0x0 SWAP1 SLOAD SWAP1 PUSH2 0x100 EXP SWAP1 DIV PUSH1 0x1 PUSH1 0x1 PUSH1 0xA0 SHL SUB AND SWAP1 DUP1 PUSH1 0x3 ADD SLOAD SWAP1 DUP1 PUSH1 0x4 ADD SLOAD SWAP1 DUP1 PUSH1 0x5 ADD SLOAD SWAP1 DUP1 PUSH1 0x6 ADD SLOAD SWAP1 DUP1 PUSH1 0x7 ADD SLOAD SWAP1 DUP1 PUSH1 0x8 ADD SLOAD SWAP1 DUP1 PUSH1 0x9 ADD SLOAD SWAP1 DUP1 PUSH1 0xA ADD SLOAD SWAP1 DUP1 PUSH1 0xB ADD SLOAD SWAP1 DUP1 PUSH1 0xC ADD SLOAD SWAP1 DUP1 PUSH1 0xD ADD SLOAD SWAP1 POP DUP15 JUMP JUMPDEST PUSH1 0x40 DUP1 MLOAD SWAP15 DUP16 MSTORE PUSH1 0x20 DUP16 ADD SWAP14 SWAP1 SWAP14 MSTORE PUSH1 0x1 PUSH1 0x1 PUSH1 0xA0 SHL SUB SWAP1 SWAP12 AND SWAP12 DUP14 ADD SWAP12 SWAP1 SWAP12 MSTORE PUSH1 0x60 DUP13 ADD SWAP9 SWAP1 SWAP9 MSTORE PUSH1 0x80 DUP12 ADD SWAP7 SWAP1 SWAP7 MSTORE PUSH1 0xA0 DUP11 ADD SWAP5 SWAP1 SWAP5 MSTORE PUSH1 0xC0 DUP10 ADD SWAP3 SWAP1 SWAP3 MSTORE PUSH1 0xE0 DUP9 ADD MSTORE PUSH2 0x100 DUP8 ADD MSTORE PUSH2 0x120 DUP7 ADD MSTORE PUSH2 0x140 DUP6 ADD MSTORE PUSH2 0x160 DUP5 ADD MSTORE PUSH2 0x180 DUP4 ADD SWAP2 SWAP1 SWAP2 MSTORE PUSH2 0x1A0 DUP3 ADD MSTORE PUSH2 0x1C0 ADD PUSH2 0x27E JUMP JUMPDEST CALLVALUE DUP1 ISZERO PUSH2 0x8DA JUMPI PUSH1 0x0 DUP1 REVERT JUMPDEST POP PUSH2 0x274 PUSH2 0x8E9 CALLDATASIZE PUSH1 0x4 PUSH2 0x30F5 JUMP JUMPDEST PUSH2 0x2895 JUMP JUMPDEST CALLVALUE DUP1 ISZERO PUSH2 0x8FA JUMPI PUSH1 0x0 DUP1 REVERT JUMPDEST POP PUSH2 0x643 PUSH2 0x909 CALLDATASIZE PUSH1 0x4 PUSH2 0x33E0 JUMP JUMPDEST PUSH4 0xF23A6E61 PUSH1 0xE0 SHL SWAP6 SWAP5 POP POP POP POP POP JUMP JUMPDEST CALLVALUE DUP1 ISZERO PUSH2 0x926 JUMPI PUSH1 0x0 DUP1 REVERT JUMPDEST POP PUSH2 0x274 PUSH32 0x0 DUP2 JUMP JUMPDEST CALLVALUE DUP1 ISZERO PUSH2 0x95A JUMPI PUSH1 0x0 DUP1 REVERT JUMPDEST POP PUSH2 0x2B8 PUSH2 0x969 CALLDATASIZE PUSH1 0x4 PUSH2 0x3129 JUMP JUMPDEST PUSH2 0x28CD JUMP JUMPDEST CALLVALUE DUP1 ISZERO PUSH2 0x97A JUMPI PUSH1 0x0 DUP1 REVERT JUMPDEST POP PUSH2 0x274 PUSH32 0x0 DUP2 JUMP JUMPDEST PUSH1 0x1 PUSH1 0x1 PUSH1 0xA0 SHL SUB DUP2 AND PUSH1 0x0 SWAP1 DUP2 MSTORE PUSH1 0x3 PUSH1 0x20 MSTORE PUSH1 0x40 DUP2 KECCAK256 SLOAD PUSH1 0xFF AND PUSH2 0x9E8 PUSH32 0x0 DUP3 PUSH2 0x2927 JUMP JUMPDEST SWAP4 SWAP3 POP POP POP JUMP JUMPDEST PUSH1 0x0 DUP1 PUSH2 0x9FB DUP4 PUSH2 0x284C JUMP JUMPDEST SWAP1 POP PUSH2 0x9E8 DUP2 PUSH1 0x0 PUSH2 0x2995 JUMP JUMPDEST PUSH1 0x0 DUP2 DUP2 MSTORE PUSH1 0xD PUSH1 0x20 MSTORE PUSH1 0x40 DUP2 KECCAK256 PUSH1 0x4 DUP2 ADD SLOAD PUSH1 0x3 SWAP1 SWAP2 ADD SLOAD PUSH32 0x0 SWAP2 PUSH2 0xA4C SWAP2 PUSH2 0x345B JUMP JUMPDEST LT ISZERO DUP1 ISZERO PUSH2 0xA6B JUMPI POP PUSH1 0x0 DUP3 DUP2 MSTORE PUSH1 0xD PUSH1 0x20 MSTORE PUSH1 0x40 SWAP1 KECCAK256 PUSH1 0x8 ADD SLOAD NUMBER LT ISZERO JUMPDEST DUP1 PUSH2 0xA86 JUMPI POP PUSH1 0x0 DUP3 DUP2 MSTORE PUSH1 0xD PUSH1 0x20 MSTORE PUSH1 0x40 SWAP1 KECCAK256 PUSH1 0x9 ADD SLOAD NUMBER GT JUMPDEST ISZERO PUSH2 0xA93 JUMPI POP PUSH1 0x1 SWAP2 SWAP1 POP JUMP JUMPDEST POP PUSH1 0x0 SWAP2 SWAP1 POP JUMP JUMPDEST CALLER PUSH1 0x0 SWAP1 DUP2 MSTORE PUSH1 0x20 DUP2 SWAP1 MSTORE PUSH1 0x40 DUP2 KECCAK256 SLOAD DUP2 SUB PUSH2 0xAF6 JUMPI PUSH1 0x40 MLOAD PUSH3 0x461BCD PUSH1 0xE5 SHL DUP2 MSTORE PUSH1 0x20 PUSH1 0x4 DUP3 ADD MSTORE PUSH1 0x15 PUSH1 0x24 DUP3 ADD MSTORE PUSH21 0x2CB7BA9030B932903737BA1030B71030BABA3437B9 PUSH1 0x59 SHL PUSH1 0x44 DUP3 ADD MSTORE PUSH1 0x64 ADD JUMPDEST PUSH1 0x40 MLOAD DUP1 SWAP2 SUB SWAP1 REVERT JUMPDEST PUSH2 0xAFF CALLER PUSH2 0x9A2 JUMP JUMPDEST CALLVALUE LT ISZERO PUSH2 0xB41 JUMPI PUSH1 0x40 MLOAD PUSH3 0x461BCD PUSH1 0xE5 SHL DUP2 MSTORE PUSH1 0x20 PUSH1 0x4 DUP3 ADD MSTORE PUSH1 0x10 PUSH1 0x24 DUP3 ADD MSTORE PUSH16 0x2737BA1032B737BAB3B41032BA3432B9 PUSH1 0x81 SHL PUSH1 0x44 DUP3 ADD MSTORE PUSH1 0x64 ADD PUSH2 0xAED JUMP JUMPDEST PUSH1 0x0 DUP3 DUP2 MSTORE PUSH1 0xE PUSH1 0x20 MSTORE PUSH1 0x40 SWAP1 KECCAK256 SLOAD ISZERO PUSH2 0xB9D JUMPI PUSH1 0x40 MLOAD PUSH3 0x461BCD PUSH1 0xE5 SHL DUP2 MSTORE PUSH1 0x20 PUSH1 0x4 DUP3 ADD MSTORE PUSH1 0x19 PUSH1 0x24 DUP3 ADD MSTORE PUSH32 0x41727469636C6520616C7265616479207075626C697368656400000000000000 PUSH1 0x44 DUP3 ADD MSTORE PUSH1 0x64 ADD PUSH2 0xAED JUMP JUMPDEST PUSH1 0x1 PUSH1 0x4 PUSH1 0x0 DUP3 DUP3 SLOAD PUSH2 0xBB0 SWAP2 SWAP1 PUSH2 0x345B JUMP JUMPDEST SWAP1 SWAP2 SSTORE POP POP PUSH1 0x4 SLOAD PUSH1 0x40 DUP1 MLOAD PUSH2 0x1C0 DUP2 ADD DUP3 MSTORE DUP3 DUP2 MSTORE PUSH1 0x20 DUP2 ADD DUP6 SWAP1 MSTORE CALLER SWAP2 DUP2 ADD SWAP2 SWAP1 SWAP2 MSTORE PUSH1 0x0 PUSH1 0x60 DUP3 ADD DUP2 SWAP1 MSTORE PUSH1 0x80 DUP3 ADD DUP2 SWAP1 MSTORE CALLVALUE PUSH1 0xA0 DUP4 ADD MSTORE PUSH1 0xC0 DUP3 ADD DUP2 SWAP1 MSTORE PUSH1 0xE0 DUP3 ADD MSTORE PUSH2 0x100 DUP2 ADD PUSH2 0xC26 PUSH32 0x0 NUMBER PUSH2 0x345B JUMP JUMPDEST DUP2 MSTORE PUSH1 0x20 ADD PUSH2 0xC55 PUSH32 0x0 NUMBER PUSH2 0x345B JUMP JUMPDEST DUP2 MSTORE PUSH1 0x0 PUSH1 0x20 DUP1 DUP4 ADD DUP3 SWAP1 MSTORE PUSH1 0x40 DUP1 DUP5 ADD DUP4 SWAP1 MSTORE PUSH1 0x60 DUP1 DUP6 ADD DUP5 SWAP1 MSTORE PUSH1 0x80 SWAP5 DUP6 ADD DUP5 SWAP1 MSTORE DUP7 DUP5 MSTORE PUSH1 0xD DUP1 DUP5 MSTORE DUP3 DUP6 KECCAK256 DUP8 MLOAD DUP2 SSTORE DUP8 DUP6 ADD MLOAD PUSH1 0x1 DUP3 ADD SSTORE DUP8 DUP5 ADD MLOAD PUSH1 0x2 DUP3 ADD DUP1 SLOAD PUSH1 0x1 PUSH1 0x1 PUSH1 0xA0 SHL SUB NOT AND PUSH1 0x1 PUSH1 0x1 PUSH1 0xA0 SHL SUB SWAP1 SWAP3 AND SWAP2 SWAP1 SWAP2 OR SWAP1 SSTORE SWAP2 DUP8 ADD MLOAD PUSH1 0x3 DUP4 ADD SSTORE SWAP5 DUP7 ADD MLOAD PUSH1 0x4 DUP3 ADD SSTORE PUSH1 0xA0 DUP7 ADD MLOAD PUSH1 0x5 DUP3 ADD SSTORE PUSH1 0xC0 DUP7 ADD MLOAD PUSH1 0x6 DUP3 ADD SSTORE PUSH1 0xE0 DUP7 ADD MLOAD PUSH1 0x7 DUP1 DUP4 ADD SWAP2 SWAP1 SWAP2 SSTORE PUSH2 0x100 DUP8 ADD MLOAD PUSH1 0x8 DUP4 ADD SSTORE PUSH2 0x120 DUP8 ADD MLOAD PUSH1 0x9 DUP4 ADD SSTORE PUSH2 0x140 DUP8 ADD MLOAD PUSH1 0xA DUP4 ADD SSTORE PUSH2 0x160 DUP8 ADD MLOAD PUSH1 0xB DUP4 ADD SSTORE PUSH2 0x180 DUP8 ADD MLOAD PUSH1 0xC DUP4 ADD SSTORE PUSH2 0x1A0 SWAP1 SWAP7 ADD MLOAD SWAP5 ADD SWAP4 SWAP1 SWAP4 SSTORE SWAP3 SWAP1 SWAP3 MSTORE SWAP1 KECCAK256 PUSH2 0xD3E SWAP1 CALLER PUSH2 0x2A0D JUMP JUMPDEST POP PUSH1 0x0 DUP2 DUP2 MSTORE PUSH1 0x8 PUSH1 0x20 MSTORE PUSH1 0x40 SWAP1 KECCAK256 PUSH2 0xD57 SWAP1 CALLER PUSH2 0x2A0D JUMP JUMPDEST POP PUSH1 0x0 DUP4 DUP2 MSTORE PUSH1 0xE PUSH1 0x20 SWAP1 DUP2 MSTORE PUSH1 0x40 DUP1 DUP4 KECCAK256 DUP5 SWAP1 SSTORE CALLER DUP4 MSTORE PUSH1 0x6 SWAP1 SWAP2 MSTORE SWAP1 KECCAK256 PUSH2 0xD80 SWAP1 DUP3 PUSH2 0x2A22 JUMP JUMPDEST POP CALLER PUSH1 0x0 DUP2 DUP2 MSTORE PUSH1 0x3 PUSH1 0x20 MSTORE PUSH1 0x40 SWAP1 KECCAK256 SLOAD PUSH32 0xF83F703B5EE2E539AAB813380E2850C7B28C6B667E9D0CFAE5CFF7667D79B0AA SWAP2 SWAP1 DUP6 SWAP1 PUSH1 0xFF AND DUP5 CALLVALUE PUSH2 0xDE5 PUSH32 0x0 NUMBER PUSH2 0x345B JUMP JUMPDEST PUSH2 0xE0F PUSH32 0x0 NUMBER PUSH2 0x345B JUMP JUMPDEST PUSH1 0x40 DUP1 MLOAD PUSH1 0x1 PUSH1 0x1 PUSH1 0xA0 SHL SUB SWAP9 SWAP1 SWAP9 AND DUP9 MSTORE PUSH1 0x20 DUP9 ADD SWAP7 SWAP1 SWAP7 MSTORE PUSH1 0xFF SWAP5 SWAP1 SWAP5 AND DUP7 DUP7 ADD MSTORE PUSH1 0x60 DUP7 ADD SWAP3 SWAP1 SWAP3 MSTORE PUSH1 0x80 DUP6 ADD MSTORE PUSH1 0xA0 DUP5 ADD MSTORE PUSH1 0xC0 DUP4 ADD MSTORE MLOAD SWAP1 DUP2 SWAP1 SUB PUSH1 0xE0 ADD SWAP1 LOG1 SWAP1 POP JUMPDEST SWAP2 SWAP1 POP JUMP JUMPDEST PUSH1 0x0 DUP2 DUP2 MSTORE PUSH1 0x7 PUSH1 0x20 MSTORE PUSH1 0x40 DUP2 KECCAK256 PUSH2 0xE74 SWAP1 DUP5 PUSH2 0x2A2E JUMP JUMPDEST DUP1 PUSH2 0xE92 JUMPI POP PUSH1 0x0 DUP3 DUP2 MSTORE PUSH1 0x8 PUSH1 0x20 MSTORE PUSH1 0x40 SWAP1 KECCAK256 PUSH2 0xE92 SWAP1 DUP5 PUSH2 0x2A2E JUMP JUMPDEST ISZERO PUSH2 0xF4D JUMPI PUSH1 0x0 DUP3 DUP2 MSTORE PUSH1 0xD PUSH1 0x20 MSTORE PUSH1 0x40 SWAP1 KECCAK256 PUSH1 0x4 DUP2 ADD SLOAD PUSH1 0x3 SWAP1 SWAP2 ADD SLOAD GT ISZERO PUSH2 0xEE0 JUMPI PUSH1 0x0 DUP3 DUP2 MSTORE PUSH1 0x7 PUSH1 0x20 MSTORE PUSH1 0x40 SWAP1 KECCAK256 PUSH2 0xECE SWAP1 DUP5 PUSH2 0x2A2E JUMP JUMPDEST ISZERO PUSH2 0xEDB JUMPI POP PUSH1 0x1 PUSH2 0xF51 JUMP JUMPDEST PUSH2 0xF4D JUMP JUMPDEST PUSH1 0x0 DUP3 DUP2 MSTORE PUSH1 0xD PUSH1 0x20 MSTORE PUSH1 0x40 SWAP1 KECCAK256 PUSH1 0x4 DUP2 ADD SLOAD PUSH1 0x3 SWAP1 SWAP2 ADD SLOAD LT ISZERO PUSH2 0xF4D JUMPI PUSH1 0x0 DUP3 DUP2 MSTORE PUSH1 0x8 PUSH1 0x20 MSTORE PUSH1 0x40 SWAP1 KECCAK256 PUSH2 0xF17 SWAP1 DUP5 PUSH2 0x2A2E JUMP JUMPDEST DUP1 ISZERO PUSH2 0xF40 JUMPI POP PUSH1 0x0 DUP3 DUP2 MSTORE PUSH1 0xD PUSH1 0x20 MSTORE PUSH1 0x40 SWAP1 KECCAK256 PUSH1 0x2 ADD SLOAD PUSH1 0x1 PUSH1 0x1 PUSH1 0xA0 SHL SUB DUP5 DUP2 AND SWAP2 AND EQ ISZERO JUMPDEST ISZERO PUSH2 0xF4D JUMPI POP PUSH1 0x1 PUSH2 0xF51 JUMP JUMPDEST POP PUSH1 0x0 JUMPDEST SWAP3 SWAP2 POP POP JUMP JUMPDEST PUSH1 0x40 MLOAD PUSH3 0x7EEAC7 PUSH1 0xE1 SHL DUP2 MSTORE ADDRESS PUSH1 0x4 DUP3 ADD MSTORE PUSH1 0x24 DUP2 ADD DUP4 SWAP1 MSTORE PUSH32 0x0 PUSH1 0x1 PUSH1 0x1 PUSH1 0xA0 SHL SUB AND SWAP1 PUSH3 0xFDD58E SWAP1 PUSH1 0x44 ADD PUSH1 0x20 PUSH1 0x40 MLOAD DUP1 DUP4 SUB DUP2 DUP7 GAS STATICCALL ISZERO DUP1 ISZERO PUSH2 0xFC0 JUMPI RETURNDATASIZE PUSH1 0x0 DUP1 RETURNDATACOPY RETURNDATASIZE PUSH1 0x0 REVERT JUMPDEST POP POP POP POP PUSH1 0x40 MLOAD RETURNDATASIZE PUSH1 0x1F NOT PUSH1 0x1F DUP3 ADD AND DUP3 ADD DUP1 PUSH1 0x40 MSTORE POP DUP2 ADD SWAP1 PUSH2 0xFE4 SWAP2 SWAP1 PUSH2 0x346E JUMP JUMPDEST DUP2 GT ISZERO PUSH2 0x1042 JUMPI PUSH1 0x40 MLOAD PUSH3 0x461BCD PUSH1 0xE5 SHL DUP2 MSTORE PUSH1 0x20 PUSH1 0x4 DUP3 ADD MSTORE PUSH1 0x26 PUSH1 0x24 DUP3 ADD MSTORE PUSH32 0x546865726520617265206E6F7420736F206D616E79204E465420746F20626520 PUSH1 0x44 DUP3 ADD MSTORE PUSH6 0x189BDD59DA1D PUSH1 0xD2 SHL PUSH1 0x64 DUP3 ADD MSTORE PUSH1 0x84 ADD PUSH2 0xAED JUMP JUMPDEST PUSH2 0x106C PUSH32 0x0 DUP3 PUSH2 0x3487 JUMP JUMPDEST CALLVALUE LT ISZERO PUSH2 0x10C7 JUMPI PUSH1 0x40 MLOAD PUSH3 0x461BCD PUSH1 0xE5 SHL DUP2 MSTORE PUSH1 0x20 PUSH1 0x4 DUP3 ADD MSTORE PUSH1 0x23 PUSH1 0x24 DUP3 ADD MSTORE PUSH32 0x596F7520646964206E6F742070617920656E6F75676820666F7220746865204E PUSH1 0x44 DUP3 ADD MSTORE PUSH3 0x465473 PUSH1 0xE8 SHL PUSH1 0x64 DUP3 ADD MSTORE PUSH1 0x84 ADD PUSH2 0xAED JUMP JUMPDEST PUSH1 0x40 MLOAD PUSH4 0x79212195 PUSH1 0xE1 SHL DUP2 MSTORE ADDRESS PUSH1 0x4 DUP3 ADD MSTORE CALLER PUSH1 0x24 DUP3 ADD MSTORE PUSH1 0x44 DUP2 ADD DUP4 SWAP1 MSTORE PUSH1 0x64 DUP2 ADD DUP3 SWAP1 MSTORE PUSH1 0xA0 PUSH1 0x84 DUP3 ADD MSTORE PUSH1 0x0 PUSH1 0xA4 DUP3 ADD MSTORE PUSH32 0x0 PUSH1 0x1 PUSH1 0x1 PUSH1 0xA0 SHL SUB AND SWAP1 PUSH4 0xF242432A SWAP1 PUSH1 0xC4 ADD PUSH1 0x0 PUSH1 0x40 MLOAD DUP1 DUP4 SUB DUP2 PUSH1 0x0 DUP8 DUP1 EXTCODESIZE ISZERO DUP1 ISZERO PUSH2 0x114A JUMPI PUSH1 0x0 DUP1 REVERT JUMPDEST POP GAS CALL ISZERO DUP1 ISZERO PUSH2 0x115E JUMPI RETURNDATASIZE PUSH1 0x0 DUP1 RETURNDATACOPY RETURNDATASIZE PUSH1 0x0 REVERT JUMPDEST POP POP POP POP PUSH32 0x0 PUSH1 0x1 PUSH1 0x1 PUSH1 0xA0 SHL SUB AND PUSH4 0xA9059CBB CALLER PUSH32 0x0 DUP5 PUSH2 0x11BE SWAP2 SWAP1 PUSH2 0x3487 JUMP JUMPDEST PUSH1 0x40 MLOAD PUSH1 0x1 PUSH1 0x1 PUSH1 0xE0 SHL SUB NOT PUSH1 0xE0 DUP6 SWAP1 SHL AND DUP2 MSTORE PUSH1 0x1 PUSH1 0x1 PUSH1 0xA0 SHL SUB SWAP1 SWAP3 AND PUSH1 0x4 DUP4 ADD MSTORE PUSH1 0x24 DUP3 ADD MSTORE PUSH1 0x44 ADD PUSH1 0x20 PUSH1 0x40 MLOAD DUP1 DUP4 SUB DUP2 PUSH1 0x0 DUP8 GAS CALL ISZERO DUP1 ISZERO PUSH2 0x1209 JUMPI RETURNDATASIZE PUSH1 0x0 DUP1 RETURNDATACOPY RETURNDATASIZE PUSH1 0x0 REVERT JUMPDEST POP POP POP POP PUSH1 0x40 MLOAD RETURNDATASIZE PUSH1 0x1F NOT PUSH1 0x1F DUP3 ADD AND DUP3 ADD DUP1 PUSH1 0x40 MSTORE POP DUP2 ADD SWAP1 PUSH2 0x122D SWAP2 SWAP1 PUSH2 0x349E JUMP JUMPDEST POP PUSH1 0x0 DUP3 DUP2 MSTORE PUSH1 0xD PUSH1 0x20 MSTORE PUSH1 0x40 SWAP1 KECCAK256 PUSH1 0x2 ADD SLOAD PUSH2 0x1253 SWAP1 PUSH1 0x1 PUSH1 0x1 PUSH1 0xA0 SHL SUB AND CALLVALUE PUSH2 0x2A50 JUMP JUMPDEST PUSH1 0x0 DUP3 DUP2 MSTORE PUSH1 0xD PUSH1 0x20 SWAP1 DUP2 MSTORE PUSH1 0x40 SWAP2 DUP3 SWAP1 KECCAK256 PUSH1 0x2 ADD SLOAD DUP3 MLOAD CALLER DUP2 MSTORE SWAP2 DUP3 ADD DUP6 SWAP1 MSTORE SWAP2 DUP2 ADD DUP4 SWAP1 MSTORE PUSH1 0x1 PUSH1 0x1 PUSH1 0xA0 SHL SUB SWAP1 SWAP2 AND PUSH1 0x60 DUP3 ADD MSTORE PUSH32 0x1CB9F23B41A0EB0A373C6E0AEDC819DCD3533A8D510484E4E17441B5570DAFB2 SWAP1 PUSH1 0x80 ADD JUMPDEST PUSH1 0x40 MLOAD DUP1 SWAP2 SUB SWAP1 LOG1 POP POP JUMP JUMPDEST CALLER PUSH1 0x0 SWAP1 DUP2 MSTORE PUSH1 0x20 DUP2 SWAP1 MSTORE PUSH1 0x40 SWAP1 KECCAK256 SLOAD ISZERO PUSH2 0x1319 JUMPI PUSH1 0x40 MLOAD PUSH3 0x461BCD PUSH1 0xE5 SHL DUP2 MSTORE PUSH1 0x20 PUSH1 0x4 DUP3 ADD MSTORE PUSH1 0x19 PUSH1 0x24 DUP3 ADD MSTORE PUSH32 0x596F752061726520616C726561647920616E20617574686F7200000000000000 PUSH1 0x44 DUP3 ADD MSTORE PUSH1 0x64 ADD PUSH2 0xAED JUMP JUMPDEST PUSH1 0x0 DUP2 DUP2 MSTORE PUSH1 0x1 PUSH1 0x20 MSTORE PUSH1 0x40 SWAP1 KECCAK256 SLOAD PUSH1 0x1 PUSH1 0x1 PUSH1 0xA0 SHL SUB AND ISZERO PUSH2 0x1399 JUMPI PUSH1 0x40 MLOAD PUSH3 0x461BCD PUSH1 0xE5 SHL DUP2 MSTORE PUSH1 0x20 PUSH1 0x4 DUP3 ADD MSTORE PUSH1 0x32 PUSH1 0x24 DUP3 ADD MSTORE PUSH32 0x4E6F737472206163636F756E7420616C7265616479206173736F636961746564 PUSH1 0x44 DUP3 ADD MSTORE PUSH18 0x103A379030B737BA3432B91030BABA3437B9 PUSH1 0x71 SHL PUSH1 0x64 DUP3 ADD MSTORE PUSH1 0x84 ADD PUSH2 0xAED JUMP JUMPDEST PUSH2 0x13A2 CALLER PUSH2 0x2AEC JUMP JUMPDEST CALLER PUSH1 0x0 DUP2 DUP2 MSTORE PUSH1 0x20 DUP2 DUP2 MSTORE PUSH1 0x40 DUP1 DUP4 KECCAK256 DUP6 SWAP1 SSTORE DUP5 DUP4 MSTORE PUSH1 0x1 DUP3 MSTORE SWAP2 DUP3 SWAP1 KECCAK256 DUP1 SLOAD PUSH1 0x1 PUSH1 0x1 PUSH1 0xA0 SHL SUB NOT AND DUP5 OR SWAP1 SSTORE DUP2 MLOAD SWAP3 DUP4 MSTORE DUP3 ADD DUP5 SWAP1 MSTORE DUP2 ADD DUP3 SWAP1 MSTORE PUSH32 0x54C08473D27645DA32D0A97083341A40425D1DEC45408D2E54E24171C87A9486 SWAP1 PUSH1 0x60 ADD PUSH2 0x12B0 JUMP JUMPDEST PUSH1 0x0 DUP2 DUP2 MSTORE PUSH1 0xD PUSH1 0x20 MSTORE PUSH1 0x40 DUP2 KECCAK256 PUSH1 0x9 ADD SLOAD NUMBER GT DUP1 ISZERO SWAP1 PUSH2 0x146B JUMPI POP PUSH1 0x0 DUP3 DUP2 MSTORE PUSH1 0xD PUSH1 0x20 MSTORE PUSH1 0x40 SWAP1 KECCAK256 PUSH1 0x4 DUP2 ADD SLOAD PUSH1 0x3 SWAP1 SWAP2 ADD SLOAD PUSH32 0x0 SWAP2 PUSH2 0x1469 SWAP2 PUSH2 0x345B JUMP JUMPDEST LT JUMPDEST DUP1 PUSH2 0xA86 JUMPI POP PUSH1 0x0 DUP3 DUP2 MSTORE PUSH1 0xD PUSH1 0x20 MSTORE PUSH1 0x40 SWAP1 KECCAK256 PUSH1 0x8 ADD SLOAD NUMBER LT ISZERO PUSH2 0xA93 JUMPI POP PUSH1 0x1 SWAP2 SWAP1 POP JUMP JUMPDEST CALLER PUSH1 0x0 SWAP1 DUP2 MSTORE PUSH1 0x3 PUSH1 0x20 MSTORE PUSH1 0x40 SWAP1 KECCAK256 SLOAD PUSH1 0x5A PUSH1 0xFF SWAP1 SWAP2 AND GT PUSH2 0x1526 JUMPI PUSH1 0x40 MLOAD PUSH3 0x461BCD PUSH1 0xE5 SHL DUP2 MSTORE PUSH1 0x20 PUSH1 0x4 DUP3 ADD MSTORE PUSH1 0x41 PUSH1 0x24 DUP3 ADD MSTORE PUSH32 0x596F757220617574686F722072657075746174696F6E20697320746F6F206C6F PUSH1 0x44 DUP3 ADD MSTORE PUSH32 0x7720746F2061636365737320746F20746869732066756E6374696F6E616C6974 PUSH1 0x64 DUP3 ADD MSTORE PUSH1 0x79 PUSH1 0xF8 SHL PUSH1 0x84 DUP3 ADD MSTORE PUSH1 0xA4 ADD PUSH2 0xAED JUMP JUMPDEST PUSH1 0x0 DUP3 DUP2 MSTORE PUSH1 0xD PUSH1 0x20 MSTORE PUSH1 0x40 SWAP1 KECCAK256 PUSH1 0x4 DUP2 ADD SLOAD PUSH1 0x3 SWAP1 SWAP2 ADD SLOAD DUP4 SWAP2 PUSH32 0x0 SWAP2 PUSH2 0x156D SWAP2 SWAP1 PUSH2 0x345B JUMP JUMPDEST LT ISZERO DUP1 ISZERO PUSH2 0x158C JUMPI POP PUSH1 0x0 DUP2 DUP2 MSTORE PUSH1 0xD PUSH1 0x20 MSTORE PUSH1 0x40 SWAP1 KECCAK256 PUSH1 0x8 ADD SLOAD NUMBER LT ISZERO JUMPDEST DUP1 PUSH2 0x15A7 JUMPI POP PUSH1 0x0 DUP2 DUP2 MSTORE PUSH1 0xD PUSH1 0x20 MSTORE PUSH1 0x40 SWAP1 KECCAK256 PUSH1 0x9 ADD SLOAD NUMBER GT JUMPDEST PUSH2 0x15E2 JUMPI PUSH1 0x40 MLOAD PUSH3 0x461BCD PUSH1 0xE5 SHL DUP2 MSTORE PUSH1 0x20 PUSH1 0x4 DUP3 ADD MSTORE PUSH1 0xC PUSH1 0x24 DUP3 ADD MSTORE PUSH12 0x2B37BA329034B99037B832B7 PUSH1 0xA1 SHL PUSH1 0x44 DUP3 ADD MSTORE PUSH1 0x64 ADD PUSH2 0xAED JUMP JUMPDEST PUSH1 0x0 DUP2 DUP2 MSTORE PUSH1 0xD PUSH1 0x20 MSTORE PUSH1 0x40 SWAP1 KECCAK256 PUSH1 0x4 DUP2 ADD SLOAD PUSH1 0x3 SWAP1 SWAP2 ADD SLOAD GT PUSH2 0x165E JUMPI PUSH1 0x40 MLOAD PUSH3 0x461BCD PUSH1 0xE5 SHL DUP2 MSTORE PUSH1 0x20 PUSH1 0x4 DUP3 ADD MSTORE PUSH1 0x2D PUSH1 0x24 DUP3 ADD MSTORE PUSH32 0x5468652061727469636C6520776173206E6F7420617070726F76656420627920 PUSH1 0x44 DUP3 ADD MSTORE PUSH13 0x74686520636F6D6D756E697479 PUSH1 0x98 SHL PUSH1 0x64 DUP3 ADD MSTORE PUSH1 0x84 ADD PUSH2 0xAED JUMP JUMPDEST PUSH1 0x0 DUP4 DUP2 MSTORE PUSH1 0xD PUSH1 0x20 MSTORE PUSH1 0x40 SWAP1 KECCAK256 PUSH1 0x2 ADD SLOAD PUSH1 0x1 PUSH1 0x1 PUSH1 0xA0 SHL SUB AND CALLER EQ PUSH2 0x16D6 JUMPI PUSH1 0x40 MLOAD PUSH3 0x461BCD PUSH1 0xE5 SHL DUP2 MSTORE PUSH1 0x20 PUSH1 0x4 DUP3 ADD MSTORE PUSH1 0x26 PUSH1 0x24 DUP3 ADD MSTORE PUSH32 0x596F7520617265206E6F742074686520617574686F72206F6620746869732061 PUSH1 0x44 DUP3 ADD MSTORE PUSH6 0x727469636C65 PUSH1 0xD0 SHL PUSH1 0x64 DUP3 ADD MSTORE PUSH1 0x84 ADD PUSH2 0xAED JUMP JUMPDEST PUSH1 0x1 PUSH1 0x1 PUSH1 0xA0 SHL SUB PUSH32 0x0 AND PUSH4 0x23B872DD CALLER ADDRESS PUSH2 0x1731 PUSH32 0x0 DUP8 PUSH2 0x3487 JUMP JUMPDEST PUSH1 0x40 MLOAD PUSH1 0x1 PUSH1 0x1 PUSH1 0xE0 SHL SUB NOT PUSH1 0xE0 DUP7 SWAP1 SHL AND DUP2 MSTORE PUSH1 0x1 PUSH1 0x1 PUSH1 0xA0 SHL SUB SWAP4 DUP5 AND PUSH1 0x4 DUP3 ADD MSTORE SWAP3 SWAP1 SWAP2 AND PUSH1 0x24 DUP4 ADD MSTORE PUSH1 0x44 DUP3 ADD MSTORE PUSH1 0x64 ADD PUSH1 0x20 PUSH1 0x40 MLOAD DUP1 DUP4 SUB DUP2 PUSH1 0x0 DUP8 GAS CALL ISZERO DUP1 ISZERO PUSH2 0x1785 JUMPI RETURNDATASIZE PUSH1 0x0 DUP1 RETURNDATACOPY RETURNDATASIZE PUSH1 0x0 REVERT JUMPDEST POP POP POP POP PUSH1 0x40 MLOAD RETURNDATASIZE PUSH1 0x1F NOT PUSH1 0x1F DUP3 ADD AND DUP3 ADD DUP1 PUSH1 0x40 MSTORE POP DUP2 ADD SWAP1 PUSH2 0x17A9 SWAP2 SWAP1 PUSH2 0x349E JUMP JUMPDEST POP PUSH1 0x40 MLOAD PUSH4 0x731133E9 PUSH1 0xE0 SHL DUP2 MSTORE ADDRESS PUSH1 0x4 DUP3 ADD MSTORE PUSH1 0x24 DUP2 ADD DUP5 SWAP1 MSTORE PUSH1 0x44 DUP2 ADD DUP4 SWAP1 MSTORE PUSH1 0x80 PUSH1 0x64 DUP3 ADD MSTORE PUSH1 0x0 PUSH1 0x84 DUP3 ADD MSTORE PUSH32 0x0 PUSH1 0x1 PUSH1 0x1 PUSH1 0xA0 SHL SUB AND SWAP1 PUSH4 0x731133E9 SWAP1 PUSH1 0xA4 ADD PUSH1 0x0 PUSH1 0x40 MLOAD DUP1 DUP4 SUB DUP2 PUSH1 0x0 DUP8 DUP1 EXTCODESIZE ISZERO DUP1 ISZERO PUSH2 0x1827 JUMPI PUSH1 0x0 DUP1 REVERT JUMPDEST POP GAS CALL ISZERO DUP1 ISZERO PUSH2 0x183B JUMPI RETURNDATASIZE PUSH1 0x0 DUP1 RETURNDATACOPY RETURNDATASIZE PUSH1 0x0 REVERT JUMPDEST POP POP PUSH1 0x40 DUP1 MLOAD CALLER DUP2 MSTORE PUSH1 0x20 DUP2 ADD DUP8 SWAP1 MSTORE SWAP1 DUP2 ADD DUP6 SWAP1 MSTORE PUSH32 0x4D024829A284B876A94BAE1A32407DB920B88E312D6DB5AF0E8C89B178669CFD SWAP3 POP PUSH1 0x60 ADD SWAP1 POP PUSH1 0x40 MLOAD DUP1 SWAP2 SUB SWAP1 LOG1 POP POP POP JUMP JUMPDEST PUSH1 0x0 DUP2 DUP2 MSTORE PUSH1 0x7 PUSH1 0x20 MSTORE PUSH1 0x40 SWAP1 KECCAK256 DUP2 SWAP1 PUSH2 0x18A0 SWAP1 CALLER PUSH2 0x2A2E JUMP JUMPDEST DUP1 PUSH2 0x18BE JUMPI POP PUSH1 0x0 DUP2 DUP2 MSTORE PUSH1 0x8 PUSH1 0x20 MSTORE PUSH1 0x40 SWAP1 KECCAK256 PUSH2 0x18BE SWAP1 CALLER PUSH2 0x2A2E JUMP JUMPDEST PUSH2 0x18FD JUMPI PUSH1 0x40 MLOAD PUSH3 0x461BCD PUSH1 0xE5 SHL DUP2 MSTORE PUSH1 0x20 PUSH1 0x4 DUP3 ADD MSTORE PUSH1 0x10 PUSH1 0x24 DUP3 ADD MSTORE PUSH16 0x596F7520646964206E6F7420766F7465 PUSH1 0x80 SHL PUSH1 0x44 DUP3 ADD MSTORE PUSH1 0x64 ADD PUSH2 0xAED JUMP JUMPDEST PUSH1 0x0 DUP2 DUP2 MSTORE PUSH1 0xD PUSH1 0x20 MSTORE PUSH1 0x40 SWAP1 KECCAK256 PUSH1 0x4 DUP2 ADD SLOAD PUSH1 0x3 SWAP1 SWAP2 ADD SLOAD GT ISZERO PUSH2 0x1985 JUMPI PUSH1 0x0 DUP2 DUP2 MSTORE PUSH1 0x7 PUSH1 0x20 MSTORE PUSH1 0x40 SWAP1 KECCAK256 PUSH2 0x1934 SWAP1 CALLER PUSH2 0x2A2E JUMP JUMPDEST PUSH2 0x1980 JUMPI PUSH1 0x40 MLOAD PUSH3 0x461BCD PUSH1 0xE5 SHL DUP2 MSTORE PUSH1 0x20 PUSH1 0x4 DUP3 ADD MSTORE PUSH1 0x1B PUSH1 0x24 DUP3 ADD MSTORE PUSH32 0x596F7520617265206E6F7420696E20746865206D616A6F726974790000000000 PUSH1 0x44 DUP3 ADD MSTORE PUSH1 0x64 ADD PUSH2 0xAED JUMP JUMPDEST PUSH2 0x1A2E JUMP JUMPDEST PUSH1 0x0 DUP2 DUP2 MSTORE PUSH1 0xD PUSH1 0x20 MSTORE PUSH1 0x40 SWAP1 KECCAK256 PUSH1 0x4 DUP2 ADD SLOAD PUSH1 0x3 SWAP1 SWAP2 ADD SLOAD LT ISZERO PUSH2 0x1A2E JUMPI PUSH1 0x0 DUP2 DUP2 MSTORE PUSH1 0x8 PUSH1 0x20 MSTORE PUSH1 0x40 SWAP1 KECCAK256 PUSH2 0x19BC SWAP1 CALLER PUSH2 0x2A2E JUMP JUMPDEST DUP1 ISZERO PUSH2 0x19E2 JUMPI POP PUSH1 0x0 DUP2 DUP2 MSTORE PUSH1 0xD PUSH1 0x20 MSTORE PUSH1 0x40 SWAP1 KECCAK256 PUSH1 0x2 ADD SLOAD PUSH1 0x1 PUSH1 0x1 PUSH1 0xA0 SHL SUB AND CALLER EQ ISZERO JUMPDEST PUSH2 0x1A2E JUMPI PUSH1 0x40 MLOAD PUSH3 0x461BCD PUSH1 0xE5 SHL DUP2 MSTORE PUSH1 0x20 PUSH1 0x4 DUP3 ADD MSTORE PUSH1 0x1B PUSH1 0x24 DUP3 ADD MSTORE PUSH32 0x596F7520617265206E6F7420696E20746865206D616A6F726974790000000000 PUSH1 0x44 DUP3 ADD MSTORE PUSH1 0x64 ADD PUSH2 0xAED JUMP JUMPDEST PUSH1 0x0 DUP3 DUP2 MSTORE PUSH1 0xD PUSH1 0x20 MSTORE PUSH1 0x40 SWAP1 KECCAK256 PUSH1 0x4 DUP2 ADD SLOAD PUSH1 0x3 SWAP1 SWAP2 ADD SLOAD DUP4 SWAP2 PUSH32 0x0 SWAP2 PUSH2 0x1A75 SWAP2 SWAP1 PUSH2 0x345B JUMP JUMPDEST LT ISZERO DUP1 ISZERO PUSH2 0x1A94 JUMPI POP PUSH1 0x0 DUP2 DUP2 MSTORE PUSH1 0xD PUSH1 0x20 MSTORE PUSH1 0x40 SWAP1 KECCAK256 PUSH1 0x8 ADD SLOAD NUMBER LT ISZERO JUMPDEST DUP1 PUSH2 0x1AAF JUMPI POP PUSH1 0x0 DUP2 DUP2 MSTORE PUSH1 0xD PUSH1 0x20 MSTORE PUSH1 0x40 SWAP1 KECCAK256 PUSH1 0x9 ADD SLOAD NUMBER GT JUMPDEST PUSH2 0x1AEA JUMPI PUSH1 0x40 MLOAD PUSH3 0x461BCD PUSH1 0xE5 SHL DUP2 MSTORE PUSH1 0x20 PUSH1 0x4 DUP3 ADD MSTORE PUSH1 0xC PUSH1 0x24 DUP3 ADD MSTORE PUSH12 0x2B37BA329034B99037B832B7 PUSH1 0xA1 SHL PUSH1 0x44 DUP3 ADD MSTORE PUSH1 0x64 ADD PUSH2 0xAED JUMP JUMPDEST PUSH1 0x0 DUP4 DUP2 MSTORE PUSH1 0xD PUSH1 0x20 MSTORE PUSH1 0x40 DUP2 KECCAK256 PUSH1 0x4 DUP2 ADD SLOAD PUSH1 0x3 SWAP1 SWAP2 ADD SLOAD DUP3 SWAP2 DUP3 SWAP2 DUP3 SWAP2 DUP3 SWAP2 SUB PUSH2 0x1BC8 JUMPI PUSH1 0x0 DUP9 DUP2 MSTORE PUSH1 0xD PUSH1 0x20 MSTORE PUSH1 0x40 SWAP1 KECCAK256 PUSH1 0x2 ADD SLOAD CALLER PUSH1 0x1 PUSH1 0x1 PUSH1 0xA0 SHL SUB SWAP1 SWAP2 AND SUB PUSH2 0x1B4C JUMPI PUSH1 0x0 DUP9 DUP2 MSTORE PUSH1 0xD PUSH1 0x20 MSTORE PUSH1 0x40 SWAP1 KECCAK256 PUSH1 0x5 ADD SLOAD SWAP5 POP PUSH2 0x1BC3 JUMP JUMPDEST PUSH1 0x0 DUP9 DUP2 MSTORE PUSH1 0xA PUSH1 0x20 SWAP1 DUP2 MSTORE PUSH1 0x40 DUP1 DUP4 KECCAK256 CALLER DUP1 DUP6 MSTORE SWAP1 DUP4 MSTORE DUP2 DUP5 KECCAK256 SLOAD DUP13 DUP6 MSTORE PUSH1 0x9 DUP5 MSTORE DUP3 DUP6 KECCAK256 SWAP2 DUP6 MSTORE SWAP3 MSTORE SWAP1 SWAP2 KECCAK256 SLOAD PUSH2 0x1B85 SWAP2 SWAP1 PUSH2 0x345B JUMP JUMPDEST PUSH1 0x0 DUP10 DUP2 MSTORE PUSH1 0xC PUSH1 0x20 SWAP1 DUP2 MSTORE PUSH1 0x40 DUP1 DUP4 KECCAK256 CALLER DUP1 DUP6 MSTORE SWAP1 DUP4 MSTORE DUP2 DUP5 KECCAK256 SLOAD DUP14 DUP6 MSTORE PUSH1 0xB DUP5 MSTORE DUP3 DUP6 KECCAK256 SWAP2 DUP6 MSTORE SWAP3 MSTORE SWAP1 SWAP2 KECCAK256 SLOAD SWAP2 SWAP7 POP PUSH2 0x1BC0 SWAP2 PUSH2 0x345B JUMP JUMPDEST SWAP3 POP JUMPDEST PUSH1 0x0 SWAP4 POP JUMPDEST PUSH1 0x0 DUP9 DUP2 MSTORE PUSH1 0xD PUSH1 0x20 MSTORE PUSH1 0x40 SWAP1 KECCAK256 PUSH1 0x4 DUP2 ADD SLOAD PUSH1 0x3 SWAP1 SWAP2 ADD SLOAD GT ISZERO PUSH2 0x1E2D JUMPI PUSH1 0x0 DUP9 DUP2 MSTORE PUSH1 0xD PUSH1 0x20 MSTORE PUSH1 0x40 SWAP1 KECCAK256 PUSH1 0x2 ADD SLOAD CALLER PUSH1 0x1 PUSH1 0x1 PUSH1 0xA0 SHL SUB SWAP1 SWAP2 AND SUB PUSH2 0x1C80 JUMPI PUSH1 0x0 DUP9 DUP2 MSTORE PUSH1 0xD PUSH1 0x20 MSTORE PUSH1 0x40 SWAP1 KECCAK256 PUSH1 0xB DUP2 ADD SLOAD PUSH1 0x5 SWAP1 SWAP2 ADD SLOAD PUSH2 0x1C2D SWAP2 SWAP1 PUSH2 0x345B JUMP JUMPDEST PUSH1 0x0 DUP10 DUP2 MSTORE PUSH1 0xD PUSH1 0x20 MSTORE PUSH1 0x40 SWAP1 KECCAK256 PUSH1 0x5 ADD SLOAD SWAP1 SWAP6 POP PUSH2 0x1C6C SWAP1 PUSH32 0x0 PUSH2 0x2B35 JUMP JUMPDEST SWAP5 POP PUSH2 0x1C7B SWAP1 POP CALLER PUSH1 0x1 PUSH2 0x2B80 JUMP JUMPDEST PUSH2 0x1CF3 JUMP JUMPDEST PUSH1 0x0 DUP9 DUP2 MSTORE PUSH1 0x9 PUSH1 0x20 SWAP1 DUP2 MSTORE PUSH1 0x40 DUP1 DUP4 KECCAK256 CALLER DUP5 MSTORE SWAP1 SWAP2 MSTORE SWAP1 KECCAK256 SLOAD SWAP5 POP PUSH2 0x1CC6 DUP6 PUSH32 0x0 PUSH2 0x2B35 JUMP JUMPDEST PUSH1 0x0 DUP11 DUP2 MSTORE PUSH1 0xB PUSH1 0x20 SWAP1 DUP2 MSTORE PUSH1 0x40 DUP1 DUP4 KECCAK256 CALLER DUP1 DUP6 MSTORE SWAP3 MSTORE SWAP1 SWAP2 KECCAK256 SLOAD SWAP2 SWAP7 POP SWAP1 SWAP5 POP PUSH2 0x1CF3 SWAP2 POP PUSH1 0x1 PUSH2 0x2C47 JUMP JUMPDEST PUSH1 0x0 DUP9 DUP2 MSTORE PUSH1 0x7 PUSH1 0x20 MSTORE PUSH1 0x40 DUP2 KECCAK256 PUSH2 0x1D0A SWAP1 PUSH2 0x2CF1 JUMP JUMPDEST PUSH1 0x0 DUP11 DUP2 MSTORE PUSH1 0x8 PUSH1 0x20 MSTORE PUSH1 0x40 DUP2 KECCAK256 SWAP2 SWAP3 POP SWAP1 PUSH2 0x1D25 SWAP1 PUSH2 0x2CF1 JUMP JUMPDEST SWAP1 POP PUSH1 0x0 PUSH2 0x1D33 DUP3 DUP5 PUSH2 0x2CFB JUMP JUMPDEST PUSH1 0x0 DUP13 DUP2 MSTORE PUSH1 0xD PUSH1 0x20 DUP2 SWAP1 MSTORE PUSH1 0x40 SWAP1 SWAP2 KECCAK256 SWAP1 DUP2 ADD SLOAD PUSH1 0x6 SWAP1 SWAP2 ADD SLOAD SWAP2 SWAP3 POP PUSH2 0x1D5A SWAP2 PUSH2 0x2D42 JUMP JUMPDEST SWAP5 POP PUSH1 0x0 SWAP1 POP JUMPDEST DUP2 DUP2 LT ISZERO PUSH2 0x1DD5 JUMPI PUSH1 0x0 DUP13 DUP2 MSTORE PUSH1 0x8 PUSH1 0x20 MSTORE PUSH1 0x40 DUP2 KECCAK256 PUSH2 0x1D81 SWAP1 DUP3 PUSH2 0x2D75 JUMP JUMPDEST PUSH1 0x0 DUP15 DUP2 MSTORE PUSH1 0xD PUSH1 0x20 MSTORE PUSH1 0x40 SWAP1 KECCAK256 PUSH1 0x2 ADD SLOAD SWAP1 SWAP2 POP PUSH1 0x1 PUSH1 0x1 PUSH1 0xA0 SHL SUB DUP1 DUP4 AND SWAP2 AND EQ PUSH2 0x1DB3 JUMPI PUSH2 0x1DB3 DUP2 PUSH1 0x0 PUSH2 0x2C47 JUMP JUMPDEST PUSH1 0x0 DUP14 DUP2 MSTORE PUSH1 0x8 PUSH1 0x20 MSTORE PUSH1 0x40 SWAP1 KECCAK256 PUSH2 0x1DCB SWAP1 DUP3 PUSH2 0x2D81 JUMP JUMPDEST POP POP PUSH1 0x1 ADD PUSH2 0x1D61 JUMP JUMPDEST POP PUSH1 0x0 DUP12 DUP2 MSTORE PUSH1 0x7 PUSH1 0x20 MSTORE PUSH1 0x40 SWAP1 KECCAK256 PUSH2 0x1DEE SWAP1 CALLER PUSH2 0x2D81 JUMP JUMPDEST POP PUSH2 0x1E19 DUP2 PUSH32 0x0 PUSH2 0x2B35 JUMP JUMPDEST SWAP6 POP PUSH2 0x1E27 SWAP1 POP DUP6 DUP9 PUSH2 0x345B JUMP JUMPDEST SWAP7 POP POP POP POP JUMPDEST PUSH1 0x0 DUP9 DUP2 MSTORE PUSH1 0xD PUSH1 0x20 MSTORE PUSH1 0x40 SWAP1 KECCAK256 PUSH1 0x4 DUP2 ADD SLOAD PUSH1 0x3 SWAP1 SWAP2 ADD SLOAD LT ISZERO PUSH2 0x2060 JUMPI PUSH1 0x0 DUP9 DUP2 MSTORE PUSH1 0xD PUSH1 0x20 MSTORE PUSH1 0x40 SWAP1 KECCAK256 PUSH1 0x7 DUP2 ADD SLOAD PUSH1 0xA DUP3 ADD SLOAD PUSH1 0x5 SWAP1 SWAP3 ADD SLOAD SWAP1 SWAP2 PUSH2 0x1E75 SWAP2 PUSH2 0x345B JUMP JUMPDEST PUSH2 0x1E7F SWAP2 SWAP1 PUSH2 0x34D1 JUMP JUMPDEST PUSH1 0x0 DUP10 DUP2 MSTORE PUSH1 0xA PUSH1 0x20 SWAP1 DUP2 MSTORE PUSH1 0x40 DUP1 DUP4 KECCAK256 CALLER DUP5 MSTORE SWAP1 SWAP2 MSTORE SWAP1 KECCAK256 SLOAD PUSH2 0x1EA3 SWAP2 SWAP1 PUSH2 0x345B JUMP JUMPDEST PUSH1 0x0 DUP10 DUP2 MSTORE PUSH1 0xA PUSH1 0x20 SWAP1 DUP2 MSTORE PUSH1 0x40 DUP1 DUP4 KECCAK256 CALLER DUP5 MSTORE SWAP1 SWAP2 MSTORE SWAP1 KECCAK256 SLOAD SWAP1 SWAP6 POP PUSH2 0x1EEA SWAP1 PUSH32 0x0 PUSH2 0x2B35 JUMP JUMPDEST PUSH1 0x0 DUP11 DUP2 MSTORE PUSH1 0xC PUSH1 0x20 SWAP1 DUP2 MSTORE PUSH1 0x40 DUP1 DUP4 KECCAK256 CALLER DUP1 DUP6 MSTORE SWAP3 MSTORE SWAP1 SWAP2 KECCAK256 SLOAD SWAP2 SWAP7 POP SWAP1 SWAP5 POP PUSH2 0x1F17 SWAP2 POP PUSH1 0x1 PUSH2 0x2C47 JUMP JUMPDEST PUSH1 0x0 DUP9 DUP2 MSTORE PUSH1 0x8 PUSH1 0x20 MSTORE PUSH1 0x40 DUP2 KECCAK256 PUSH1 0x1 SWAP1 PUSH2 0x1F31 SWAP1 PUSH2 0x2CF1 JUMP JUMPDEST PUSH2 0x1F3B SWAP2 SWAP1 PUSH2 0x34F3 JUMP JUMPDEST PUSH1 0x0 DUP11 DUP2 MSTORE PUSH1 0x7 PUSH1 0x20 MSTORE PUSH1 0x40 DUP2 KECCAK256 SWAP2 SWAP3 POP SWAP1 PUSH2 0x1F56 SWAP1 PUSH2 0x2CF1 JUMP JUMPDEST SWAP1 POP PUSH1 0x0 PUSH2 0x1F64 DUP3 DUP5 PUSH2 0x2CFB JUMP JUMPDEST PUSH1 0x0 DUP13 DUP2 MSTORE PUSH1 0xD PUSH1 0x20 MSTORE PUSH1 0x40 SWAP1 KECCAK256 PUSH1 0xC DUP2 ADD SLOAD PUSH1 0x7 SWAP1 SWAP2 ADD SLOAD SWAP2 SWAP3 POP PUSH2 0x1F89 SWAP2 PUSH2 0x2D42 JUMP JUMPDEST SWAP5 POP PUSH1 0x0 SWAP1 POP JUMPDEST DUP2 DUP2 LT ISZERO PUSH2 0x2015 JUMPI PUSH1 0x0 DUP13 DUP2 MSTORE PUSH1 0x7 PUSH1 0x20 MSTORE PUSH1 0x40 DUP2 KECCAK256 PUSH2 0x1FB0 SWAP1 DUP3 PUSH2 0x2D75 JUMP JUMPDEST PUSH1 0x0 DUP15 DUP2 MSTORE PUSH1 0xD PUSH1 0x20 MSTORE PUSH1 0x40 SWAP1 KECCAK256 PUSH1 0x2 ADD SLOAD SWAP1 SWAP2 POP PUSH1 0x1 PUSH1 0x1 PUSH1 0xA0 SHL SUB SWAP1 DUP2 AND SWAP1 DUP3 AND SUB PUSH2 0x1FE8 JUMPI PUSH2 0x1FE3 DUP2 PUSH1 0x0 PUSH2 0x2B80 JUMP JUMPDEST PUSH2 0x1FF3 JUMP JUMPDEST PUSH2 0x1FF3 DUP2 PUSH1 0x0 PUSH2 0x2C47 JUMP JUMPDEST PUSH1 0x0 DUP14 DUP2 MSTORE PUSH1 0x7 PUSH1 0x20 MSTORE PUSH1 0x40 SWAP1 KECCAK256 PUSH2 0x200B SWAP1 DUP3 PUSH2 0x2D81 JUMP JUMPDEST POP POP PUSH1 0x1 ADD PUSH2 0x1F90 JUMP JUMPDEST POP PUSH1 0x0 DUP12 DUP2 MSTORE PUSH1 0x8 PUSH1 0x20 MSTORE PUSH1 0x40 SWAP1 KECCAK256 PUSH2 0x202E SWAP1 CALLER PUSH2 0x2D81 JUMP JUMPDEST POP PUSH2 0x2059 DUP2 PUSH32 0x0 PUSH2 0x2B35 JUMP JUMPDEST SWAP6 POP POP POP POP POP JUMPDEST PUSH2 0x206A CALLER DUP7 PUSH2 0x2A50 JUMP JUMPDEST PUSH1 0x1 PUSH1 0x1 PUSH1 0xA0 SHL SUB PUSH32 0x0 AND PUSH4 0x40C10F19 CALLER PUSH2 0x20A4 DUP6 DUP9 PUSH2 0x345B JUMP JUMPDEST PUSH1 0x40 MLOAD PUSH1 0x1 PUSH1 0x1 PUSH1 0xE0 SHL SUB NOT PUSH1 0xE0 DUP6 SWAP1 SHL AND DUP2 MSTORE PUSH1 0x1 PUSH1 0x1 PUSH1 0xA0 SHL SUB SWAP1 SWAP3 AND PUSH1 0x4 DUP4 ADD MSTORE PUSH1 0x24 DUP3 ADD MSTORE PUSH1 0x44 ADD PUSH1 0x0 PUSH1 0x40 MLOAD DUP1 DUP4 SUB DUP2 PUSH1 0x0 DUP8 DUP1 EXTCODESIZE ISZERO DUP1 ISZERO PUSH2 0x20EA JUMPI PUSH1 0x0 DUP1 REVERT JUMPDEST POP GAS CALL ISZERO DUP1 ISZERO PUSH2 0x20FE JUMPI RETURNDATASIZE PUSH1 0x0 DUP1 RETURNDATACOPY RETURNDATASIZE PUSH1 0x0 REVERT JUMPDEST POP POP POP POP PUSH1 0x0 DUP4 GT ISZERO PUSH2 0x21B6 JUMPI PUSH1 0x1 PUSH1 0x1 PUSH1 0xA0 SHL SUB PUSH32 0x0 AND PUSH4 0xA9059CBB CALLER PUSH2 0x2145 DUP5 DUP8 PUSH2 0x345B JUMP JUMPDEST PUSH1 0x40 MLOAD PUSH1 0x1 PUSH1 0x1 PUSH1 0xE0 SHL SUB NOT PUSH1 0xE0 DUP6 SWAP1 SHL AND DUP2 MSTORE PUSH1 0x1 PUSH1 0x1 PUSH1 0xA0 SHL SUB SWAP1 SWAP3 AND PUSH1 0x4 DUP4 ADD MSTORE PUSH1 0x24 DUP3 ADD MSTORE PUSH1 0x44 ADD PUSH1 0x20 PUSH1 0x40 MLOAD DUP1 DUP4 SUB DUP2 PUSH1 0x0 DUP8 GAS CALL ISZERO DUP1 ISZERO PUSH2 0x2190 JUMPI RETURNDATASIZE PUSH1 0x0 DUP1 RETURNDATACOPY RETURNDATASIZE PUSH1 0x0 REVERT JUMPDEST POP POP POP POP PUSH1 0x40 MLOAD RETURNDATASIZE PUSH1 0x1F NOT PUSH1 0x1F DUP3 ADD AND DUP3 ADD DUP1 PUSH1 0x40 MSTORE POP DUP2 ADD SWAP1 PUSH2 0x21B4 SWAP2 SWAP1 PUSH2 0x349E JUMP JUMPDEST POP JUMPDEST PUSH32 0xB26EA8AD92F258BC70244E0CED197B6E05B0DBECD2BFC0950A39D921BAAFA93F CALLER DUP10 DUP8 DUP5 DUP8 PUSH2 0x21E6 DUP9 DUP12 PUSH2 0x345B JUMP JUMPDEST PUSH2 0x21F0 SWAP2 SWAP1 PUSH2 0x345B JUMP JUMPDEST PUSH2 0x21FA SWAP2 SWAP1 PUSH2 0x345B JUMP JUMPDEST PUSH1 0x40 DUP1 MLOAD PUSH1 0x1 PUSH1 0x1 PUSH1 0xA0 SHL SUB SWAP1 SWAP6 AND DUP6 MSTORE PUSH1 0x20 DUP6 ADD SWAP4 SWAP1 SWAP4 MSTORE SWAP2 DUP4 ADD MSTORE PUSH1 0x60 DUP3 ADD MSTORE PUSH1 0x80 ADD PUSH1 0x40 MLOAD DUP1 SWAP2 SUB SWAP1 LOG1 POP POP POP POP POP POP POP POP JUMP JUMPDEST PUSH1 0x0 PUSH2 0x223C DUP3 PUSH2 0xA08 JUMP JUMPDEST ISZERO PUSH2 0xA93 JUMPI PUSH1 0x0 DUP3 DUP2 MSTORE PUSH1 0xD PUSH1 0x20 MSTORE PUSH1 0x40 SWAP1 KECCAK256 PUSH1 0x4 DUP2 ADD SLOAD PUSH1 0x3 SWAP1 SWAP2 ADD SLOAD GT ISZERO PUSH2 0xA93 JUMPI POP PUSH1 0x1 SWAP2 SWAP1 POP JUMP JUMPDEST PUSH1 0x1 PUSH1 0x1 PUSH1 0xA0 SHL SUB DUP2 AND PUSH1 0x0 SWAP1 DUP2 MSTORE PUSH1 0x3 PUSH1 0x20 MSTORE PUSH1 0x40 DUP2 KECCAK256 SLOAD PUSH1 0x5A PUSH1 0xFF SWAP1 SWAP2 AND GT ISZERO PUSH2 0xA93 JUMPI POP PUSH1 0x1 SWAP2 SWAP1 POP JUMP JUMPDEST PUSH1 0x1 PUSH1 0x1 PUSH1 0xA0 SHL SUB DUP2 AND PUSH1 0x0 SWAP1 DUP2 MSTORE PUSH1 0x6 PUSH1 0x20 MSTORE PUSH1 0x40 SWAP1 KECCAK256 PUSH1 0x60 SWAP1 PUSH2 0xF51 SWAP1 PUSH2 0x2D96 JUMP JUMPDEST PUSH1 0x0 DUP4 DUP2 MSTORE PUSH1 0x9 PUSH1 0x20 SWAP1 DUP2 MSTORE PUSH1 0x40 DUP1 DUP4 KECCAK256 CALLER DUP5 MSTORE SWAP1 SWAP2 MSTORE SWAP1 KECCAK256 SLOAD DUP4 SWAP1 ISZERO DUP1 ISZERO PUSH2 0x22FA JUMPI POP PUSH1 0x0 DUP2 DUP2 MSTORE PUSH1 0xA PUSH1 0x20 SWAP1 DUP2 MSTORE PUSH1 0x40 DUP1 DUP4 KECCAK256 CALLER DUP5 MSTORE SWAP1 SWAP2 MSTORE SWAP1 KECCAK256 SLOAD ISZERO JUMPDEST PUSH2 0x233F JUMPI PUSH1 0x40 MLOAD PUSH3 0x461BCD PUSH1 0xE5 SHL DUP2 MSTORE PUSH1 0x20 PUSH1 0x4 DUP3 ADD MSTORE PUSH1 0x16 PUSH1 0x24 DUP3 ADD MSTORE PUSH22 0x165BDD481A185D9948185B1C9958591E481D9BDD1959 PUSH1 0x52 SHL PUSH1 0x44 DUP3 ADD MSTORE PUSH1 0x64 ADD PUSH2 0xAED JUMP JUMPDEST PUSH1 0x0 DUP5 DUP2 MSTORE PUSH1 0xD PUSH1 0x20 MSTORE PUSH1 0x40 SWAP1 KECCAK256 PUSH1 0x9 ADD SLOAD DUP5 SWAP1 NUMBER GT DUP1 ISZERO SWAP1 PUSH2 0x23A3 JUMPI POP PUSH1 0x0 DUP2 DUP2 MSTORE PUSH1 0xD PUSH1 0x20 MSTORE PUSH1 0x40 SWAP1 KECCAK256 PUSH1 0x4 DUP2 ADD SLOAD PUSH1 0x3 SWAP1 SWAP2 ADD SLOAD PUSH32 0x0 SWAP2 PUSH2 0x23A1 SWAP2 PUSH2 0x345B JUMP JUMPDEST LT JUMPDEST DUP1 PUSH2 0x23BE JUMPI POP PUSH1 0x0 DUP2 DUP2 MSTORE PUSH1 0xD PUSH1 0x20 MSTORE PUSH1 0x40 SWAP1 KECCAK256 PUSH1 0x8 ADD SLOAD NUMBER LT JUMPDEST PUSH2 0x23FB JUMPI PUSH1 0x40 MLOAD PUSH3 0x461BCD PUSH1 0xE5 SHL DUP2 MSTORE PUSH1 0x20 PUSH1 0x4 DUP3 ADD MSTORE PUSH1 0xE PUSH1 0x24 DUP3 ADD MSTORE PUSH14 0x159BDD19481A5CC818DB1BDCD959 PUSH1 0x92 SHL PUSH1 0x44 DUP3 ADD MSTORE PUSH1 0x64 ADD PUSH2 0xAED JUMP JUMPDEST PUSH2 0x2404 CALLER PUSH2 0x2895 JUMP JUMPDEST CALLVALUE LT ISZERO PUSH2 0x2446 JUMPI PUSH1 0x40 MLOAD PUSH3 0x461BCD PUSH1 0xE5 SHL DUP2 MSTORE PUSH1 0x20 PUSH1 0x4 DUP3 ADD MSTORE PUSH1 0x10 PUSH1 0x24 DUP3 ADD MSTORE PUSH16 0x2737BA1032B737BAB3B41032BA3432B9 PUSH1 0x81 SHL PUSH1 0x44 DUP3 ADD MSTORE PUSH1 0x64 ADD PUSH2 0xAED JUMP JUMPDEST PUSH2 0x244F CALLER PUSH2 0x9EF JUMP JUMPDEST DUP4 GT ISZERO PUSH2 0x24AE JUMPI PUSH1 0x40 MLOAD PUSH3 0x461BCD PUSH1 0xE5 SHL DUP2 MSTORE PUSH1 0x20 PUSH1 0x4 DUP3 ADD MSTORE PUSH1 0x27 PUSH1 0x24 DUP3 ADD MSTORE PUSH32 0x546F6F206D616E7920746F6B656E73207370656E7420746F20626F6F73742074 PUSH1 0x44 DUP3 ADD MSTORE PUSH7 0x686520766F7465 PUSH1 0xC8 SHL PUSH1 0x64 DUP3 ADD MSTORE PUSH1 0x84 ADD PUSH2 0xAED JUMP JUMPDEST DUP3 ISZERO PUSH2 0x254D JUMPI PUSH1 0x40 MLOAD PUSH4 0x23B872DD PUSH1 0xE0 SHL DUP2 MSTORE CALLER PUSH1 0x4 DUP3 ADD MSTORE ADDRESS PUSH1 0x24 DUP3 ADD MSTORE PUSH1 0x44 DUP2 ADD DUP5 SWAP1 MSTORE PUSH32 0x0 PUSH1 0x1 PUSH1 0x1 PUSH1 0xA0 SHL SUB AND SWAP1 PUSH4 0x23B872DD SWAP1 PUSH1 0x64 ADD PUSH1 0x20 PUSH1 0x40 MLOAD DUP1 DUP4 SUB DUP2 PUSH1 0x0 DUP8 GAS CALL ISZERO DUP1 ISZERO PUSH2 0x2527 JUMPI RETURNDATASIZE PUSH1 0x0 DUP1 RETURNDATACOPY RETURNDATASIZE PUSH1 0x0 REVERT JUMPDEST POP POP POP POP PUSH1 0x40 MLOAD RETURNDATASIZE PUSH1 0x1F NOT PUSH1 0x1F DUP3 ADD AND DUP3 ADD DUP1 PUSH1 0x40 MSTORE POP DUP2 ADD SWAP1 PUSH2 0x254B SWAP2 SWAP1 PUSH2 0x349E JUMP JUMPDEST POP JUMPDEST PUSH2 0x2556 CALLER PUSH2 0x2DA3 JUMP JUMPDEST PUSH1 0x0 PUSH2 0x2561 CALLER PUSH2 0x284C JUMP JUMPDEST SWAP1 POP DUP5 ISZERO PUSH2 0x2674 JUMPI PUSH2 0x2573 DUP2 DUP6 PUSH2 0x2995 JUMP JUMPDEST PUSH1 0x0 DUP8 DUP2 MSTORE PUSH1 0xD PUSH1 0x20 MSTORE PUSH1 0x40 DUP2 KECCAK256 PUSH1 0x3 ADD DUP1 SLOAD SWAP1 SWAP2 SWAP1 PUSH2 0x2594 SWAP1 DUP5 SWAP1 PUSH2 0x345B JUMP JUMPDEST SWAP1 SWAP2 SSTORE POP POP PUSH1 0x0 DUP7 DUP2 MSTORE PUSH1 0xD PUSH1 0x20 MSTORE PUSH1 0x40 DUP2 KECCAK256 PUSH1 0x6 ADD DUP1 SLOAD PUSH1 0x1 SWAP3 SWAP1 PUSH2 0x25BB SWAP1 DUP5 SWAP1 PUSH2 0x345B JUMP JUMPDEST SWAP1 SWAP2 SSTORE POP POP PUSH1 0x0 DUP7 DUP2 MSTORE PUSH1 0x7 PUSH1 0x20 MSTORE PUSH1 0x40 SWAP1 KECCAK256 PUSH2 0x25D8 SWAP1 CALLER PUSH2 0x2A0D JUMP JUMPDEST POP PUSH1 0x0 DUP7 DUP2 MSTORE PUSH1 0x9 PUSH1 0x20 SWAP1 DUP2 MSTORE PUSH1 0x40 DUP1 DUP4 KECCAK256 CALLER DUP5 MSTORE DUP3 MSTORE DUP1 DUP4 KECCAK256 CALLVALUE SWAP1 DUP2 SWAP1 SSTORE DUP10 DUP5 MSTORE PUSH1 0xD SWAP1 SWAP3 MSTORE DUP3 KECCAK256 PUSH1 0xA ADD DUP1 SLOAD SWAP2 SWAP3 SWAP1 SWAP2 PUSH2 0x2615 SWAP1 DUP5 SWAP1 PUSH2 0x345B JUMP JUMPDEST SWAP1 SWAP2 SSTORE POP POP PUSH1 0x0 DUP7 DUP2 MSTORE PUSH1 0xB PUSH1 0x20 SWAP1 DUP2 MSTORE PUSH1 0x40 DUP1 DUP4 KECCAK256 CALLER DUP5 MSTORE SWAP1 SWAP2 MSTORE DUP2 KECCAK256 DUP1 SLOAD DUP7 SWAP3 SWAP1 PUSH2 0x2643 SWAP1 DUP5 SWAP1 PUSH2 0x345B JUMP JUMPDEST SWAP1 SWAP2 SSTORE POP POP PUSH1 0x0 DUP7 DUP2 MSTORE PUSH1 0xD PUSH1 0x20 MSTORE PUSH1 0x40 DUP2 KECCAK256 PUSH1 0xC ADD DUP1 SLOAD DUP7 SWAP3 SWAP1 PUSH2 0x2669 SWAP1 DUP5 SWAP1 PUSH2 0x345B JUMP JUMPDEST SWAP1 SWAP2 SSTORE POP PUSH2 0x277A SWAP1 POP JUMP JUMPDEST PUSH2 0x267E DUP2 DUP6 PUSH2 0x2995 JUMP JUMPDEST PUSH1 0x0 DUP8 DUP2 MSTORE PUSH1 0xD PUSH1 0x20 MSTORE PUSH1 0x40 DUP2 KECCAK256 PUSH1 0x4 ADD DUP1 SLOAD SWAP1 SWAP2 SWAP1 PUSH2 0x269F SWAP1 DUP5 SWAP1 PUSH2 0x345B JUMP JUMPDEST SWAP1 SWAP2 SSTORE POP POP PUSH1 0x0 DUP7 DUP2 MSTORE PUSH1 0xD PUSH1 0x20 MSTORE PUSH1 0x40 DUP2 KECCAK256 PUSH1 0x7 ADD DUP1 SLOAD PUSH1 0x1 SWAP3 SWAP1 PUSH2 0x26C6 SWAP1 DUP5 SWAP1 PUSH2 0x345B JUMP JUMPDEST SWAP1 SWAP2 SSTORE POP POP PUSH1 0x0 DUP7 DUP2 MSTORE PUSH1 0x8 PUSH1 0x20 MSTORE PUSH1 0x40 SWAP1 KECCAK256 PUSH2 0x26E3 SWAP1 CALLER PUSH2 0x2A0D JUMP JUMPDEST POP PUSH1 0x0 DUP7 DUP2 MSTORE PUSH1 0xA PUSH1 0x20 SWAP1 DUP2 MSTORE PUSH1 0x40 DUP1 DUP4 KECCAK256 CALLER DUP5 MSTORE DUP3 MSTORE DUP1 DUP4 KECCAK256 CALLVALUE SWAP1 DUP2 SWAP1 SSTORE DUP10 DUP5 MSTORE PUSH1 0xD SWAP1 SWAP3 MSTORE DUP3 KECCAK256 PUSH1 0xB ADD DUP1 SLOAD SWAP2 SWAP3 SWAP1 SWAP2 PUSH2 0x2720 SWAP1 DUP5 SWAP1 PUSH2 0x345B JUMP JUMPDEST SWAP1 SWAP2 SSTORE POP POP PUSH1 0x0 DUP7 DUP2 MSTORE PUSH1 0xC PUSH1 0x20 SWAP1 DUP2 MSTORE PUSH1 0x40 DUP1 DUP4 KECCAK256 CALLER DUP5 MSTORE SWAP1 SWAP2 MSTORE DUP2 KECCAK256 DUP1 SLOAD DUP7 SWAP3 SWAP1 PUSH2 0x274E SWAP1 DUP5 SWAP1 PUSH2 0x345B JUMP JUMPDEST SWAP1 SWAP2 SSTORE POP POP PUSH1 0x0 DUP7 DUP2 MSTORE PUSH1 0xD PUSH1 0x20 DUP2 SWAP1 MSTORE PUSH1 0x40 DUP3 KECCAK256 ADD DUP1 SLOAD DUP7 SWAP3 SWAP1 PUSH2 0x2774 SWAP1 DUP5 SWAP1 PUSH2 0x345B JUMP JUMPDEST SWAP1 SWAP2 SSTORE POP POP JUMPDEST CALLER PUSH1 0x0 SWAP1 DUP2 MSTORE PUSH1 0x5 PUSH1 0x20 MSTORE PUSH1 0x40 SWAP1 KECCAK256 PUSH2 0x2793 SWAP1 DUP8 PUSH2 0x2A22 JUMP JUMPDEST POP CALLER PUSH1 0x0 DUP2 DUP2 MSTORE PUSH1 0x2 PUSH1 0x20 SWAP1 DUP2 MSTORE PUSH1 0x40 SWAP2 DUP3 SWAP1 KECCAK256 SLOAD DUP3 MLOAD SWAP4 DUP5 MSTORE SWAP1 DUP4 ADD DUP10 SWAP1 MSTORE DUP8 ISZERO ISZERO DUP4 DUP4 ADD MSTORE PUSH1 0x60 DUP4 ADD DUP8 SWAP1 MSTORE CALLVALUE PUSH1 0x80 DUP5 ADD MSTORE PUSH1 0xFF AND PUSH1 0xA0 DUP4 ADD MSTORE MLOAD PUSH32 0xF4139A7862F013F6E5CB1B345240BC426539F16017E9934E7ED413B55D2F8441 SWAP2 DUP2 SWAP1 SUB PUSH1 0xC0 ADD SWAP1 LOG1 POP POP POP POP POP POP JUMP JUMPDEST PUSH1 0x1 PUSH1 0x1 PUSH1 0xA0 SHL SUB DUP2 AND PUSH1 0x0 SWAP1 DUP2 MSTORE PUSH1 0x20 DUP2 SWAP1 MSTORE PUSH1 0x40 DUP2 KECCAK256 SLOAD ISZERO PUSH2 0xA93 JUMPI POP PUSH1 0x1 SWAP2 SWAP1 POP JUMP JUMPDEST PUSH1 0x1 PUSH1 0x1 PUSH1 0xA0 SHL SUB DUP2 AND PUSH1 0x0 SWAP1 DUP2 MSTORE PUSH1 0x5 PUSH1 0x20 MSTORE PUSH1 0x40 SWAP1 KECCAK256 PUSH1 0x60 SWAP1 PUSH2 0xF51 SWAP1 PUSH2 0x2D96 JUMP JUMPDEST PUSH1 0x1 PUSH1 0x1 PUSH1 0xA0 SHL SUB DUP2 AND PUSH1 0x0 SWAP1 DUP2 MSTORE PUSH1 0x2 PUSH1 0x20 MSTORE PUSH1 0x40 DUP2 KECCAK256 SLOAD PUSH1 0xFF AND DUP2 SUB PUSH2 0x2876 JUMPI POP PUSH1 0x33 SWAP2 SWAP1 POP JUMP JUMPDEST POP PUSH1 0x1 PUSH1 0x1 PUSH1 0xA0 SHL SUB AND PUSH1 0x0 SWAP1 DUP2 MSTORE PUSH1 0x2 PUSH1 0x20 MSTORE PUSH1 0x40 SWAP1 KECCAK256 SLOAD PUSH1 0xFF AND SWAP1 JUMP JUMPDEST PUSH1 0x0 DUP1 PUSH2 0x28A1 DUP4 PUSH2 0x284C JUMP JUMPDEST SWAP1 POP PUSH2 0x9E8 PUSH32 0x0 DUP3 PUSH2 0x2927 JUMP JUMPDEST PUSH1 0x0 DUP2 DUP2 MSTORE PUSH1 0x9 PUSH1 0x20 SWAP1 DUP2 MSTORE PUSH1 0x40 DUP1 DUP4 KECCAK256 PUSH1 0x1 PUSH1 0x1 PUSH1 0xA0 SHL SUB DUP7 AND DUP5 MSTORE SWAP1 SWAP2 MSTORE DUP2 KECCAK256 SLOAD ISZERO DUP1 ISZERO PUSH2 0xF40 JUMPI POP PUSH1 0x0 DUP3 DUP2 MSTORE PUSH1 0xA PUSH1 0x20 SWAP1 DUP2 MSTORE PUSH1 0x40 DUP1 DUP4 KECCAK256 PUSH1 0x1 PUSH1 0x1 PUSH1 0xA0 SHL SUB DUP8 AND DUP5 MSTORE SWAP1 SWAP2 MSTORE SWAP1 KECCAK256 SLOAD PUSH2 0xF4D JUMPI POP PUSH1 0x1 PUSH2 0xF51 JUMP JUMPDEST PUSH1 0x0 DUP1 PUSH1 0x33 DUP4 PUSH1 0xFF AND GT PUSH2 0x296F JUMPI PUSH1 0x0 DUP1 PUSH2 0x2946 PUSH1 0x33 DUP7 PUSH1 0xFF AND PUSH2 0x2DEB JUMP JUMPDEST SWAP3 POP PUSH2 0x2955 SWAP1 POP DUP3 PUSH1 0x2 PUSH2 0x2B35 JUMP JUMPDEST SWAP2 POP PUSH2 0x2964 SWAP1 POP PUSH1 0x64 DUP3 PUSH2 0x2E0D JUMP JUMPDEST SWAP4 POP PUSH2 0x2981 SWAP3 POP POP POP JUMP JUMPDEST PUSH2 0x297D DUP4 PUSH1 0xFF AND PUSH1 0x33 PUSH2 0x2DEB JUMP JUMPDEST SWAP2 POP POP JUMPDEST PUSH2 0x298D DUP5 DUP3 PUSH1 0x64 PUSH2 0x2E28 JUMP JUMPDEST SWAP5 SWAP4 POP POP POP POP JUMP JUMPDEST PUSH1 0x0 DUP1 PUSH1 0x33 DUP5 PUSH1 0xFF AND GT PUSH2 0x29BA JUMPI PUSH2 0x29B1 DUP5 PUSH1 0xFF AND PUSH1 0x31 PUSH2 0x2E0D JUMP JUMPDEST SWAP2 POP PUSH2 0x29EF SWAP1 POP JUMP JUMPDEST PUSH1 0x0 DUP1 PUSH2 0x29CB DUP7 PUSH1 0xFF AND PUSH1 0x33 PUSH2 0x2DEB JUMP JUMPDEST SWAP3 POP PUSH2 0x29DA SWAP1 POP DUP3 PUSH1 0x2 PUSH2 0x2B35 JUMP JUMPDEST SWAP2 POP PUSH2 0x29E9 SWAP1 POP PUSH1 0x64 DUP3 PUSH2 0x2E0D JUMP JUMPDEST SWAP4 POP POP POP POP JUMPDEST PUSH2 0x2A01 DUP2 PUSH8 0x16345785D8A0000 PUSH2 0x3487 JUMP JUMPDEST SWAP1 POP PUSH2 0x298D DUP4 DUP3 PUSH2 0x345B JUMP JUMPDEST PUSH1 0x0 PUSH2 0x9E8 DUP4 PUSH1 0x1 PUSH1 0x1 PUSH1 0xA0 SHL SUB DUP5 AND PUSH2 0x2EEC JUMP JUMPDEST PUSH1 0x0 PUSH2 0x9E8 DUP4 DUP4 PUSH2 0x2EEC JUMP JUMPDEST PUSH1 0x1 PUSH1 0x1 PUSH1 0xA0 SHL SUB DUP2 AND PUSH1 0x0 SWAP1 DUP2 MSTORE PUSH1 0x1 DUP4 ADD PUSH1 0x20 MSTORE PUSH1 0x40 DUP2 KECCAK256 SLOAD ISZERO ISZERO PUSH2 0x9E8 JUMP JUMPDEST DUP1 SELFBALANCE LT ISZERO PUSH2 0x2A73 JUMPI PUSH1 0x40 MLOAD PUSH4 0xCD786059 PUSH1 0xE0 SHL DUP2 MSTORE ADDRESS PUSH1 0x4 DUP3 ADD MSTORE PUSH1 0x24 ADD PUSH2 0xAED JUMP JUMPDEST PUSH1 0x0 DUP3 PUSH1 0x1 PUSH1 0x1 PUSH1 0xA0 SHL SUB AND DUP3 PUSH1 0x40 MLOAD PUSH1 0x0 PUSH1 0x40 MLOAD DUP1 DUP4 SUB DUP2 DUP6 DUP8 GAS CALL SWAP3 POP POP POP RETURNDATASIZE DUP1 PUSH1 0x0 DUP2 EQ PUSH2 0x2AC0 JUMPI PUSH1 0x40 MLOAD SWAP2 POP PUSH1 0x1F NOT PUSH1 0x3F RETURNDATASIZE ADD AND DUP3 ADD PUSH1 0x40 MSTORE RETURNDATASIZE DUP3 MSTORE RETURNDATASIZE PUSH1 0x0 PUSH1 0x20 DUP5 ADD RETURNDATACOPY PUSH2 0x2AC5 JUMP JUMPDEST PUSH1 0x60 SWAP2 POP JUMPDEST POP POP SWAP1 POP DUP1 PUSH2 0x2AE7 JUMPI PUSH1 0x40 MLOAD PUSH4 0xA12F521 PUSH1 0xE1 SHL DUP2 MSTORE PUSH1 0x4 ADD PUSH1 0x40 MLOAD DUP1 SWAP2 SUB SWAP1 REVERT JUMPDEST POP POP POP JUMP JUMPDEST PUSH1 0x1 PUSH1 0x1 PUSH1 0xA0 SHL SUB DUP2 AND PUSH1 0x0 SWAP1 DUP2 MSTORE PUSH1 0x3 PUSH1 0x20 MSTORE PUSH1 0x40 DUP2 KECCAK256 SLOAD PUSH1 0xFF AND SWAP1 SUB PUSH2 0x2B32 JUMPI PUSH1 0x1 PUSH1 0x1 PUSH1 0xA0 SHL SUB DUP2 AND PUSH1 0x0 SWAP1 DUP2 MSTORE PUSH1 0x3 PUSH1 0x20 MSTORE PUSH1 0x40 SWAP1 KECCAK256 DUP1 SLOAD PUSH1 0xFF NOT AND PUSH1 0x33 OR SWAP1 SSTORE JUMPDEST POP JUMP JUMPDEST PUSH1 0x0 DUP1 DUP4 PUSH1 0x0 SUB PUSH2 0x2B4C JUMPI POP PUSH1 0x1 SWAP1 POP PUSH1 0x0 PUSH2 0x2B79 JUMP JUMPDEST DUP4 DUP4 MUL DUP4 DUP6 DUP3 DUP2 PUSH2 0x2B5F JUMPI PUSH2 0x2B5F PUSH2 0x34BB JUMP JUMPDEST DIV EQ PUSH2 0x2B72 JUMPI PUSH1 0x0 DUP1 SWAP3 POP SWAP3 POP POP PUSH2 0x2B79 JUMP JUMPDEST PUSH1 0x1 SWAP3 POP SWAP1 POP JUMPDEST SWAP3 POP SWAP3 SWAP1 POP JUMP JUMPDEST DUP1 ISZERO PUSH2 0x2BF5 JUMPI PUSH1 0x1 PUSH1 0x1 PUSH1 0xA0 SHL SUB DUP3 AND PUSH1 0x0 SWAP1 DUP2 MSTORE PUSH1 0x3 PUSH1 0x20 MSTORE PUSH1 0x40 SWAP1 KECCAK256 SLOAD PUSH1 0x65 PUSH1 0xFF SWAP1 SWAP2 AND LT ISZERO PUSH2 0x2BF1 JUMPI PUSH1 0x1 PUSH1 0x1 PUSH1 0xA0 SHL SUB DUP3 AND PUSH1 0x0 SWAP1 DUP2 MSTORE PUSH1 0x3 PUSH1 0x20 MSTORE PUSH1 0x40 DUP2 KECCAK256 DUP1 SLOAD PUSH1 0x1 SWAP3 SWAP1 PUSH2 0x2BD8 SWAP1 DUP5 SWAP1 PUSH1 0xFF AND PUSH2 0x3506 JUMP JUMPDEST SWAP3 POP PUSH2 0x100 EXP DUP2 SLOAD DUP2 PUSH1 0xFF MUL NOT AND SWAP1 DUP4 PUSH1 0xFF AND MUL OR SWAP1 SSTORE POP JUMPDEST POP POP JUMP JUMPDEST PUSH1 0x1 PUSH1 0x1 PUSH1 0xA0 SHL SUB DUP3 AND PUSH1 0x0 SWAP1 DUP2 MSTORE PUSH1 0x3 PUSH1 0x20 MSTORE PUSH1 0x40 SWAP1 KECCAK256 SLOAD PUSH1 0x1 PUSH1 0xFF SWAP1 SWAP2 AND GT ISZERO PUSH2 0x2BF1 JUMPI PUSH1 0x1 PUSH1 0x1 PUSH1 0xA0 SHL SUB DUP3 AND PUSH1 0x0 SWAP1 DUP2 MSTORE PUSH1 0x3 PUSH1 0x20 MSTORE PUSH1 0x40 DUP2 KECCAK256 DUP1 SLOAD PUSH1 0x1 SWAP3 SWAP1 PUSH2 0x2BD8 SWAP1 DUP5 SWAP1 PUSH1 0xFF AND PUSH2 0x351F JUMP JUMPDEST DUP1 ISZERO PUSH2 0x2C9F JUMPI PUSH1 0x1 PUSH1 0x1 PUSH1 0xA0 SHL SUB DUP3 AND PUSH1 0x0 SWAP1 DUP2 MSTORE PUSH1 0x2 PUSH1 0x20 MSTORE PUSH1 0x40 SWAP1 KECCAK256 SLOAD PUSH1 0x65 PUSH1 0xFF SWAP1 SWAP2 AND LT ISZERO PUSH2 0x2BF1 JUMPI PUSH1 0x1 PUSH1 0x1 PUSH1 0xA0 SHL SUB DUP3 AND PUSH1 0x0 SWAP1 DUP2 MSTORE PUSH1 0x2 PUSH1 0x20 MSTORE PUSH1 0x40 DUP2 KECCAK256 DUP1 SLOAD PUSH1 0x1 SWAP3 SWAP1 PUSH2 0x2BD8 SWAP1 DUP5 SWAP1 PUSH1 0xFF AND PUSH2 0x3506 JUMP JUMPDEST PUSH1 0x1 PUSH1 0x1 PUSH1 0xA0 SHL SUB DUP3 AND PUSH1 0x0 SWAP1 DUP2 MSTORE PUSH1 0x2 PUSH1 0x20 MSTORE PUSH1 0x40 SWAP1 KECCAK256 SLOAD PUSH1 0x1 PUSH1 0xFF SWAP1 SWAP2 AND GT ISZERO PUSH2 0x2BF1 JUMPI PUSH1 0x1 PUSH1 0x1 PUSH1 0xA0 SHL SUB DUP3 AND PUSH1 0x0 SWAP1 DUP2 MSTORE PUSH1 0x2 PUSH1 0x20 MSTORE PUSH1 0x40 DUP2 KECCAK256 DUP1 SLOAD PUSH1 0x1 SWAP3 SWAP1 PUSH2 0x2BD8 SWAP1 DUP5 SWAP1 PUSH1 0xFF AND PUSH2 0x351F JUMP JUMPDEST PUSH1 0x0 PUSH2 0xF51 DUP3 SLOAD SWAP1 JUMP JUMPDEST PUSH1 0x0 DUP2 PUSH1 0x0 SUB PUSH2 0x2D16 JUMPI PUSH2 0x2D0F DUP3 DUP5 PUSH2 0x34D1 JUMP JUMPDEST SWAP1 POP PUSH2 0xF51 JUMP JUMPDEST DUP3 ISZERO PUSH2 0xF4D JUMPI DUP2 PUSH2 0x2D28 PUSH1 0x1 DUP6 PUSH2 0x34F3 JUMP JUMPDEST PUSH2 0x2D32 SWAP2 SWAP1 PUSH2 0x34D1 JUMP JUMPDEST PUSH2 0x2D3D SWAP1 PUSH1 0x1 PUSH2 0x345B JUMP JUMPDEST PUSH2 0x9E8 JUMP JUMPDEST PUSH1 0x0 DUP1 DUP3 PUSH1 0x0 SUB PUSH2 0x2D58 JUMPI POP PUSH1 0x0 SWAP1 POP DUP1 PUSH2 0x2B79 JUMP JUMPDEST PUSH1 0x1 DUP4 DUP6 DUP2 PUSH2 0x2D69 JUMPI PUSH2 0x2D69 PUSH2 0x34BB JUMP JUMPDEST DIV SWAP2 POP SWAP2 POP SWAP3 POP SWAP3 SWAP1 POP JUMP JUMPDEST PUSH1 0x0 PUSH2 0x9E8 DUP4 DUP4 PUSH2 0x2F3B JUMP JUMPDEST PUSH1 0x0 PUSH2 0x9E8 DUP4 PUSH1 0x1 PUSH1 0x1 PUSH1 0xA0 SHL SUB DUP5 AND PUSH2 0x2F65 JUMP JUMPDEST PUSH1 0x60 PUSH1 0x0 PUSH2 0x9E8 DUP4 PUSH2 0x3058 JUMP JUMPDEST PUSH1 0x1 PUSH1 0x1 PUSH1 0xA0 SHL SUB DUP2 AND PUSH1 0x0 SWAP1 DUP2 MSTORE PUSH1 0x2 PUSH1 0x20 MSTORE PUSH1 0x40 DUP2 KECCAK256 SLOAD PUSH1 0xFF AND SWAP1 SUB PUSH2 0x2B32 JUMPI PUSH1 0x1 PUSH1 0x1 PUSH1 0xA0 SHL SUB DUP2 AND PUSH1 0x0 SWAP1 DUP2 MSTORE PUSH1 0x2 PUSH1 0x20 MSTORE PUSH1 0x40 SWAP1 KECCAK256 DUP1 SLOAD PUSH1 0xFF NOT AND PUSH1 0x33 OR SWAP1 SSTORE POP JUMP JUMPDEST PUSH1 0x0 DUP1 DUP4 DUP4 GT ISZERO PUSH2 0x2E01 JUMPI POP PUSH1 0x0 SWAP1 POP DUP1 PUSH2 0x2B79 JUMP JUMPDEST POP PUSH1 0x1 SWAP4 SWAP2 SWAP1 SWAP3 SUB SWAP2 POP JUMP JUMPDEST PUSH1 0x0 DUP1 DUP4 DUP4 ADD DUP5 DUP2 LT ISZERO PUSH2 0x2B72 JUMPI PUSH1 0x0 DUP1 SWAP3 POP SWAP3 POP POP PUSH2 0x2B79 JUMP JUMPDEST PUSH1 0x0 DUP4 DUP4 MUL DUP2 PUSH1 0x0 NOT DUP6 DUP8 MULMOD DUP3 DUP2 LT DUP4 DUP3 SUB SUB SWAP2 POP POP DUP1 PUSH1 0x0 SUB PUSH2 0x2E5F JUMPI DUP4 DUP3 DUP2 PUSH2 0x2E55 JUMPI PUSH2 0x2E55 PUSH2 0x34BB JUMP JUMPDEST DIV SWAP3 POP POP POP PUSH2 0x9E8 JUMP JUMPDEST DUP1 DUP5 GT PUSH2 0x2E7F JUMPI PUSH1 0x40 MLOAD PUSH4 0x227BC153 PUSH1 0xE0 SHL DUP2 MSTORE PUSH1 0x4 ADD PUSH1 0x40 MLOAD DUP1 SWAP2 SUB SWAP1 REVERT JUMPDEST PUSH1 0x0 DUP5 DUP7 DUP9 MULMOD PUSH1 0x0 DUP7 DUP2 SUB DUP8 AND SWAP7 DUP8 SWAP1 DIV SWAP7 PUSH1 0x2 PUSH1 0x3 DUP10 MUL DUP2 XOR DUP1 DUP11 MUL DUP3 SUB MUL DUP1 DUP11 MUL DUP3 SUB MUL DUP1 DUP11 MUL DUP3 SUB MUL DUP1 DUP11 MUL DUP3 SUB MUL DUP1 DUP11 MUL DUP3 SUB MUL DUP1 DUP11 MUL SWAP1 SWAP2 SUB MUL SWAP2 DUP2 SWAP1 SUB DUP2 SWAP1 DIV PUSH1 0x1 ADD DUP7 DUP5 GT SWAP1 SWAP6 SUB SWAP5 SWAP1 SWAP5 MUL SWAP2 SWAP1 SWAP5 SUB SWAP3 SWAP1 SWAP3 DIV SWAP2 SWAP1 SWAP2 OR SWAP2 SWAP1 SWAP2 MUL SWAP2 POP POP SWAP4 SWAP3 POP POP POP JUMP JUMPDEST PUSH1 0x0 DUP2 DUP2 MSTORE PUSH1 0x1 DUP4 ADD PUSH1 0x20 MSTORE PUSH1 0x40 DUP2 KECCAK256 SLOAD PUSH2 0x2F33 JUMPI POP DUP2 SLOAD PUSH1 0x1 DUP2 DUP2 ADD DUP5 SSTORE PUSH1 0x0 DUP5 DUP2 MSTORE PUSH1 0x20 DUP1 DUP3 KECCAK256 SWAP1 SWAP4 ADD DUP5 SWAP1 SSTORE DUP5 SLOAD DUP5 DUP3 MSTORE DUP3 DUP7 ADD SWAP1 SWAP4 MSTORE PUSH1 0x40 SWAP1 KECCAK256 SWAP2 SWAP1 SWAP2 SSTORE PUSH2 0xF51 JUMP JUMPDEST POP PUSH1 0x0 PUSH2 0xF51 JUMP JUMPDEST PUSH1 0x0 DUP3 PUSH1 0x0 ADD DUP3 DUP2 SLOAD DUP2 LT PUSH2 0x2F52 JUMPI PUSH2 0x2F52 PUSH2 0x3538 JUMP JUMPDEST SWAP1 PUSH1 0x0 MSTORE PUSH1 0x20 PUSH1 0x0 KECCAK256 ADD SLOAD SWAP1 POP SWAP3 SWAP2 POP POP JUMP JUMPDEST PUSH1 0x0 DUP2 DUP2 MSTORE PUSH1 0x1 DUP4 ADD PUSH1 0x20 MSTORE PUSH1 0x40 DUP2 KECCAK256 SLOAD DUP1 ISZERO PUSH2 0x304E JUMPI PUSH1 0x0 PUSH2 0x2F89 PUSH1 0x1 DUP4 PUSH2 0x34F3 JUMP JUMPDEST DUP6 SLOAD SWAP1 SWAP2 POP PUSH1 0x0 SWAP1 PUSH2 0x2F9D SWAP1 PUSH1 0x1 SWAP1 PUSH2 0x34F3 JUMP JUMPDEST SWAP1 POP DUP1 DUP3 EQ PUSH2 0x3002 JUMPI PUSH1 0x0 DUP7 PUSH1 0x0 ADD DUP3 DUP2 SLOAD DUP2 LT PUSH2 0x2FBD JUMPI PUSH2 0x2FBD PUSH2 0x3538 JUMP JUMPDEST SWAP1 PUSH1 0x0 MSTORE PUSH1 0x20 PUSH1 0x0 KECCAK256 ADD SLOAD SWAP1 POP DUP1 DUP8 PUSH1 0x0 ADD DUP5 DUP2 SLOAD DUP2 LT PUSH2 0x2FE0 JUMPI PUSH2 0x2FE0 PUSH2 0x3538 JUMP JUMPDEST PUSH1 0x0 SWAP2 DUP3 MSTORE PUSH1 0x20 DUP1 DUP4 KECCAK256 SWAP1 SWAP2 ADD SWAP3 SWAP1 SWAP3 SSTORE SWAP2 DUP3 MSTORE PUSH1 0x1 DUP9 ADD SWAP1 MSTORE PUSH1 0x40 SWAP1 KECCAK256 DUP4 SWAP1 SSTORE JUMPDEST DUP6 SLOAD DUP7 SWAP1 DUP1 PUSH2 0x3013 JUMPI PUSH2 0x3013 PUSH2 0x354E JUMP JUMPDEST PUSH1 0x1 SWAP1 SUB DUP2 DUP2 SWAP1 PUSH1 0x0 MSTORE PUSH1 0x20 PUSH1 0x0 KECCAK256 ADD PUSH1 0x0 SWAP1 SSTORE SWAP1 SSTORE DUP6 PUSH1 0x1 ADD PUSH1 0x0 DUP7 DUP2 MSTORE PUSH1 0x20 ADD SWAP1 DUP2 MSTORE PUSH1 0x20 ADD PUSH1 0x0 KECCAK256 PUSH1 0x0 SWAP1 SSTORE PUSH1 0x1 SWAP4 POP POP POP POP PUSH2 0xF51 JUMP JUMPDEST PUSH1 0x0 SWAP2 POP POP PUSH2 0xF51 JUMP JUMPDEST PUSH1 0x60 DUP2 PUSH1 0x0 ADD DUP1 SLOAD DUP1 PUSH1 0x20 MUL PUSH1 0x20 ADD PUSH1 0x40 MLOAD SWAP1 DUP2 ADD PUSH1 0x40 MSTORE DUP1 SWAP3 SWAP2 SWAP1 DUP2 DUP2 MSTORE PUSH1 0x20 ADD DUP3 DUP1 SLOAD DUP1 ISZERO PUSH2 0x30A8 JUMPI PUSH1 0x20 MUL DUP3 ADD SWAP2 SWAP1 PUSH1 0x0 MSTORE PUSH1 0x20 PUSH1 0x0 KECCAK256 SWAP1 JUMPDEST DUP2 SLOAD DUP2 MSTORE PUSH1 0x20 ADD SWAP1 PUSH1 0x1 ADD SWAP1 DUP1 DUP4 GT PUSH2 0x3094 JUMPI JUMPDEST POP POP POP POP POP SWAP1 POP SWAP2 SWAP1 POP JUMP JUMPDEST PUSH1 0x0 PUSH1 0x20 DUP3 DUP5 SUB SLT ISZERO PUSH2 0x30C6 JUMPI PUSH1 0x0 DUP1 REVERT JUMPDEST DUP2 CALLDATALOAD PUSH1 0x1 PUSH1 0x1 PUSH1 0xE0 SHL SUB NOT DUP2 AND DUP2 EQ PUSH2 0x9E8 JUMPI PUSH1 0x0 DUP1 REVERT JUMPDEST DUP1 CALLDATALOAD PUSH1 0x1 PUSH1 0x1 PUSH1 0xA0 SHL SUB DUP2 AND DUP2 EQ PUSH2 0xE57 JUMPI PUSH1 0x0 DUP1 REVERT JUMPDEST PUSH1 0x0 PUSH1 0x20 DUP3 DUP5 SUB SLT ISZERO PUSH2 0x3107 JUMPI PUSH1 0x0 DUP1 REVERT JUMPDEST PUSH2 0x9E8 DUP3 PUSH2 0x30DE JUMP JUMPDEST PUSH1 0x0 PUSH1 0x20 DUP3 DUP5 SUB SLT ISZERO PUSH2 0x3122 JUMPI PUSH1 0x0 DUP1 REVERT JUMPDEST POP CALLDATALOAD SWAP2 SWAP1 POP JUMP JUMPDEST PUSH1 0x0 DUP1 PUSH1 0x40 DUP4 DUP6 SUB SLT ISZERO PUSH2 0x313C JUMPI PUSH1 0x0 DUP1 REVERT JUMPDEST PUSH2 0x3145 DUP4 PUSH2 0x30DE JUMP JUMPDEST SWAP5 PUSH1 0x20 SWAP4 SWAP1 SWAP4 ADD CALLDATALOAD SWAP4 POP POP POP JUMP JUMPDEST PUSH1 0x0 DUP1 PUSH1 0x40 DUP4 DUP6 SUB SLT ISZERO PUSH2 0x3166 JUMPI PUSH1 0x0 DUP1 REVERT JUMPDEST POP POP DUP1 CALLDATALOAD SWAP3 PUSH1 0x20 SWAP1 SWAP2 ADD CALLDATALOAD SWAP2 POP JUMP JUMPDEST PUSH4 0x4E487B71 PUSH1 0xE0 SHL PUSH1 0x0 MSTORE PUSH1 0x41 PUSH1 0x4 MSTORE PUSH1 0x24 PUSH1 0x0 REVERT JUMPDEST PUSH1 0x40 MLOAD PUSH1 0x1F DUP3 ADD PUSH1 0x1F NOT AND DUP2 ADD PUSH8 0xFFFFFFFFFFFFFFFF DUP2 GT DUP3 DUP3 LT OR ISZERO PUSH2 0x31B4 JUMPI PUSH2 0x31B4 PUSH2 0x3175 JUMP JUMPDEST PUSH1 0x40 MSTORE SWAP2 SWAP1 POP JUMP JUMPDEST PUSH1 0x0 DUP3 PUSH1 0x1F DUP4 ADD SLT PUSH2 0x31CD JUMPI PUSH1 0x0 DUP1 REVERT JUMPDEST DUP2 CALLDATALOAD PUSH1 0x20 PUSH8 0xFFFFFFFFFFFFFFFF DUP3 GT ISZERO PUSH2 0x31E9 JUMPI PUSH2 0x31E9 PUSH2 0x3175 JUMP JUMPDEST DUP2 PUSH1 0x5 SHL PUSH2 0x31F8 DUP3 DUP3 ADD PUSH2 0x318B JUMP JUMPDEST SWAP3 DUP4 MSTORE DUP5 DUP2 ADD DUP3 ADD SWAP3 DUP3 DUP2 ADD SWAP1 DUP8 DUP6 GT ISZERO PUSH2 0x3212 JUMPI PUSH1 0x0 DUP1 REVERT JUMPDEST DUP4 DUP8 ADD SWAP3 POP JUMPDEST DUP5 DUP4 LT ISZERO PUSH2 0x3231 JUMPI DUP3 CALLDATALOAD DUP3 MSTORE SWAP2 DUP4 ADD SWAP2 SWAP1 DUP4 ADD SWAP1 PUSH2 0x3218 JUMP JUMPDEST SWAP8 SWAP7 POP POP POP POP POP POP POP JUMP JUMPDEST PUSH1 0x0 DUP3 PUSH1 0x1F DUP4 ADD SLT PUSH2 0x324D JUMPI PUSH1 0x0 DUP1 REVERT JUMPDEST DUP2 CALLDATALOAD PUSH8 0xFFFFFFFFFFFFFFFF DUP2 GT ISZERO PUSH2 0x3267 JUMPI PUSH2 0x3267 PUSH2 0x3175 JUMP JUMPDEST PUSH2 0x327A PUSH1 0x1F DUP3 ADD PUSH1 0x1F NOT AND PUSH1 0x20 ADD PUSH2 0x318B JUMP JUMPDEST DUP2 DUP2 MSTORE DUP5 PUSH1 0x20 DUP4 DUP7 ADD ADD GT ISZERO PUSH2 0x328F JUMPI PUSH1 0x0 DUP1 REVERT JUMPDEST DUP2 PUSH1 0x20 DUP6 ADD PUSH1 0x20 DUP4 ADD CALLDATACOPY PUSH1 0x0 SWAP2 DUP2 ADD PUSH1 0x20 ADD SWAP2 SWAP1 SWAP2 MSTORE SWAP4 SWAP3 POP POP POP JUMP JUMPDEST PUSH1 0x0 DUP1 PUSH1 0x0 DUP1 PUSH1 0x0 PUSH1 0xA0 DUP7 DUP9 SUB SLT ISZERO PUSH2 0x32C4 JUMPI PUSH1 0x0 DUP1 REVERT JUMPDEST PUSH2 0x32CD DUP7 PUSH2 0x30DE JUMP JUMPDEST SWAP5 POP PUSH2 0x32DB PUSH1 0x20 DUP8 ADD PUSH2 0x30DE JUMP JUMPDEST SWAP4 POP PUSH1 0x40 DUP7 ADD CALLDATALOAD PUSH8 0xFFFFFFFFFFFFFFFF DUP1 DUP3 GT ISZERO PUSH2 0x32F8 JUMPI PUSH1 0x0 DUP1 REVERT JUMPDEST PUSH2 0x3304 DUP10 DUP4 DUP11 ADD PUSH2 0x31BC JUMP JUMPDEST SWAP5 POP PUSH1 0x60 DUP9 ADD CALLDATALOAD SWAP2 POP DUP1 DUP3 GT ISZERO PUSH2 0x331A JUMPI PUSH1 0x0 DUP1 REVERT JUMPDEST PUSH2 0x3326 DUP10 DUP4 DUP11 ADD PUSH2 0x31BC JUMP JUMPDEST SWAP4 POP PUSH1 0x80 DUP9 ADD CALLDATALOAD SWAP2 POP DUP1 DUP3 GT ISZERO PUSH2 0x333C JUMPI PUSH1 0x0 DUP1 REVERT JUMPDEST POP PUSH2 0x3349 DUP9 DUP3 DUP10 ADD PUSH2 0x323C JUMP JUMPDEST SWAP2 POP POP SWAP3 SWAP6 POP SWAP3 SWAP6 SWAP1 SWAP4 POP JUMP JUMPDEST PUSH1 0x20 DUP1 DUP3 MSTORE DUP3 MLOAD DUP3 DUP3 ADD DUP2 SWAP1 MSTORE PUSH1 0x0 SWAP2 SWAP1 DUP5 DUP3 ADD SWAP1 PUSH1 0x40 DUP6 ADD SWAP1 DUP5 JUMPDEST DUP2 DUP2 LT ISZERO PUSH2 0x338E JUMPI DUP4 MLOAD DUP4 MSTORE SWAP3 DUP5 ADD SWAP3 SWAP2 DUP5 ADD SWAP2 PUSH1 0x1 ADD PUSH2 0x3372 JUMP JUMPDEST POP SWAP1 SWAP7 SWAP6 POP POP POP POP POP POP JUMP JUMPDEST DUP1 ISZERO ISZERO DUP2 EQ PUSH2 0x2B32 JUMPI PUSH1 0x0 DUP1 REVERT JUMPDEST PUSH1 0x0 DUP1 PUSH1 0x0 PUSH1 0x60 DUP5 DUP7 SUB SLT ISZERO PUSH2 0x33BD JUMPI PUSH1 0x0 DUP1 REVERT JUMPDEST DUP4 CALLDATALOAD SWAP3 POP PUSH1 0x20 DUP5 ADD CALLDATALOAD PUSH2 0x33CF DUP2 PUSH2 0x339A JUMP JUMPDEST SWAP3 SWAP6 SWAP3 SWAP5 POP POP POP PUSH1 0x40 SWAP2 SWAP1 SWAP2 ADD CALLDATALOAD SWAP1 JUMP JUMPDEST PUSH1 0x0 DUP1 PUSH1 0x0 DUP1 PUSH1 0x0 PUSH1 0xA0 DUP7 DUP9 SUB SLT ISZERO PUSH2 0x33F8 JUMPI PUSH1 0x0 DUP1 REVERT JUMPDEST PUSH2 0x3401 DUP7 PUSH2 0x30DE JUMP JUMPDEST SWAP5 POP PUSH2 0x340F PUSH1 0x20 DUP8 ADD PUSH2 0x30DE JUMP JUMPDEST SWAP4 POP PUSH1 0x40 DUP7 ADD CALLDATALOAD SWAP3 POP PUSH1 0x60 DUP7 ADD CALLDATALOAD SWAP2 POP PUSH1 0x80 DUP7 ADD CALLDATALOAD PUSH8 0xFFFFFFFFFFFFFFFF DUP2 GT ISZERO PUSH2 0x3439 JUMPI PUSH1 0x0 DUP1 REVERT JUMPDEST PUSH2 0x3349 DUP9 DUP3 DUP10 ADD PUSH2 0x323C JUMP JUMPDEST PUSH4 0x4E487B71 PUSH1 0xE0 SHL PUSH1 0x0 MSTORE PUSH1 0x11 PUSH1 0x4 MSTORE PUSH1 0x24 PUSH1 0x0 REVERT JUMPDEST DUP1 DUP3 ADD DUP1 DUP3 GT ISZERO PUSH2 0xF51 JUMPI PUSH2 0xF51 PUSH2 0x3445 JUMP JUMPDEST PUSH1 0x0 PUSH1 0x20 DUP3 DUP5 SUB SLT ISZERO PUSH2 0x3480 JUMPI PUSH1 0x0 DUP1 REVERT JUMPDEST POP MLOAD SWAP2 SWAP1 POP JUMP JUMPDEST DUP1 DUP3 MUL DUP2 ISZERO DUP3 DUP3 DIV DUP5 EQ OR PUSH2 0xF51 JUMPI PUSH2 0xF51 PUSH2 0x3445 JUMP JUMPDEST PUSH1 0x0 PUSH1 0x20 DUP3 DUP5 SUB SLT ISZERO PUSH2 0x34B0 JUMPI PUSH1 0x0 DUP1 REVERT JUMPDEST DUP2 MLOAD PUSH2 0x9E8 DUP2 PUSH2 0x339A JUMP JUMPDEST PUSH4 0x4E487B71 PUSH1 0xE0 SHL PUSH1 0x0 MSTORE PUSH1 0x12 PUSH1 0x4 MSTORE PUSH1 0x24 PUSH1 0x0 REVERT JUMPDEST PUSH1 0x0 DUP3 PUSH2 0x34EE JUMPI PUSH4 0x4E487B71 PUSH1 0xE0 SHL PUSH1 0x0 MSTORE PUSH1 0x12 PUSH1 0x4 MSTORE PUSH1 0x24 PUSH1 0x0 REVERT JUMPDEST POP DIV SWAP1 JUMP JUMPDEST DUP2 DUP2 SUB DUP2 DUP2 GT ISZERO PUSH2 0xF51 JUMPI PUSH2 0xF51 PUSH2 0x3445 JUMP JUMPDEST PUSH1 0xFF DUP2 DUP2 AND DUP4 DUP3 AND ADD SWAP1 DUP2 GT ISZERO PUSH2 0xF51 JUMPI PUSH2 0xF51 PUSH2 0x3445 JUMP JUMPDEST PUSH1 0xFF DUP3 DUP2 AND DUP3 DUP3 AND SUB SWAP1 DUP2 GT ISZERO PUSH2 0xF51 JUMPI PUSH2 0xF51 PUSH2 0x3445 JUMP JUMPDEST PUSH4 0x4E487B71 PUSH1 0xE0 SHL PUSH1 0x0 MSTORE PUSH1 0x32 PUSH1 0x4 MSTORE PUSH1 0x24 PUSH1 0x0 REVERT JUMPDEST PUSH4 0x4E487B71 PUSH1 0xE0 SHL PUSH1 0x0 MSTORE PUSH1 0x31 PUSH1 0x4 MSTORE PUSH1 0x24 PUSH1 0x0 REVERT INVALID LOG2 PUSH5 0x6970667358 0x22 SLT KECCAK256 PUSH25 0xB9F960F5AB0C10587666F2090338E83A11B0EA3E381511387F 0xD3 0xB4 GASLIMIT STOP POP CALLDATALOAD PUSH5 0x736F6C6343 STOP ADDMOD AND STOP CALLER "},"methodIdentifiers":{"amountVeriPerUserPurged()":"f4180e09","articleNFTBuyInEther()":"9ea8931a","articleNFTMintInVeri()":"577abe8d","articles(uint256)":"edcfafe6","authors(address)":"bf9c5001","buyArticleNFT(uint256,uint256)":"5b3e8437","claimReward(uint256)":"ae169a50","computeMaximumBoost(address)":"0e92e864","computePublishPrice(address)":"0b60b31f","computeVotePrice(address)":"f1fddbae","contractArticleNFT()":"897fdff0","contractVeriToken()":"d5fef231","endWeightVote()":"65f4aded","etherPublishPrice()":"4fd13391","etherVotePrice()":"fe4b899e","eventIdToArticleId(bytes32)":"a9c659e4","getAuthorArticlesPublished(address)":"c71acbe6","getAuthorReputation(address)":"d1003811","getReaderArticlesVoted(address)":"d5ad4776","getReaderReputation(address)":"e148c81d","isAuthor(address)":"d4b12530","isBestArticle(uint256)":"b24c16f2","isBestAuthor(address)":"bb33b998","isValidClaimer(address,uint256)":"4992391b","isValidVoter(address,uint256)":"f78ba710","isVoteClosed(uint256)":"1c08bc05","isVoteOpen(uint256)":"745101dc","maximumBlockDelta()":"2a0ca5da","minimumBlockDelta()":"0140e93e","mintArticleNFT(uint256,uint256)":"88c7c707","multiplierVeriPerEther()":"9efbf501","nostrAccountToEthereumAccount(bytes32)":"0de26ef5","onERC1155BatchReceived(address,address,uint256[],uint256[],bytes)":"bc197c81","onERC1155Received(address,address,uint256,uint256,bytes)":"f23a6e61","publishArticle(bytes32)":"4165c2fa","registerAuthor(bytes32,bytes32)":"6d7c55f5","supportsInterface(bytes4)":"01ffc9a7","totalArticles()":"bef2e1ee","vote(uint256,bool,uint256)":"d46a5d7e"}}}}}