{
  "_format": "hh-sol-artifact-1",
  "contractName": "ArticleNFT",
  "sourceName": "contracts/ArticleNFT.sol",
  "abi": [
    {
      "inputs": [
        {
          "internalType": "address",
          "name": "initialOwner",
          "type": "address"
        }
      ],
      "stateMutability": "nonpayable",
      "type": "constructor"
    },
    {
      "inputs": [
        {
          "internalType": "address",
          "name": "sender",
          "type": "address"
        },
        {
          "internalType": "uint256",
          "name": "balance",
          "type": "uint256"
        },
        {
          "internalType": "uint256",
          "name": "needed",
          "type": "uint256"
        },
        {
          "internalType": "uint256",
          "name": "tokenId",
          "type": "uint256"
        }
      ],
      "name": "ERC1155InsufficientBalance",
      "type": "error"
    },
    {
      "inputs": [
        {
          "internalType": "address",
          "name": "approver",
          "type": "address"
        }
      ],
      "name": "ERC1155InvalidApprover",
      "type": "error"
    },
    {
      "inputs": [
        {
          "internalType": "uint256",
          "name": "idsLength",
          "type": "uint256"
        },
        {
          "internalType": "uint256",
          "name": "valuesLength",
          "type": "uint256"
        }
      ],
      "name": "ERC1155InvalidArrayLength",
      "type": "error"
    },
    {
      "inputs": [
        {
          "internalType": "address",
          "name": "operator",
          "type": "address"
        }
      ],
      "name": "ERC1155InvalidOperator",
      "type": "error"
    },
    {
      "inputs": [
        {
          "internalType": "address",
          "name": "receiver",
          "type": "address"
        }
      ],
      "name": "ERC1155InvalidReceiver",
      "type": "error"
    },
    {
      "inputs": [
        {
          "internalType": "address",
          "name": "sender",
          "type": "address"
        }
      ],
      "name": "ERC1155InvalidSender",
      "type": "error"
    },
    {
      "inputs": [
        {
          "internalType": "address",
          "name": "operator",
          "type": "address"
        },
        {
          "internalType": "address",
          "name": "owner",
          "type": "address"
        }
      ],
      "name": "ERC1155MissingApprovalForAll",
      "type": "error"
    },
    {
      "inputs": [
        {
          "internalType": "address",
          "name": "owner",
          "type": "address"
        }
      ],
      "name": "OwnableInvalidOwner",
      "type": "error"
    },
    {
      "inputs": [
        {
          "internalType": "address",
          "name": "account",
          "type": "address"
        }
      ],
      "name": "OwnableUnauthorizedAccount",
      "type": "error"
    },
    {
      "anonymous": false,
      "inputs": [
        {
          "indexed": true,
          "internalType": "address",
          "name": "account",
          "type": "address"
        },
        {
          "indexed": true,
          "internalType": "address",
          "name": "operator",
          "type": "address"
        },
        {
          "indexed": false,
          "internalType": "bool",
          "name": "approved",
          "type": "bool"
        }
      ],
      "name": "ApprovalForAll",
      "type": "event"
    },
    {
      "anonymous": false,
      "inputs": [
        {
          "indexed": true,
          "internalType": "address",
          "name": "previousOwner",
          "type": "address"
        },
        {
          "indexed": true,
          "internalType": "address",
          "name": "newOwner",
          "type": "address"
        }
      ],
      "name": "OwnershipTransferred",
      "type": "event"
    },
    {
      "anonymous": false,
      "inputs": [
        {
          "indexed": true,
          "internalType": "address",
          "name": "operator",
          "type": "address"
        },
        {
          "indexed": true,
          "internalType": "address",
          "name": "from",
          "type": "address"
        },
        {
          "indexed": true,
          "internalType": "address",
          "name": "to",
          "type": "address"
        },
        {
          "indexed": false,
          "internalType": "uint256[]",
          "name": "ids",
          "type": "uint256[]"
        },
        {
          "indexed": false,
          "internalType": "uint256[]",
          "name": "values",
          "type": "uint256[]"
        }
      ],
      "name": "TransferBatch",
      "type": "event"
    },
    {
      "anonymous": false,
      "inputs": [
        {
          "indexed": true,
          "internalType": "address",
          "name": "operator",
          "type": "address"
        },
        {
          "indexed": true,
          "internalType": "address",
          "name": "from",
          "type": "address"
        },
        {
          "indexed": true,
          "internalType": "address",
          "name": "to",
          "type": "address"
        },
        {
          "indexed": false,
          "internalType": "uint256",
          "name": "id",
          "type": "uint256"
        },
        {
          "indexed": false,
          "internalType": "uint256",
          "name": "value",
          "type": "uint256"
        }
      ],
      "name": "TransferSingle",
      "type": "event"
    },
    {
      "anonymous": false,
      "inputs": [
        {
          "indexed": false,
          "internalType": "string",
          "name": "value",
          "type": "string"
        },
        {
          "indexed": true,
          "internalType": "uint256",
          "name": "id",
          "type": "uint256"
        }
      ],
      "name": "URI",
      "type": "event"
    },
    {
      "inputs": [
        {
          "internalType": "address",
          "name": "account",
          "type": "address"
        },
        {
          "internalType": "uint256",
          "name": "id",
          "type": "uint256"
        }
      ],
      "name": "balanceOf",
      "outputs": [
        {
          "internalType": "uint256",
          "name": "",
          "type": "uint256"
        }
      ],
      "stateMutability": "view",
      "type": "function"
    },
    {
      "inputs": [
        {
          "internalType": "address[]",
          "name": "accounts",
          "type": "address[]"
        },
        {
          "internalType": "uint256[]",
          "name": "ids",
          "type": "uint256[]"
        }
      ],
      "name": "balanceOfBatch",
      "outputs": [
        {
          "internalType": "uint256[]",
          "name": "",
          "type": "uint256[]"
        }
      ],
      "stateMutability": "view",
      "type": "function"
    },
    {
      "inputs": [
        {
          "internalType": "address",
          "name": "account",
          "type": "address"
        },
        {
          "internalType": "uint256",
          "name": "id",
          "type": "uint256"
        },
        {
          "internalType": "uint256",
          "name": "value",
          "type": "uint256"
        }
      ],
      "name": "burn",
      "outputs": [],
      "stateMutability": "nonpayable",
      "type": "function"
    },
    {
      "inputs": [
        {
          "internalType": "address",
          "name": "account",
          "type": "address"
        },
        {
          "internalType": "uint256[]",
          "name": "ids",
          "type": "uint256[]"
        },
        {
          "internalType": "uint256[]",
          "name": "values",
          "type": "uint256[]"
        }
      ],
      "name": "burnBatch",
      "outputs": [],
      "stateMutability": "nonpayable",
      "type": "function"
    },
    {
      "inputs": [
        {
          "internalType": "uint256",
          "name": "id",
          "type": "uint256"
        }
      ],
      "name": "exists",
      "outputs": [
        {
          "internalType": "bool",
          "name": "",
          "type": "bool"
        }
      ],
      "stateMutability": "view",
      "type": "function"
    },
    {
      "inputs": [
        {
          "internalType": "address",
          "name": "account",
          "type": "address"
        },
        {
          "internalType": "address",
          "name": "operator",
          "type": "address"
        }
      ],
      "name": "isApprovedForAll",
      "outputs": [
        {
          "internalType": "bool",
          "name": "",
          "type": "bool"
        }
      ],
      "stateMutability": "view",
      "type": "function"
    },
    {
      "inputs": [
        {
          "internalType": "address",
          "name": "account",
          "type": "address"
        },
        {
          "internalType": "uint256",
          "name": "id",
          "type": "uint256"
        },
        {
          "internalType": "uint256",
          "name": "amount",
          "type": "uint256"
        },
        {
          "internalType": "bytes",
          "name": "data",
          "type": "bytes"
        }
      ],
      "name": "mint",
      "outputs": [],
      "stateMutability": "nonpayable",
      "type": "function"
    },
    {
      "inputs": [
        {
          "internalType": "address",
          "name": "to",
          "type": "address"
        },
        {
          "internalType": "uint256[]",
          "name": "ids",
          "type": "uint256[]"
        },
        {
          "internalType": "uint256[]",
          "name": "amounts",
          "type": "uint256[]"
        },
        {
          "internalType": "bytes",
          "name": "data",
          "type": "bytes"
        }
      ],
      "name": "mintBatch",
      "outputs": [],
      "stateMutability": "nonpayable",
      "type": "function"
    },
    {
      "inputs": [],
      "name": "owner",
      "outputs": [
        {
          "internalType": "address",
          "name": "",
          "type": "address"
        }
      ],
      "stateMutability": "view",
      "type": "function"
    },
    {
      "inputs": [],
      "name": "renounceOwnership",
      "outputs": [],
      "stateMutability": "nonpayable",
      "type": "function"
    },
    {
      "inputs": [
        {
          "internalType": "address",
          "name": "from",
          "type": "address"
        },
        {
          "internalType": "address",
          "name": "to",
          "type": "address"
        },
        {
          "internalType": "uint256[]",
          "name": "ids",
          "type": "uint256[]"
        },
        {
          "internalType": "uint256[]",
          "name": "values",
          "type": "uint256[]"
        },
        {
          "internalType": "bytes",
          "name": "data",
          "type": "bytes"
        }
      ],
      "name": "safeBatchTransferFrom",
      "outputs": [],
      "stateMutability": "nonpayable",
      "type": "function"
    },
    {
      "inputs": [
        {
          "internalType": "address",
          "name": "from",
          "type": "address"
        },
        {
          "internalType": "address",
          "name": "to",
          "type": "address"
        },
        {
          "internalType": "uint256",
          "name": "id",
          "type": "uint256"
        },
        {
          "internalType": "uint256",
          "name": "value",
          "type": "uint256"
        },
        {
          "internalType": "bytes",
          "name": "data",
          "type": "bytes"
        }
      ],
      "name": "safeTransferFrom",
      "outputs": [],
      "stateMutability": "nonpayable",
      "type": "function"
    },
    {
      "inputs": [
        {
          "internalType": "address",
          "name": "operator",
          "type": "address"
        },
        {
          "internalType": "bool",
          "name": "approved",
          "type": "bool"
        }
      ],
      "name": "setApprovalForAll",
      "outputs": [],
      "stateMutability": "nonpayable",
      "type": "function"
    },
    {
      "inputs": [
        {
          "internalType": "bytes4",
          "name": "interfaceId",
          "type": "bytes4"
        }
      ],
      "name": "supportsInterface",
      "outputs": [
        {
          "internalType": "bool",
          "name": "",
          "type": "bool"
        }
      ],
      "stateMutability": "view",
      "type": "function"
    },
    {
      "inputs": [],
      "name": "totalSupply",
      "outputs": [
        {
          "internalType": "uint256",
          "name": "",
          "type": "uint256"
        }
      ],
      "stateMutability": "view",
      "type": "function"
    },
    {
      "inputs": [
        {
          "internalType": "uint256",
          "name": "id",
          "type": "uint256"
        }
      ],
      "name": "totalSupply",
      "outputs": [
        {
          "internalType": "uint256",
          "name": "",
          "type": "uint256"
        }
      ],
      "stateMutability": "view",
      "type": "function"
    },
    {
      "inputs": [
        {
          "internalType": "address",
          "name": "newOwner",
          "type": "address"
        }
      ],
      "name": "transferOwnership",
      "outputs": [],
      "stateMutability": "nonpayable",
      "type": "function"
    },
    {
      "inputs": [
        {
          "internalType": "uint256",
          "name": "",
          "type": "uint256"
        }
      ],
      "name": "uri",
      "outputs": [
        {
          "internalType": "string",
          "name": "",
          "type": "string"
        }
      ],
      "stateMutability": "view",
      "type": "function"
    }
  ],
  "bytecode": "0x60806040523480156200001157600080fd5b5060405162001ae538038062001ae5833981016040819052620000349162000101565b806040518060800160405280605a815260200162001a8b605a91396200005a816200009d565b506001600160a01b0381166200008a57604051631e4fbdf760e01b81526000600482015260240160405180910390fd5b6200009581620000af565b5050620002a6565b6002620000ab8282620001da565b5050565b600380546001600160a01b038381166001600160a01b0319831681179093556040519116919082907f8be0079c531659141344cd1fd0a4f28419497f9722a3daafe3b4186f6b6457e090600090a35050565b6000602082840312156200011457600080fd5b81516001600160a01b03811681146200012c57600080fd5b9392505050565b634e487b7160e01b600052604160045260246000fd5b600181811c908216806200015e57607f821691505b6020821081036200017f57634e487b7160e01b600052602260045260246000fd5b50919050565b601f821115620001d5576000816000526020600020601f850160051c81016020861015620001b05750805b601f850160051c820191505b81811015620001d157828155600101620001bc565b5050505b505050565b81516001600160401b03811115620001f657620001f662000133565b6200020e8162000207845462000149565b8462000185565b602080601f8311600181146200024657600084156200022d5750858301515b600019600386901b1c1916600185901b178555620001d1565b600085815260208120601f198616915b82811015620002775788860151825594840194600190910190840162000256565b5085821015620002965787850151600019600388901b60f8161c191681555b5050505050600190811b01905550565b6117d580620002b66000396000f3fe608060405234801561001057600080fd5b50600436106101155760003560e01c8063715018a6116100a2578063bd85b03911610071578063bd85b03914610251578063e985e9c514610271578063f242432a14610284578063f2fde38b14610297578063f5298aca146102aa57600080fd5b8063715018a614610208578063731133e9146102105780638da5cb5b14610223578063a22cb4651461023e57600080fd5b80631f7fdffa116100e95780631f7fdffa1461018b5780632eb2c2d6146101a05780634e1273f4146101b35780634f558e79146101d35780636b20c454146101f557600080fd5b8062fdd58e1461011a57806301ffc9a7146101405780630e89341c1461016357806318160ddd14610183575b600080fd5b61012d610128366004610fe3565b6102bd565b6040519081526020015b60405180910390f35b61015361014e366004611023565b6102e5565b6040519015158152602001610137565b610176610171366004611047565b610335565b60405161013791906110a6565b60055461012d565b61019e610199366004611203565b6103c9565b005b61019e6101ae36600461129c565b6103e3565b6101c66101c1366004611346565b61044f565b6040516101379190611442565b6101536101e1366004611047565b600090815260046020526040902054151590565b61019e610203366004611455565b61051c565b61019e610580565b61019e61021e3660046114c9565b610594565b6003546040516001600160a01b039091168152602001610137565b61019e61024c36600461151e565b6105a8565b61012d61025f366004611047565b60009081526004602052604090205490565b61015361027f36600461155a565b6105b7565b61019e61029236600461158d565b6105e5565b61019e6102a53660046115f2565b610644565b61019e6102b836600461160d565b610682565b6000818152602081815260408083206001600160a01b03861684529091529020545b92915050565b60006001600160e01b03198216636cdb3d1360e11b148061031657506001600160e01b031982166303a24d0760e21b145b806102df57506301ffc9a760e01b6001600160e01b03198316146102df565b60606002805461034490611640565b80601f016020809104026020016040519081016040528092919081815260200182805461037090611640565b80156103bd5780601f10610392576101008083540402835291602001916103bd565b820191906000526020600020905b8154815290600101906020018083116103a057829003601f168201915b50505050509050919050565b6103d16106b8565b6103dd848484846106e5565b50505050565b336001600160a01b0386168114801590610404575061040286826105b7565b155b1561043a5760405163711bec9160e11b81526001600160a01b038083166004830152871660248201526044015b60405180910390fd5b610447868686868661071d565b505050505050565b606081518351146104805781518351604051635b05999160e01b815260048101929092526024820152604401610431565b6000835167ffffffffffffffff81111561049c5761049c6110b9565b6040519080825280602002602001820160405280156104c5578160200160208202803683370190505b50905060005b8451811015610514576020808202860101516104ef906020808402870101516102bd565b8282815181106105015761050161167a565b60209081029190910101526001016104cb565b509392505050565b6001600160a01b038316331480159061053c575061053a83336105b7565b155b1561057057335b60405163711bec9160e11b81526001600160a01b0391821660048201529084166024820152604401610431565b61057b838383610784565b505050565b6105886106b8565b61059260006107ca565b565b61059c6106b8565b6103dd8484848461081c565b6105b3338383610879565b5050565b6001600160a01b03918216600090815260016020908152604080832093909416825291909152205460ff1690565b336001600160a01b0386168114801590610606575061060486826105b7565b155b156106375760405163711bec9160e11b81526001600160a01b03808316600483015287166024820152604401610431565b610447868686868661090f565b61064c6106b8565b6001600160a01b03811661067657604051631e4fbdf760e01b815260006004820152602401610431565b61067f816107ca565b50565b6001600160a01b03831633148015906106a257506106a083336105b7565b155b156106ad5733610543565b61057b83838361099d565b6003546001600160a01b031633146105925760405163118cdaa760e01b8152336004820152602401610431565b6001600160a01b03841661070f57604051632bfa23e760e11b815260006004820152602401610431565b6103dd600085858585610a01565b6001600160a01b03841661074757604051632bfa23e760e11b815260006004820152602401610431565b6001600160a01b03851661077057604051626a0d4560e21b815260006004820152602401610431565b61077d8585858585610a01565b5050505050565b6001600160a01b0383166107ad57604051626a0d4560e21b815260006004820152602401610431565b61057b836000848460405180602001604052806000815250610a01565b600380546001600160a01b038381166001600160a01b0319831681179093556040519116919082907f8be0079c531659141344cd1fd0a4f28419497f9722a3daafe3b4186f6b6457e090600090a35050565b6001600160a01b03841661084657604051632bfa23e760e11b815260006004820152602401610431565b60408051600180825260208201869052818301908152606082018590526080820190925290610447600087848487610a01565b6001600160a01b0382166108a25760405162ced3e160e81b815260006004820152602401610431565b6001600160a01b03838116600081815260016020908152604080832094871680845294825291829020805460ff191686151590811790915591519182527f17307eab39ab6107e8899845ad3d59bd9653f200f220920489ca2b5937696c31910160405180910390a3505050565b6001600160a01b03841661093957604051632bfa23e760e11b815260006004820152602401610431565b6001600160a01b03851661096257604051626a0d4560e21b815260006004820152602401610431565b604080516001808252602082018690528183019081526060820185905260808201909252906109948787848487610a01565b50505050505050565b6001600160a01b0383166109c657604051626a0d4560e21b815260006004820152602401610431565b604080516001808252602082018590528183019081526060820184905260a0820190925260006080820181815291929161077d918791859085905b610a0d85858585610a54565b6001600160a01b0384161561077d5782513390600103610a465760208481015190840151610a3f838989858589610a60565b5050610447565b610447818787878787610b84565b6103dd84848484610c6d565b6001600160a01b0384163b156104475760405163f23a6e6160e01b81526001600160a01b0385169063f23a6e6190610aa49089908990889088908890600401611690565b6020604051808303816000875af1925050508015610adf575060408051601f3d908101601f19168201909252610adc918101906116d5565b60015b610b48573d808015610b0d576040519150601f19603f3d011682016040523d82523d6000602084013e610b12565b606091505b508051600003610b4057604051632bfa23e760e11b81526001600160a01b0386166004820152602401610431565b805181602001fd5b6001600160e01b0319811663f23a6e6160e01b1461099457604051632bfa23e760e11b81526001600160a01b0386166004820152602401610431565b6001600160a01b0384163b156104475760405163bc197c8160e01b81526001600160a01b0385169063bc197c8190610bc890899089908890889088906004016116f2565b6020604051808303816000875af1925050508015610c03575060408051601f3d908101601f19168201909252610c00918101906116d5565b60015b610c31573d808015610b0d576040519150601f19603f3d011682016040523d82523d6000602084013e610b12565b6001600160e01b0319811663bc197c8160e01b1461099457604051632bfa23e760e11b81526001600160a01b0386166004820152602401610431565b610c7984848484610db3565b6001600160a01b038416610d23576000805b8351811015610d09576000838281518110610ca857610ca861167a565b602002602001015190508060046000878581518110610cc957610cc961167a565b602002602001015181526020019081526020016000206000828254610cee9190611750565b90915550610cfe90508184611750565b925050600101610c8b565b508060056000828254610d1c9190611750565b9091555050505b6001600160a01b0383166103dd576000805b8351811015610da2576000838281518110610d5257610d5261167a565b602002602001015190508060046000878581518110610d7357610d7361167a565b602090810291909101810151825281019190915260400160002080549190910390559190910190600101610d35565b506005805491909103905550505050565b8051825114610de25781518151604051635b05999160e01b815260048101929092526024820152604401610431565b3360005b8351811015610ee8576020818102858101820151908501909101516001600160a01b03881615610e99576000828152602081815260408083206001600160a01b038c16845290915290205481811015610e72576040516303dee4c560e01b81526001600160a01b038a166004820152602481018290526044810183905260648101849052608401610431565b6000838152602081815260408083206001600160a01b038d16845290915290209082900390555b6001600160a01b03871615610ede576000828152602081815260408083206001600160a01b038b16845290915281208054839290610ed8908490611750565b90915550505b5050600101610de6565b508251600103610f695760208301516000906020840151909150856001600160a01b0316876001600160a01b0316846001600160a01b03167fc3d58168c5ae7397731d063d5bbf3d657854427343f4c083240f7aacaa2d0f628585604051610f5a929190918252602082015260400190565b60405180910390a4505061077d565b836001600160a01b0316856001600160a01b0316826001600160a01b03167f4a39dc06d4c0dbc64b70af90fd698a233a518aa5d07e595d983b8c0526c8f7fb8686604051610fb8929190611771565b60405180910390a45050505050565b80356001600160a01b0381168114610fde57600080fd5b919050565b60008060408385031215610ff657600080fd5b610fff83610fc7565b946020939093013593505050565b6001600160e01b03198116811461067f57600080fd5b60006020828403121561103557600080fd5b81356110408161100d565b9392505050565b60006020828403121561105957600080fd5b5035919050565b6000815180845260005b818110156110865760208185018101518683018201520161106a565b506000602082860101526020601f19601f83011685010191505092915050565b6020815260006110406020830184611060565b634e487b7160e01b600052604160045260246000fd5b604051601f8201601f1916810167ffffffffffffffff811182821017156110f8576110f86110b9565b604052919050565b600067ffffffffffffffff82111561111a5761111a6110b9565b5060051b60200190565b600082601f83011261113557600080fd5b8135602061114a61114583611100565b6110cf565b8083825260208201915060208460051b87010193508684111561116c57600080fd5b602086015b848110156111885780358352918301918301611171565b509695505050505050565b600082601f8301126111a457600080fd5b813567ffffffffffffffff8111156111be576111be6110b9565b6111d1601f8201601f19166020016110cf565b8181528460208386010111156111e657600080fd5b816020850160208301376000918101602001919091529392505050565b6000806000806080858703121561121957600080fd5b61122285610fc7565b9350602085013567ffffffffffffffff8082111561123f57600080fd5b61124b88838901611124565b9450604087013591508082111561126157600080fd5b61126d88838901611124565b9350606087013591508082111561128357600080fd5b5061129087828801611193565b91505092959194509250565b600080600080600060a086880312156112b457600080fd5b6112bd86610fc7565b94506112cb60208701610fc7565b9350604086013567ffffffffffffffff808211156112e857600080fd5b6112f489838a01611124565b9450606088013591508082111561130a57600080fd5b61131689838a01611124565b9350608088013591508082111561132c57600080fd5b5061133988828901611193565b9150509295509295909350565b6000806040838503121561135957600080fd5b823567ffffffffffffffff8082111561137157600080fd5b818501915085601f83011261138557600080fd5b8135602061139561114583611100565b82815260059290921b840181019181810190898411156113b457600080fd5b948201945b838610156113d9576113ca86610fc7565b825294820194908201906113b9565b965050860135925050808211156113ef57600080fd5b506113fc85828601611124565b9150509250929050565b60008151808452602080850194506020840160005b838110156114375781518752958201959082019060010161141b565b509495945050505050565b6020815260006110406020830184611406565b60008060006060848603121561146a57600080fd5b61147384610fc7565b9250602084013567ffffffffffffffff8082111561149057600080fd5b61149c87838801611124565b935060408601359150808211156114b257600080fd5b506114bf86828701611124565b9150509250925092565b600080600080608085870312156114df57600080fd5b6114e885610fc7565b93506020850135925060408501359150606085013567ffffffffffffffff81111561151257600080fd5b61129087828801611193565b6000806040838503121561153157600080fd5b61153a83610fc7565b91506020830135801515811461154f57600080fd5b809150509250929050565b6000806040838503121561156d57600080fd5b61157683610fc7565b915061158460208401610fc7565b90509250929050565b600080600080600060a086880312156115a557600080fd5b6115ae86610fc7565b94506115bc60208701610fc7565b93506040860135925060608601359150608086013567ffffffffffffffff8111156115e657600080fd5b61133988828901611193565b60006020828403121561160457600080fd5b61104082610fc7565b60008060006060848603121561162257600080fd5b61162b84610fc7565b95602085013595506040909401359392505050565b600181811c9082168061165457607f821691505b60208210810361167457634e487b7160e01b600052602260045260246000fd5b50919050565b634e487b7160e01b600052603260045260246000fd5b6001600160a01b03868116825285166020820152604081018490526060810183905260a0608082018190526000906116ca90830184611060565b979650505050505050565b6000602082840312156116e757600080fd5b81516110408161100d565b6001600160a01b0386811682528516602082015260a06040820181905260009061171e90830186611406565b82810360608401526117308186611406565b905082810360808401526117448185611060565b98975050505050505050565b808201808211156102df57634e487b7160e01b600052601160045260246000fd5b6040815260006117846040830185611406565b82810360208401526117968185611406565b9594505050505056fea264697066735822122044c3102cdb213a19ac91d68564c676372a656f55bd1e4298f9ee1931b146004964736f6c6343000816003368747470733a2f2f697066732e696f2f697066732f516d56375334597431553471683370337361444552774d3154506e357361674767536e5536514467487031686d753f66696c656e616d653d6e66745f6c6f676f2e6a706567",
  "linkReferences": {},
  "deployedLinkReferences": {}
}