{
  "_format": "hh-sol-artifact-1",
  "contractName": "TruthHub",
  "sourceName": "contracts/TruthHub.sol",
  "abi": [
    {
      "inputs": [
        {
          "internalType": "contract VeriToken",
          "name": "veriTokenAddress",
          "type": "address"
        },
        {
          "internalType": "contract ArticleNFT",
          "name": "articleNftAddress",
          "type": "address"
        }
      ],
      "stateMutability": "nonpayable",
      "type": "constructor"
    },
    {
      "inputs": [
        {
          "internalType": "address",
          "name": "account",
          "type": "address"
        }
      ],
      "name": "AddressInsufficientBalance",
      "type": "error"
    },
    {
      "inputs": [],
      "name": "FailedInnerCall",
      "type": "error"
    },
    {
      "inputs": [],
      "name": "MathOverflowedMulDiv",
      "type": "error"
    },
    {
      "anonymous": false,
      "inputs": [
        {
          "indexed": false,
          "internalType": "address",
          "name": "_buyer",
          "type": "address"
        },
        {
          "indexed": false,
          "internalType": "uint256",
          "name": "_articleId",
          "type": "uint256"
        },
        {
          "indexed": false,
          "internalType": "uint256",
          "name": "_nftAmount",
          "type": "uint256"
        },
        {
          "indexed": false,
          "internalType": "address",
          "name": "_author",
          "type": "address"
        }
      ],
      "name": "BuyArticleNFT",
      "type": "event"
    },
    {
      "anonymous": false,
      "inputs": [
        {
          "indexed": false,
          "internalType": "address",
          "name": "_claimer",
          "type": "address"
        },
        {
          "indexed": false,
          "internalType": "uint256",
          "name": "_articleId",
          "type": "uint256"
        },
        {
          "indexed": false,
          "internalType": "uint256",
          "name": "_etherReceived",
          "type": "uint256"
        },
        {
          "indexed": false,
          "internalType": "uint256",
          "name": "_tokenReceived",
          "type": "uint256"
        }
      ],
      "name": "ClaimReward",
      "type": "event"
    },
    {
      "anonymous": false,
      "inputs": [
        {
          "indexed": false,
          "internalType": "address",
          "name": "_author",
          "type": "address"
        },
        {
          "indexed": false,
          "internalType": "uint256",
          "name": "_articleId",
          "type": "uint256"
        },
        {
          "indexed": false,
          "internalType": "uint256",
          "name": "_nftAmount",
          "type": "uint256"
        }
      ],
      "name": "MintArticleNFT",
      "type": "event"
    },
    {
      "anonymous": false,
      "inputs": [
        {
          "indexed": false,
          "internalType": "address",
          "name": "_author",
          "type": "address"
        },
        {
          "indexed": false,
          "internalType": "bytes32",
          "name": "_eventId",
          "type": "bytes32"
        },
        {
          "indexed": false,
          "internalType": "uint256",
          "name": "_authorReputation",
          "type": "uint256"
        },
        {
          "indexed": false,
          "internalType": "uint256",
          "name": "_articleId",
          "type": "uint256"
        },
        {
          "indexed": false,
          "internalType": "uint256",
          "name": "_etherSpentToPublish",
          "type": "uint256"
        },
        {
          "indexed": false,
          "internalType": "uint256",
          "name": "_minimumBlockVote",
          "type": "uint256"
        },
        {
          "indexed": false,
          "internalType": "uint256",
          "name": "_maximumBlockVote",
          "type": "uint256"
        }
      ],
      "name": "PublishArticle",
      "type": "event"
    },
    {
      "anonymous": false,
      "inputs": [
        {
          "indexed": false,
          "internalType": "address",
          "name": "_author",
          "type": "address"
        },
        {
          "indexed": false,
          "internalType": "bytes32",
          "name": "_signature",
          "type": "bytes32"
        },
        {
          "indexed": false,
          "internalType": "bytes32",
          "name": "_nostrPublicKey",
          "type": "bytes32"
        }
      ],
      "name": "RegisterAuthor",
      "type": "event"
    },
    {
      "anonymous": false,
      "inputs": [
        {
          "indexed": false,
          "internalType": "address",
          "name": "_voter",
          "type": "address"
        },
        {
          "indexed": false,
          "internalType": "uint256",
          "name": "articleId",
          "type": "uint256"
        },
        {
          "indexed": false,
          "internalType": "bool",
          "name": "_voteExpressed",
          "type": "bool"
        },
        {
          "indexed": false,
          "internalType": "uint256",
          "name": "_tokenSpentToVote",
          "type": "uint256"
        },
        {
          "indexed": false,
          "internalType": "uint256",
          "name": "_etherSpentToVote",
          "type": "uint256"
        },
        {
          "indexed": false,
          "internalType": "uint256",
          "name": "_voterReputation",
          "type": "uint256"
        }
      ],
      "name": "Vote",
      "type": "event"
    },
    {
      "inputs": [],
      "name": "amountVeriPerUserPurged",
      "outputs": [
        {
          "internalType": "uint256",
          "name": "",
          "type": "uint256"
        }
      ],
      "stateMutability": "view",
      "type": "function"
    },
    {
      "inputs": [],
      "name": "articleNFTBuyInEther",
      "outputs": [
        {
          "internalType": "uint256",
          "name": "",
          "type": "uint256"
        }
      ],
      "stateMutability": "view",
      "type": "function"
    },
    {
      "inputs": [],
      "name": "articleNFTMintInVeri",
      "outputs": [
        {
          "internalType": "uint256",
          "name": "",
          "type": "uint256"
        }
      ],
      "stateMutability": "view",
      "type": "function"
    },
    {
      "inputs": [
        {
          "internalType": "uint256",
          "name": "",
          "type": "uint256"
        }
      ],
      "name": "articles",
      "outputs": [
        {
          "internalType": "uint256",
          "name": "articleId",
          "type": "uint256"
        },
        {
          "internalType": "bytes32",
          "name": "eventId",
          "type": "bytes32"
        },
        {
          "internalType": "address",
          "name": "author",
          "type": "address"
        },
        {
          "internalType": "uint256",
          "name": "upvotes",
          "type": "uint256"
        },
        {
          "internalType": "uint256",
          "name": "downvotes",
          "type": "uint256"
        },
        {
          "internalType": "uint256",
          "name": "etherSpentToPublish",
          "type": "uint256"
        },
        {
          "internalType": "uint256",
          "name": "upvoters",
          "type": "uint256"
        },
        {
          "internalType": "uint256",
          "name": "downvoters",
          "type": "uint256"
        },
        {
          "internalType": "uint256",
          "name": "minimumBlockThreshold",
          "type": "uint256"
        },
        {
          "internalType": "uint256",
          "name": "maximumBlockThreshold",
          "type": "uint256"
        },
        {
          "internalType": "uint256",
          "name": "ethersSpentInUpvotes",
          "type": "uint256"
        },
        {
          "internalType": "uint256",
          "name": "ethersSpentInDownvotes",
          "type": "uint256"
        },
        {
          "internalType": "uint256",
          "name": "veriSpentInUpvotes",
          "type": "uint256"
        },
        {
          "internalType": "uint256",
          "name": "veriSpentInDownvotes",
          "type": "uint256"
        }
      ],
      "stateMutability": "view",
      "type": "function"
    },
    {
      "inputs": [
        {
          "internalType": "address",
          "name": "",
          "type": "address"
        }
      ],
      "name": "authors",
      "outputs": [
        {
          "internalType": "bytes32",
          "name": "",
          "type": "bytes32"
        }
      ],
      "stateMutability": "view",
      "type": "function"
    },
    {
      "inputs": [
        {
          "internalType": "uint256",
          "name": "articleId",
          "type": "uint256"
        },
        {
          "internalType": "uint256",
          "name": "nftAmount",
          "type": "uint256"
        }
      ],
      "name": "buyArticleNFT",
      "outputs": [],
      "stateMutability": "payable",
      "type": "function"
    },
    {
      "inputs": [
        {
          "internalType": "uint256",
          "name": "articleId",
          "type": "uint256"
        }
      ],
      "name": "claimReward",
      "outputs": [],
      "stateMutability": "nonpayable",
      "type": "function"
    },
    {
      "inputs": [
        {
          "internalType": "address",
          "name": "user",
          "type": "address"
        }
      ],
      "name": "computeMaximumBoost",
      "outputs": [
        {
          "internalType": "uint256",
          "name": "",
          "type": "uint256"
        }
      ],
      "stateMutability": "view",
      "type": "function"
    },
    {
      "inputs": [
        {
          "internalType": "address",
          "name": "author",
          "type": "address"
        }
      ],
      "name": "computePublishPrice",
      "outputs": [
        {
          "internalType": "uint256",
          "name": "",
          "type": "uint256"
        }
      ],
      "stateMutability": "view",
      "type": "function"
    },
    {
      "inputs": [
        {
          "internalType": "address",
          "name": "reader",
          "type": "address"
        }
      ],
      "name": "computeVotePrice",
      "outputs": [
        {
          "internalType": "uint256",
          "name": "",
          "type": "uint256"
        }
      ],
      "stateMutability": "view",
      "type": "function"
    },
    {
      "inputs": [],
      "name": "contractArticleNFT",
      "outputs": [
        {
          "internalType": "contract ArticleNFT",
          "name": "",
          "type": "address"
        }
      ],
      "stateMutability": "view",
      "type": "function"
    },
    {
      "inputs": [],
      "name": "contractVeriToken",
      "outputs": [
        {
          "internalType": "contract VeriToken",
          "name": "",
          "type": "address"
        }
      ],
      "stateMutability": "view",
      "type": "function"
    },
    {
      "inputs": [],
      "name": "endWeightVote",
      "outputs": [
        {
          "internalType": "uint256",
          "name": "",
          "type": "uint256"
        }
      ],
      "stateMutability": "view",
      "type": "function"
    },
    {
      "inputs": [],
      "name": "etherPublishPrice",
      "outputs": [
        {
          "internalType": "uint256",
          "name": "",
          "type": "uint256"
        }
      ],
      "stateMutability": "view",
      "type": "function"
    },
    {
      "inputs": [],
      "name": "etherVotePrice",
      "outputs": [
        {
          "internalType": "uint256",
          "name": "",
          "type": "uint256"
        }
      ],
      "stateMutability": "view",
      "type": "function"
    },
    {
      "inputs": [
        {
          "internalType": "bytes32",
          "name": "",
          "type": "bytes32"
        }
      ],
      "name": "eventIdToArticleId",
      "outputs": [
        {
          "internalType": "uint256",
          "name": "",
          "type": "uint256"
        }
      ],
      "stateMutability": "view",
      "type": "function"
    },
    {
      "inputs": [
        {
          "internalType": "address",
          "name": "author",
          "type": "address"
        }
      ],
      "name": "getAuthorArticlesPublished",
      "outputs": [
        {
          "internalType": "uint256[]",
          "name": "",
          "type": "uint256[]"
        }
      ],
      "stateMutability": "view",
      "type": "function"
    },
    {
      "inputs": [
        {
          "internalType": "address",
          "name": "user",
          "type": "address"
        }
      ],
      "name": "getAuthorReputation",
      "outputs": [
        {
          "internalType": "uint8",
          "name": "",
          "type": "uint8"
        }
      ],
      "stateMutability": "view",
      "type": "function"
    },
    {
      "inputs": [
        {
          "internalType": "address",
          "name": "reader",
          "type": "address"
        }
      ],
      "name": "getReaderArticlesVoted",
      "outputs": [
        {
          "internalType": "uint256[]",
          "name": "",
          "type": "uint256[]"
        }
      ],
      "stateMutability": "view",
      "type": "function"
    },
    {
      "inputs": [
        {
          "internalType": "address",
          "name": "user",
          "type": "address"
        }
      ],
      "name": "getReaderReputation",
      "outputs": [
        {
          "internalType": "uint8",
          "name": "",
          "type": "uint8"
        }
      ],
      "stateMutability": "view",
      "type": "function"
    },
    {
      "inputs": [
        {
          "internalType": "address",
          "name": "user",
          "type": "address"
        }
      ],
      "name": "isAuthor",
      "outputs": [
        {
          "internalType": "bool",
          "name": "",
          "type": "bool"
        }
      ],
      "stateMutability": "view",
      "type": "function"
    },
    {
      "inputs": [
        {
          "internalType": "uint256",
          "name": "articleId",
          "type": "uint256"
        }
      ],
      "name": "isBestArticle",
      "outputs": [
        {
          "internalType": "bool",
          "name": "",
          "type": "bool"
        }
      ],
      "stateMutability": "view",
      "type": "function"
    },
    {
      "inputs": [
        {
          "internalType": "address",
          "name": "user",
          "type": "address"
        }
      ],
      "name": "isBestAuthor",
      "outputs": [
        {
          "internalType": "bool",
          "name": "",
          "type": "bool"
        }
      ],
      "stateMutability": "view",
      "type": "function"
    },
    {
      "inputs": [
        {
          "internalType": "address",
          "name": "user",
          "type": "address"
        },
        {
          "internalType": "uint256",
          "name": "articleId",
          "type": "uint256"
        }
      ],
      "name": "isValidClaimer",
      "outputs": [
        {
          "internalType": "bool",
          "name": "",
          "type": "bool"
        }
      ],
      "stateMutability": "view",
      "type": "function"
    },
    {
      "inputs": [
        {
          "internalType": "address",
          "name": "user",
          "type": "address"
        },
        {
          "internalType": "uint256",
          "name": "articleId",
          "type": "uint256"
        }
      ],
      "name": "isValidVoter",
      "outputs": [
        {
          "internalType": "bool",
          "name": "",
          "type": "bool"
        }
      ],
      "stateMutability": "view",
      "type": "function"
    },
    {
      "inputs": [
        {
          "internalType": "uint256",
          "name": "articleId",
          "type": "uint256"
        }
      ],
      "name": "isVoteClosed",
      "outputs": [
        {
          "internalType": "bool",
          "name": "",
          "type": "bool"
        }
      ],
      "stateMutability": "view",
      "type": "function"
    },
    {
      "inputs": [
        {
          "internalType": "uint256",
          "name": "articleId",
          "type": "uint256"
        }
      ],
      "name": "isVoteOpen",
      "outputs": [
        {
          "internalType": "bool",
          "name": "",
          "type": "bool"
        }
      ],
      "stateMutability": "view",
      "type": "function"
    },
    {
      "inputs": [],
      "name": "maximumBlockDelta",
      "outputs": [
        {
          "internalType": "uint256",
          "name": "",
          "type": "uint256"
        }
      ],
      "stateMutability": "view",
      "type": "function"
    },
    {
      "inputs": [],
      "name": "minimumBlockDelta",
      "outputs": [
        {
          "internalType": "uint256",
          "name": "",
          "type": "uint256"
        }
      ],
      "stateMutability": "view",
      "type": "function"
    },
    {
      "inputs": [
        {
          "internalType": "uint256",
          "name": "articleId",
          "type": "uint256"
        },
        {
          "internalType": "uint256",
          "name": "nftAmount",
          "type": "uint256"
        }
      ],
      "name": "mintArticleNFT",
      "outputs": [],
      "stateMutability": "nonpayable",
      "type": "function"
    },
    {
      "inputs": [],
      "name": "multiplierVeriPerEther",
      "outputs": [
        {
          "internalType": "uint256",
          "name": "",
          "type": "uint256"
        }
      ],
      "stateMutability": "view",
      "type": "function"
    },
    {
      "inputs": [
        {
          "internalType": "bytes32",
          "name": "",
          "type": "bytes32"
        }
      ],
      "name": "nostrAccountToEthereumAccount",
      "outputs": [
        {
          "internalType": "address",
          "name": "",
          "type": "address"
        }
      ],
      "stateMutability": "view",
      "type": "function"
    },
    {
      "inputs": [
        {
          "internalType": "address",
          "name": "",
          "type": "address"
        },
        {
          "internalType": "address",
          "name": "",
          "type": "address"
        },
        {
          "internalType": "uint256[]",
          "name": "",
          "type": "uint256[]"
        },
        {
          "internalType": "uint256[]",
          "name": "",
          "type": "uint256[]"
        },
        {
          "internalType": "bytes",
          "name": "",
          "type": "bytes"
        }
      ],
      "name": "onERC1155BatchReceived",
      "outputs": [
        {
          "internalType": "bytes4",
          "name": "",
          "type": "bytes4"
        }
      ],
      "stateMutability": "nonpayable",
      "type": "function"
    },
    {
      "inputs": [
        {
          "internalType": "address",
          "name": "",
          "type": "address"
        },
        {
          "internalType": "address",
          "name": "",
          "type": "address"
        },
        {
          "internalType": "uint256",
          "name": "",
          "type": "uint256"
        },
        {
          "internalType": "uint256",
          "name": "",
          "type": "uint256"
        },
        {
          "internalType": "bytes",
          "name": "",
          "type": "bytes"
        }
      ],
      "name": "onERC1155Received",
      "outputs": [
        {
          "internalType": "bytes4",
          "name": "",
          "type": "bytes4"
        }
      ],
      "stateMutability": "nonpayable",
      "type": "function"
    },
    {
      "inputs": [
        {
          "internalType": "bytes32",
          "name": "eventId",
          "type": "bytes32"
        }
      ],
      "name": "publishArticle",
      "outputs": [
        {
          "internalType": "uint256",
          "name": "",
          "type": "uint256"
        }
      ],
      "stateMutability": "payable",
      "type": "function"
    },
    {
      "inputs": [
        {
          "internalType": "bytes32",
          "name": "signature",
          "type": "bytes32"
        },
        {
          "internalType": "bytes32",
          "name": "nostrPublicKey",
          "type": "bytes32"
        }
      ],
      "name": "registerAuthor",
      "outputs": [],
      "stateMutability": "nonpayable",
      "type": "function"
    },
    {
      "inputs": [
        {
          "internalType": "bytes4",
          "name": "interfaceId",
          "type": "bytes4"
        }
      ],
      "name": "supportsInterface",
      "outputs": [
        {
          "internalType": "bool",
          "name": "",
          "type": "bool"
        }
      ],
      "stateMutability": "view",
      "type": "function"
    },
    {
      "inputs": [],
      "name": "totalArticles",
      "outputs": [
        {
          "internalType": "uint256",
          "name": "",
          "type": "uint256"
        }
      ],
      "stateMutability": "view",
      "type": "function"
    },
    {
      "inputs": [
        {
          "internalType": "uint256",
          "name": "articleId",
          "type": "uint256"
        },
        {
          "internalType": "bool",
          "name": "voteExpressed",
          "type": "bool"
        },
        {
          "internalType": "uint256",
          "name": "tokenSpentToVote",
          "type": "uint256"
        }
      ],
      "name": "vote",
      "outputs": [],
      "stateMutability": "payable",
      "type": "function"
    },
    {
      "stateMutability": "payable",
      "type": "receive"
    }
  ],
  "bytecode": "0x6101e06040523480156200001257600080fd5b50604051620037e7380380620037e78339810160408190526200003591620000ca565b66038d7ea4c68000608052662386f26fc1000060a0526103e860c05267016345785d8a000060e052681b1ae4d6e2ef50000061014052615a0061010052619d80610120526000600455671bc16d674ec800006101605266071afd498d0000610180526001600160a01b039182166101a052166101c05262000109565b6001600160a01b0381168114620000c757600080fd5b50565b60008060408385031215620000de57600080fd5b8251620000eb81620000b1565b6020840151909250620000fe81620000b1565b809150509250929050565b60805160a05160c05160e05161010051610120516101405161016051610180516101a0516101c05161359a6200024d6000396000818161050001528181610f72015281816110fe01526117db01526000818161077c01528181611164015281816116e0015281816120740152818161211501526124d6015260008181610534015261104701526000818161042301528181611194015261170c01526000818161046c01528181610a23015281816114400152818161154301528181611a4b015261237801526000818161038801528181610c300152610dea01526000818161025201528181610c010152610dc001526000818161092c01528181611df5015261203501526000818161056801528181611c4801528181611ca20152611ec60152600081816103ef01526109c301526000818161098001526128a8015261359a6000f3fe6080604052600436106102345760003560e01c8063a9c659e41161012e578063d4b12530116100ab578063f1fddbae1161006f578063f1fddbae146108ce578063f23a6e61146108ee578063f4180e091461091a578063f78ba7101461094e578063fe4b899e1461096e57600080fd5b8063d4b125301461072a578063d5ad47761461074a578063d5fef2311461076a578063e148c81d1461079e578063edcfafe6146107be57600080fd5b8063bef2e1ee116100f2578063bef2e1ee1461065c578063bf9c500114610672578063c71acbe61461069f578063d1003811146106cc578063d46a5d7e1461071757600080fd5b8063a9c659e41461058a578063ae169a50146105b7578063b24c16f2146105d7578063bb33b998146105f7578063bc197c811461061757600080fd5b80634fd13391116101bc578063745101dc11610180578063745101dc146104ae57806388c7c707146104ce578063897fdff0146104ee5780639ea8931a146105225780639efbf5011461055657600080fd5b80634fd13391146103dd578063577abe8d146104115780635b3e84371461044557806365f4aded1461045a5780636d7c55f51461048e57600080fd5b80630e92e864116102035780630e92e864146103365780631c08bc05146103565780632a0ca5da146103765780634165c2fa146103aa5780634992391b146103bd57600080fd5b80630140e93e1461024057806301ffc9a7146102875780630b60b31f146102c85780630de26ef5146102e857600080fd5b3661023b57005b600080fd5b34801561024c57600080fd5b506102747f000000000000000000000000000000000000000000000000000000000000000081565b6040519081526020015b60405180910390f35b34801561029357600080fd5b506102b86102a23660046130b4565b6001600160e01b0319166301ffc9a760e01b1490565b604051901515815260200161027e565b3480156102d457600080fd5b506102746102e33660046130f5565b6109a2565b3480156102f457600080fd5b5061031e610303366004613110565b6001602052600090815260409020546001600160a01b031681565b6040516001600160a01b03909116815260200161027e565b34801561034257600080fd5b506102746103513660046130f5565b6109ef565b34801561036257600080fd5b506102b8610371366004613110565b610a08565b34801561038257600080fd5b506102747f000000000000000000000000000000000000000000000000000000000000000081565b6102746103b8366004613110565b610a9b565b3480156103c957600080fd5b506102b86103d8366004613129565b610e5c565b3480156103e957600080fd5b506102747f000000000000000000000000000000000000000000000000000000000000000081565b34801561041d57600080fd5b506102747f000000000000000000000000000000000000000000000000000000000000000081565b610458610453366004613153565b610f57565b005b34801561046657600080fd5b506102747f000000000000000000000000000000000000000000000000000000000000000081565b34801561049a57600080fd5b506104586104a9366004613153565b6112bc565b3480156104ba57600080fd5b506102b86104c9366004613110565b611409565b3480156104da57600080fd5b506104586104e9366004613153565b611492565b3480156104fa57600080fd5b5061031e7f000000000000000000000000000000000000000000000000000000000000000081565b34801561052e57600080fd5b506102747f000000000000000000000000000000000000000000000000000000000000000081565b34801561056257600080fd5b506102747f000000000000000000000000000000000000000000000000000000000000000081565b34801561059657600080fd5b506102746105a5366004613110565b600e6020526000908152604090205481565b3480156105c357600080fd5b506104586105d2366004613110565b611886565b3480156105e357600080fd5b506102b86105f2366004613110565b612231565b34801561060357600080fd5b506102b86106123660046130f5565b612268565b34801561062357600080fd5b506106436106323660046132ac565b63bc197c8160e01b95945050505050565b6040516001600160e01b0319909116815260200161027e565b34801561066857600080fd5b5061027460045481565b34801561067e57600080fd5b5061027461068d3660046130f5565b60006020819052908152604090205481565b3480156106ab57600080fd5b506106bf6106ba3660046130f5565b612296565b60405161027e9190613356565b3480156106d857600080fd5b506107056106e73660046130f5565b6001600160a01b031660009081526003602052604090205460ff1690565b60405160ff909116815260200161027e565b6104586107253660046133a8565b6122ba565b34801561073657600080fd5b506102b86107453660046130f5565b612802565b34801561075657600080fd5b506106bf6107653660046130f5565b612828565b34801561077657600080fd5b5061031e7f000000000000000000000000000000000000000000000000000000000000000081565b3480156107aa57600080fd5b506107056107b93660046130f5565b61284c565b3480156107ca57600080fd5b506108586107d9366004613110565b600d6020528060005260406000206000915090508060000154908060010154908060020160009054906101000a90046001600160a01b03169080600301549080600401549080600501549080600601549080600701549080600801549080600901549080600a01549080600b01549080600c01549080600d015490508e565b604080519e8f5260208f019d909d526001600160a01b03909b169b8d019b909b5260608c019890985260808b019690965260a08a019490945260c089019290925260e08801526101008701526101208601526101408501526101608401526101808301919091526101a08201526101c00161027e565b3480156108da57600080fd5b506102746108e93660046130f5565b612895565b3480156108fa57600080fd5b506106436109093660046133e0565b63f23a6e6160e01b95945050505050565b34801561092657600080fd5b506102747f000000000000000000000000000000000000000000000000000000000000000081565b34801561095a57600080fd5b506102b8610969366004613129565b6128cd565b34801561097a57600080fd5b506102747f000000000000000000000000000000000000000000000000000000000000000081565b6001600160a01b03811660009081526003602052604081205460ff166109e87f000000000000000000000000000000000000000000000000000000000000000082612927565b9392505050565b6000806109fb8361284c565b90506109e8816000612995565b6000818152600d6020526040812060048101546003909101547f000000000000000000000000000000000000000000000000000000000000000091610a4c9161345b565b10158015610a6b57506000828152600d60205260409020600801544310155b80610a8657506000828152600d602052604090206009015443115b15610a9357506001919050565b506000919050565b336000908152602081905260408120548103610af65760405162461bcd60e51b81526020600482015260156024820152742cb7ba9030b932903737ba1030b71030baba3437b960591b60448201526064015b60405180910390fd5b610aff336109a2565b341015610b415760405162461bcd60e51b815260206004820152601060248201526f2737ba1032b737bab3b41032ba3432b960811b6044820152606401610aed565b6000828152600e602052604090205415610b9d5760405162461bcd60e51b815260206004820152601960248201527f41727469636c6520616c7265616479207075626c6973686564000000000000006044820152606401610aed565b600160046000828254610bb0919061345b565b9091555050600454604080516101c081018252828152602081018590523391810191909152600060608201819052608082018190523460a083015260c0820181905260e08201526101008101610c267f00000000000000000000000000000000000000000000000000000000000000004361345b565b8152602001610c557f00000000000000000000000000000000000000000000000000000000000000004361345b565b815260006020808301829052604080840183905260608085018490526080948501849052868452600d80845282852087518155878501516001820155878401516002820180546001600160a01b0319166001600160a01b0390921691909117905591870151600383015594860151600482015560a0860151600582015560c0860151600682015560e086015160078083019190915561010087015160088301556101208701516009830155610140870151600a830155610160870151600b830155610180870151600c8301556101a090960151940193909355929092529020610d3e9033612a0d565b506000818152600860205260409020610d579033612a0d565b506000838152600e6020908152604080832084905533835260069091529020610d809082612a22565b50336000818152600360205260409020547ff83f703b5ee2e539aab813380e2850c7b28c6b667e9d0cfae5cff7667d79b0aa9190859060ff168434610de57f00000000000000000000000000000000000000000000000000000000000000004361345b565b610e0f7f00000000000000000000000000000000000000000000000000000000000000004361345b565b604080516001600160a01b03989098168852602088019690965260ff94909416868601526060860192909252608085015260a084015260c0830152519081900360e00190a190505b919050565b6000818152600760205260408120610e749084612a2e565b80610e9257506000828152600860205260409020610e929084612a2e565b15610f4d576000828152600d6020526040902060048101546003909101541115610ee0576000828152600760205260409020610ece9084612a2e565b15610edb57506001610f51565b610f4d565b6000828152600d6020526040902060048101546003909101541015610f4d576000828152600860205260409020610f179084612a2e565b8015610f4057506000828152600d60205260409020600201546001600160a01b03848116911614155b15610f4d57506001610f51565b5060005b92915050565b604051627eeac760e11b8152306004820152602481018390527f00000000000000000000000000000000000000000000000000000000000000006001600160a01b03169062fdd58e90604401602060405180830381865afa158015610fc0573d6000803e3d6000fd5b505050506040513d601f19601f82011682018060405250810190610fe4919061346e565b8111156110425760405162461bcd60e51b815260206004820152602660248201527f546865726520617265206e6f7420736f206d616e79204e465420746f20626520604482015265189bdd59da1d60d21b6064820152608401610aed565b61106c7f000000000000000000000000000000000000000000000000000000000000000082613487565b3410156110c75760405162461bcd60e51b815260206004820152602360248201527f596f7520646964206e6f742070617920656e6f75676820666f7220746865204e60448201526246547360e81b6064820152608401610aed565b604051637921219560e11b8152306004820152336024820152604481018390526064810182905260a06084820152600060a48201527f00000000000000000000000000000000000000000000000000000000000000006001600160a01b03169063f242432a9060c401600060405180830381600087803b15801561114a57600080fd5b505af115801561115e573d6000803e3d6000fd5b505050507f00000000000000000000000000000000000000000000000000000000000000006001600160a01b031663a9059cbb337f0000000000000000000000000000000000000000000000000000000000000000846111be9190613487565b6040516001600160e01b031960e085901b1681526001600160a01b03909216600483015260248201526044016020604051808303816000875af1158015611209573d6000803e3d6000fd5b505050506040513d601f19601f8201168201806040525081019061122d919061349e565b506000828152600d6020526040902060020154611253906001600160a01b031634612a50565b6000828152600d60209081526040918290206002015482513381529182018590529181018390526001600160a01b0390911660608201527f1cb9f23b41a0eb0a373c6e0aedc819dcd3533a8d510484e4e17441b5570dafb2906080015b60405180910390a15050565b33600090815260208190526040902054156113195760405162461bcd60e51b815260206004820152601960248201527f596f752061726520616c726561647920616e20617574686f72000000000000006044820152606401610aed565b6000818152600160205260409020546001600160a01b0316156113995760405162461bcd60e51b815260206004820152603260248201527f4e6f737472206163636f756e7420616c7265616479206173736f636961746564604482015271103a379030b737ba3432b91030baba3437b960711b6064820152608401610aed565b6113a233612aec565b33600081815260208181526040808320859055848352600182529182902080546001600160a01b031916841790558151928352820184905281018290527f54c08473d27645da32d0a97083341a40425d1dec45408d2e54e24171c87a9486906060016112b0565b6000818152600d6020526040812060090154431180159061146b57506000828152600d6020526040902060048101546003909101547f0000000000000000000000000000000000000000000000000000000000000000916114699161345b565b105b80610a8657506000828152600d6020526040902060080154431015610a9357506001919050565b33600090815260036020526040902054605a60ff909116116115265760405162461bcd60e51b815260206004820152604160248201527f596f757220617574686f722072657075746174696f6e20697320746f6f206c6f60448201527f7720746f2061636365737320746f20746869732066756e6374696f6e616c69746064820152607960f81b608482015260a401610aed565b6000828152600d60205260409020600481015460039091015483917f00000000000000000000000000000000000000000000000000000000000000009161156d919061345b565b1015801561158c57506000818152600d60205260409020600801544310155b806115a757506000818152600d602052604090206009015443115b6115e25760405162461bcd60e51b815260206004820152600c60248201526b2b37ba329034b99037b832b760a11b6044820152606401610aed565b6000818152600d6020526040902060048101546003909101541161165e5760405162461bcd60e51b815260206004820152602d60248201527f5468652061727469636c6520776173206e6f7420617070726f7665642062792060448201526c74686520636f6d6d756e69747960981b6064820152608401610aed565b6000838152600d60205260409020600201546001600160a01b031633146116d65760405162461bcd60e51b815260206004820152602660248201527f596f7520617265206e6f742074686520617574686f72206f6620746869732061604482015265727469636c6560d01b6064820152608401610aed565b6001600160a01b037f0000000000000000000000000000000000000000000000000000000000000000166323b872dd33306117317f000000000000000000000000000000000000000000000000000000000000000087613487565b6040516001600160e01b031960e086901b1681526001600160a01b03938416600482015292909116602483015260448201526064016020604051808303816000875af1158015611785573d6000803e3d6000fd5b505050506040513d601f19601f820116820180604052508101906117a9919061349e565b5060405163731133e960e01b8152306004820152602481018490526044810183905260806064820152600060848201527f00000000000000000000000000000000000000000000000000000000000000006001600160a01b03169063731133e99060a401600060405180830381600087803b15801561182757600080fd5b505af115801561183b573d6000803e3d6000fd5b505060408051338152602081018790529081018590527f4d024829a284b876a94bae1a32407db920b88e312d6db5af0e8c89b178669cfd9250606001905060405180910390a1505050565b600081815260076020526040902081906118a09033612a2e565b806118be575060008181526008602052604090206118be9033612a2e565b6118fd5760405162461bcd60e51b815260206004820152601060248201526f596f7520646964206e6f7420766f746560801b6044820152606401610aed565b6000818152600d60205260409020600481015460039091015411156119855760008181526007602052604090206119349033612a2e565b6119805760405162461bcd60e51b815260206004820152601b60248201527f596f7520617265206e6f7420696e20746865206d616a6f7269747900000000006044820152606401610aed565b611a2e565b6000818152600d6020526040902060048101546003909101541015611a2e5760008181526008602052604090206119bc9033612a2e565b80156119e257506000818152600d60205260409020600201546001600160a01b03163314155b611a2e5760405162461bcd60e51b815260206004820152601b60248201527f596f7520617265206e6f7420696e20746865206d616a6f7269747900000000006044820152606401610aed565b6000828152600d60205260409020600481015460039091015483917f000000000000000000000000000000000000000000000000000000000000000091611a75919061345b565b10158015611a9457506000818152600d60205260409020600801544310155b80611aaf57506000818152600d602052604090206009015443115b611aea5760405162461bcd60e51b815260206004820152600c60248201526b2b37ba329034b99037b832b760a11b6044820152606401610aed565b6000838152600d602052604081206004810154600390910154829182918291829103611bc8576000888152600d6020526040902060020154336001600160a01b0390911603611b4c576000888152600d60205260409020600501549450611bc3565b6000888152600a6020908152604080832033808552908352818420548c855260098452828520918552925290912054611b85919061345b565b6000898152600c6020908152604080832033808552908352818420548d8552600b8452828520918552925290912054919650611bc09161345b565b92505b600093505b6000888152600d6020526040902060048101546003909101541115611e2d576000888152600d6020526040902060020154336001600160a01b0390911603611c80576000888152600d60205260409020600b810154600590910154611c2d919061345b565b6000898152600d6020526040902060050154909550611c6c907f0000000000000000000000000000000000000000000000000000000000000000612b35565b9450611c7b9050336001612b80565b611cf3565b60008881526009602090815260408083203384529091529020549450611cc6857f0000000000000000000000000000000000000000000000000000000000000000612b35565b60008a8152600b6020908152604080832033808552925290912054919650909450611cf391506001612c47565b6000888152600760205260408120611d0a90612cf1565b60008a815260086020526040812091925090611d2590612cf1565b90506000611d338284612cfb565b60008c8152600d6020819052604090912090810154600690910154919250611d5a91612d42565b9450600090505b81811015611dd55760008c8152600860205260408120611d819082612d75565b60008e8152600d60205260409020600201549091506001600160a01b03808316911614611db357611db3816000612c47565b60008d8152600860205260409020611dcb9082612d81565b5050600101611d61565b5060008b8152600760205260409020611dee9033612d81565b50611e19817f0000000000000000000000000000000000000000000000000000000000000000612b35565b9550611e279050858861345b565b96505050505b6000888152600d6020526040902060048101546003909101541015612060576000888152600d602052604090206007810154600a8201546005909201549091611e759161345b565b611e7f91906134d1565b6000898152600a60209081526040808320338452909152902054611ea3919061345b565b6000898152600a60209081526040808320338452909152902054909550611eea907f0000000000000000000000000000000000000000000000000000000000000000612b35565b60008a8152600c6020908152604080832033808552925290912054919650909450611f1791506001612c47565b6000888152600860205260408120600190611f3190612cf1565b611f3b91906134f3565b60008a815260076020526040812091925090611f5690612cf1565b90506000611f648284612cfb565b60008c8152600d60205260409020600c810154600790910154919250611f8991612d42565b9450600090505b818110156120155760008c8152600760205260408120611fb09082612d75565b60008e8152600d60205260409020600201549091506001600160a01b0390811690821603611fe857611fe3816000612b80565b611ff3565b611ff3816000612c47565b60008d815260076020526040902061200b9082612d81565b5050600101611f90565b5060008b815260086020526040902061202e9033612d81565b50612059817f0000000000000000000000000000000000000000000000000000000000000000612b35565b9550505050505b61206a3386612a50565b6001600160a01b037f0000000000000000000000000000000000000000000000000000000000000000166340c10f19336120a4858861345b565b6040516001600160e01b031960e085901b1681526001600160a01b0390921660048301526024820152604401600060405180830381600087803b1580156120ea57600080fd5b505af11580156120fe573d6000803e3d6000fd5b5050505060008311156121b6576001600160a01b037f00000000000000000000000000000000000000000000000000000000000000001663a9059cbb33612145848761345b565b6040516001600160e01b031960e085901b1681526001600160a01b03909216600483015260248201526044016020604051808303816000875af1158015612190573d6000803e3d6000fd5b505050506040513d601f19601f820116820180604052508101906121b4919061349e565b505b7fb26ea8ad92f258bc70244e0ced197b6e05b0dbecd2bfc0950a39d921baafa93f33898784876121e6888b61345b565b6121f0919061345b565b6121fa919061345b565b604080516001600160a01b039095168552602085019390935291830152606082015260800160405180910390a15050505050505050565b600061223c82610a08565b15610a93576000828152600d6020526040902060048101546003909101541115610a9357506001919050565b6001600160a01b038116600090815260036020526040812054605a60ff9091161115610a9357506001919050565b6001600160a01b0381166000908152600660205260409020606090610f5190612d96565b600083815260096020908152604080832033845290915290205483901580156122fa57506000818152600a60209081526040808320338452909152902054155b61233f5760405162461bcd60e51b8152602060048201526016602482015275165bdd481a185d9948185b1c9958591e481d9bdd195960521b6044820152606401610aed565b6000848152600d6020526040902060090154849043118015906123a357506000818152600d6020526040902060048101546003909101547f0000000000000000000000000000000000000000000000000000000000000000916123a19161345b565b105b806123be57506000818152600d602052604090206008015443105b6123fb5760405162461bcd60e51b815260206004820152600e60248201526d159bdd19481a5cc818db1bdcd95960921b6044820152606401610aed565b61240433612895565b3410156124465760405162461bcd60e51b815260206004820152601060248201526f2737ba1032b737bab3b41032ba3432b960811b6044820152606401610aed565b61244f336109ef565b8311156124ae5760405162461bcd60e51b815260206004820152602760248201527f546f6f206d616e7920746f6b656e73207370656e7420746f20626f6f73742074604482015266686520766f746560c81b6064820152608401610aed565b821561254d576040516323b872dd60e01b8152336004820152306024820152604481018490527f00000000000000000000000000000000000000000000000000000000000000006001600160a01b0316906323b872dd906064016020604051808303816000875af1158015612527573d6000803e3d6000fd5b505050506040513d601f19601f8201168201806040525081019061254b919061349e565b505b61255633612da3565b60006125613361284c565b90508415612674576125738185612995565b6000878152600d60205260408120600301805490919061259490849061345b565b90915550506000868152600d602052604081206006018054600192906125bb90849061345b565b909155505060008681526007602052604090206125d89033612a0d565b50600086815260096020908152604080832033845282528083203490819055898452600d9092528220600a0180549192909161261590849061345b565b90915550506000868152600b602090815260408083203384529091528120805486929061264390849061345b565b90915550506000868152600d60205260408120600c01805486929061266990849061345b565b9091555061277a9050565b61267e8185612995565b6000878152600d60205260408120600401805490919061269f90849061345b565b90915550506000868152600d602052604081206007018054600192906126c690849061345b565b909155505060008681526008602052604090206126e39033612a0d565b506000868152600a6020908152604080832033845282528083203490819055898452600d9092528220600b0180549192909161272090849061345b565b90915550506000868152600c602090815260408083203384529091528120805486929061274e90849061345b565b90915550506000868152600d60208190526040822001805486929061277490849061345b565b90915550505b3360009081526005602052604090206127939087612a22565b5033600081815260026020908152604091829020548251938452908301899052871515838301526060830187905234608084015260ff1660a0830152517ff4139a7862f013f6e5cb1b345240bc426539f16017e9934e7ed413b55d2f84419181900360c00190a1505050505050565b6001600160a01b03811660009081526020819052604081205415610a9357506001919050565b6001600160a01b0381166000908152600560205260409020606090610f5190612d96565b6001600160a01b03811660009081526002602052604081205460ff16810361287657506033919050565b506001600160a01b031660009081526002602052604090205460ff1690565b6000806128a18361284c565b90506109e87f000000000000000000000000000000000000000000000000000000000000000082612927565b60008181526009602090815260408083206001600160a01b0386168452909152812054158015610f4057506000828152600a602090815260408083206001600160a01b0387168452909152902054610f4d57506001610f51565b60008060338360ff161161296f5760008061294660338660ff16612deb565b92506129559050826002612b35565b91506129649050606482612e0d565b935061298192505050565b61297d8360ff166033612deb565b9150505b61298d84826064612e28565b949350505050565b60008060338460ff16116129ba576129b18460ff166031612e0d565b91506129ef9050565b6000806129cb8660ff166033612deb565b92506129da9050826002612b35565b91506129e99050606482612e0d565b93505050505b612a018167016345785d8a0000613487565b905061298d838261345b565b60006109e8836001600160a01b038416612eec565b60006109e88383612eec565b6001600160a01b038116600090815260018301602052604081205415156109e8565b80471015612a735760405163cd78605960e01b8152306004820152602401610aed565b6000826001600160a01b03168260405160006040518083038185875af1925050503d8060008114612ac0576040519150601f19603f3d011682016040523d82523d6000602084013e612ac5565b606091505b5050905080612ae757604051630a12f52160e11b815260040160405180910390fd5b505050565b6001600160a01b03811660009081526003602052604081205460ff169003612b32576001600160a01b0381166000908152600360205260409020805460ff191660331790555b50565b60008083600003612b4c5750600190506000612b79565b83830283858281612b5f57612b5f6134bb565b0414612b72576000809250925050612b79565b6001925090505b9250929050565b8015612bf5576001600160a01b038216600090815260036020526040902054606560ff9091161015612bf1576001600160a01b0382166000908152600360205260408120805460019290612bd890849060ff16613506565b92506101000a81548160ff021916908360ff1602179055505b5050565b6001600160a01b038216600090815260036020526040902054600160ff9091161115612bf1576001600160a01b0382166000908152600360205260408120805460019290612bd890849060ff1661351f565b8015612c9f576001600160a01b038216600090815260026020526040902054606560ff9091161015612bf1576001600160a01b0382166000908152600260205260408120805460019290612bd890849060ff16613506565b6001600160a01b038216600090815260026020526040902054600160ff9091161115612bf1576001600160a01b0382166000908152600260205260408120805460019290612bd890849060ff1661351f565b6000610f51825490565b600081600003612d1657612d0f82846134d1565b9050610f51565b8215610f4d5781612d286001856134f3565b612d3291906134d1565b612d3d90600161345b565b6109e8565b60008082600003612d5857506000905080612b79565b6001838581612d6957612d696134bb565b04915091509250929050565b60006109e88383612f3b565b60006109e8836001600160a01b038416612f65565b606060006109e883613058565b6001600160a01b03811660009081526002602052604081205460ff169003612b32576001600160a01b0381166000908152600260205260409020805460ff1916603317905550565b60008083831115612e0157506000905080612b79565b50600193919092039150565b60008083830184811015612b72576000809250925050612b79565b6000838302816000198587098281108382030391505080600003612e5f57838281612e5557612e556134bb565b04925050506109e8565b808411612e7f5760405163227bc15360e01b815260040160405180910390fd5b6000848688096000868103871696879004966002600389028118808a02820302808a02820302808a02820302808a02820302808a02820302808a02909103029181900381900460010186841190950394909402919094039290920491909117919091029150509392505050565b6000818152600183016020526040812054612f3357508154600181810184556000848152602080822090930184905584548482528286019093526040902091909155610f51565b506000610f51565b6000826000018281548110612f5257612f52613538565b9060005260206000200154905092915050565b6000818152600183016020526040812054801561304e576000612f896001836134f3565b8554909150600090612f9d906001906134f3565b9050808214613002576000866000018281548110612fbd57612fbd613538565b9060005260206000200154905080876000018481548110612fe057612fe0613538565b6000918252602080832090910192909255918252600188019052604090208390555b85548690806130135761301361354e565b600190038181906000526020600020016000905590558560010160008681526020019081526020016000206000905560019350505050610f51565b6000915050610f51565b6060816000018054806020026020016040519081016040528092919081815260200182805480156130a857602002820191906000526020600020905b815481526020019060010190808311613094575b50505050509050919050565b6000602082840312156130c657600080fd5b81356001600160e01b0319811681146109e857600080fd5b80356001600160a01b0381168114610e5757600080fd5b60006020828403121561310757600080fd5b6109e8826130de565b60006020828403121561312257600080fd5b5035919050565b6000806040838503121561313c57600080fd5b613145836130de565b946020939093013593505050565b6000806040838503121561316657600080fd5b50508035926020909101359150565b634e487b7160e01b600052604160045260246000fd5b604051601f8201601f1916810167ffffffffffffffff811182821017156131b4576131b4613175565b604052919050565b600082601f8301126131cd57600080fd5b8135602067ffffffffffffffff8211156131e9576131e9613175565b8160051b6131f882820161318b565b928352848101820192828101908785111561321257600080fd5b83870192505b8483101561323157823582529183019190830190613218565b979650505050505050565b600082601f83011261324d57600080fd5b813567ffffffffffffffff81111561326757613267613175565b61327a601f8201601f191660200161318b565b81815284602083860101111561328f57600080fd5b816020850160208301376000918101602001919091529392505050565b600080600080600060a086880312156132c457600080fd5b6132cd866130de565b94506132db602087016130de565b9350604086013567ffffffffffffffff808211156132f857600080fd5b61330489838a016131bc565b9450606088013591508082111561331a57600080fd5b61332689838a016131bc565b9350608088013591508082111561333c57600080fd5b506133498882890161323c565b9150509295509295909350565b6020808252825182820181905260009190848201906040850190845b8181101561338e57835183529284019291840191600101613372565b50909695505050505050565b8015158114612b3257600080fd5b6000806000606084860312156133bd57600080fd5b8335925060208401356133cf8161339a565b929592945050506040919091013590565b600080600080600060a086880312156133f857600080fd5b613401866130de565b945061340f602087016130de565b93506040860135925060608601359150608086013567ffffffffffffffff81111561343957600080fd5b6133498882890161323c565b634e487b7160e01b600052601160045260246000fd5b80820180821115610f5157610f51613445565b60006020828403121561348057600080fd5b5051919050565b8082028115828204841417610f5157610f51613445565b6000602082840312156134b057600080fd5b81516109e88161339a565b634e487b7160e01b600052601260045260246000fd5b6000826134ee57634e487b7160e01b600052601260045260246000fd5b500490565b81810381811115610f5157610f51613445565b60ff8181168382160190811115610f5157610f51613445565b60ff8281168282160390811115610f5157610f51613445565b634e487b7160e01b600052603260045260246000fd5b634e487b7160e01b600052603160045260246000fdfea264697066735822122078b9f960f5ab0c10587666f2090338e83a11b0ea3e381511387fd3b44500503564736f6c63430008160033",
  "linkReferences": {},
  "deployedLinkReferences": {}
}