{
  "_format": "hh-sol-artifact-1",
  "contractName": "TruthHub",
  "sourceName": "contracts/TruthHub.sol",
  "abi": [
    {
      "inputs": [
        {
          "internalType": "contract VeriToken",
          "name": "veriTokenAddress",
          "type": "address"
        },
        {
          "internalType": "contract ArticleNFT",
          "name": "articleNftAddress",
          "type": "address"
        }
      ],
      "stateMutability": "nonpayable",
      "type": "constructor"
    },
    {
      "inputs": [
        {
          "internalType": "address",
          "name": "account",
          "type": "address"
        }
      ],
      "name": "AddressInsufficientBalance",
      "type": "error"
    },
    {
      "inputs": [],
      "name": "FailedInnerCall",
      "type": "error"
    },
    {
      "inputs": [],
      "name": "MathOverflowedMulDiv",
      "type": "error"
    },
    {
      "inputs": [],
      "name": "amountVeriPerUserPurged",
      "outputs": [
        {
          "internalType": "uint256",
          "name": "",
          "type": "uint256"
        }
      ],
      "stateMutability": "view",
      "type": "function"
    },
    {
      "inputs": [],
      "name": "articleNFTBuyInEther",
      "outputs": [
        {
          "internalType": "uint256",
          "name": "",
          "type": "uint256"
        }
      ],
      "stateMutability": "view",
      "type": "function"
    },
    {
      "inputs": [],
      "name": "articleNFTMintInVeri",
      "outputs": [
        {
          "internalType": "uint256",
          "name": "",
          "type": "uint256"
        }
      ],
      "stateMutability": "view",
      "type": "function"
    },
    {
      "inputs": [
        {
          "internalType": "uint256",
          "name": "",
          "type": "uint256"
        }
      ],
      "name": "articles",
      "outputs": [
        {
          "internalType": "uint256",
          "name": "articleId",
          "type": "uint256"
        },
        {
          "internalType": "bytes32",
          "name": "eventId",
          "type": "bytes32"
        },
        {
          "internalType": "address",
          "name": "author",
          "type": "address"
        },
        {
          "internalType": "uint256",
          "name": "upvotes",
          "type": "uint256"
        },
        {
          "internalType": "uint256",
          "name": "downvotes",
          "type": "uint256"
        },
        {
          "internalType": "uint256",
          "name": "etherSpentToPublish",
          "type": "uint256"
        },
        {
          "internalType": "uint256",
          "name": "upvoters",
          "type": "uint256"
        },
        {
          "internalType": "uint256",
          "name": "downvoters",
          "type": "uint256"
        },
        {
          "internalType": "uint256",
          "name": "minimumBlockThreshold",
          "type": "uint256"
        },
        {
          "internalType": "uint256",
          "name": "maximumBlockThreshold",
          "type": "uint256"
        },
        {
          "internalType": "uint256",
          "name": "ethersSpentInUpvotes",
          "type": "uint256"
        },
        {
          "internalType": "uint256",
          "name": "ethersSpentInDownvotes",
          "type": "uint256"
        },
        {
          "internalType": "uint256",
          "name": "veriSpentInUpvotes",
          "type": "uint256"
        },
        {
          "internalType": "uint256",
          "name": "veriSpentInDownvotes",
          "type": "uint256"
        }
      ],
      "stateMutability": "view",
      "type": "function"
    },
    {
      "inputs": [
        {
          "internalType": "address",
          "name": "",
          "type": "address"
        }
      ],
      "name": "authors",
      "outputs": [
        {
          "internalType": "bytes32",
          "name": "",
          "type": "bytes32"
        }
      ],
      "stateMutability": "view",
      "type": "function"
    },
    {
      "inputs": [
        {
          "internalType": "uint256",
          "name": "articleId",
          "type": "uint256"
        },
        {
          "internalType": "uint256",
          "name": "nftAmount",
          "type": "uint256"
        }
      ],
      "name": "buyArticleNFT",
      "outputs": [],
      "stateMutability": "payable",
      "type": "function"
    },
    {
      "inputs": [
        {
          "internalType": "uint256",
          "name": "articleId",
          "type": "uint256"
        }
      ],
      "name": "claimReward",
      "outputs": [],
      "stateMutability": "nonpayable",
      "type": "function"
    },
    {
      "inputs": [
        {
          "internalType": "address",
          "name": "user",
          "type": "address"
        }
      ],
      "name": "computeMaximumBoost",
      "outputs": [
        {
          "internalType": "uint256",
          "name": "",
          "type": "uint256"
        }
      ],
      "stateMutability": "view",
      "type": "function"
    },
    {
      "inputs": [
        {
          "internalType": "address",
          "name": "author",
          "type": "address"
        }
      ],
      "name": "computePublishPrice",
      "outputs": [
        {
          "internalType": "uint256",
          "name": "",
          "type": "uint256"
        }
      ],
      "stateMutability": "view",
      "type": "function"
    },
    {
      "inputs": [
        {
          "internalType": "address",
          "name": "reader",
          "type": "address"
        }
      ],
      "name": "computeVotePrice",
      "outputs": [
        {
          "internalType": "uint256",
          "name": "",
          "type": "uint256"
        }
      ],
      "stateMutability": "view",
      "type": "function"
    },
    {
      "inputs": [],
      "name": "contractArticleNFT",
      "outputs": [
        {
          "internalType": "contract ArticleNFT",
          "name": "",
          "type": "address"
        }
      ],
      "stateMutability": "view",
      "type": "function"
    },
    {
      "inputs": [],
      "name": "contractVeriToken",
      "outputs": [
        {
          "internalType": "contract VeriToken",
          "name": "",
          "type": "address"
        }
      ],
      "stateMutability": "view",
      "type": "function"
    },
    {
      "inputs": [],
      "name": "endWeightVote",
      "outputs": [
        {
          "internalType": "uint256",
          "name": "",
          "type": "uint256"
        }
      ],
      "stateMutability": "view",
      "type": "function"
    },
    {
      "inputs": [],
      "name": "etherPublishPrice",
      "outputs": [
        {
          "internalType": "uint256",
          "name": "",
          "type": "uint256"
        }
      ],
      "stateMutability": "view",
      "type": "function"
    },
    {
      "inputs": [],
      "name": "etherVotePrice",
      "outputs": [
        {
          "internalType": "uint256",
          "name": "",
          "type": "uint256"
        }
      ],
      "stateMutability": "view",
      "type": "function"
    },
    {
      "inputs": [
        {
          "internalType": "bytes32",
          "name": "",
          "type": "bytes32"
        }
      ],
      "name": "eventIdToArticleId",
      "outputs": [
        {
          "internalType": "uint256",
          "name": "",
          "type": "uint256"
        }
      ],
      "stateMutability": "view",
      "type": "function"
    },
    {
      "inputs": [
        {
          "internalType": "address",
          "name": "user",
          "type": "address"
        }
      ],
      "name": "getAuthorReputation",
      "outputs": [
        {
          "internalType": "uint8",
          "name": "",
          "type": "uint8"
        }
      ],
      "stateMutability": "view",
      "type": "function"
    },
    {
      "inputs": [
        {
          "internalType": "address",
          "name": "user",
          "type": "address"
        }
      ],
      "name": "getReaderReputation",
      "outputs": [
        {
          "internalType": "uint8",
          "name": "",
          "type": "uint8"
        }
      ],
      "stateMutability": "view",
      "type": "function"
    },
    {
      "inputs": [],
      "name": "maximumBlockDelta",
      "outputs": [
        {
          "internalType": "uint256",
          "name": "",
          "type": "uint256"
        }
      ],
      "stateMutability": "view",
      "type": "function"
    },
    {
      "inputs": [],
      "name": "minimumBlockDelta",
      "outputs": [
        {
          "internalType": "uint256",
          "name": "",
          "type": "uint256"
        }
      ],
      "stateMutability": "view",
      "type": "function"
    },
    {
      "inputs": [
        {
          "internalType": "uint256",
          "name": "articleId",
          "type": "uint256"
        },
        {
          "internalType": "uint256",
          "name": "nftAmount",
          "type": "uint256"
        }
      ],
      "name": "mintArticleNFT",
      "outputs": [],
      "stateMutability": "nonpayable",
      "type": "function"
    },
    {
      "inputs": [],
      "name": "multiplierVeriPerEther",
      "outputs": [
        {
          "internalType": "uint256",
          "name": "",
          "type": "uint256"
        }
      ],
      "stateMutability": "view",
      "type": "function"
    },
    {
      "inputs": [
        {
          "internalType": "bytes32",
          "name": "",
          "type": "bytes32"
        }
      ],
      "name": "nostrAccountToEthereumAccount",
      "outputs": [
        {
          "internalType": "address",
          "name": "",
          "type": "address"
        }
      ],
      "stateMutability": "view",
      "type": "function"
    },
    {
      "inputs": [
        {
          "internalType": "address",
          "name": "",
          "type": "address"
        },
        {
          "internalType": "address",
          "name": "",
          "type": "address"
        },
        {
          "internalType": "uint256[]",
          "name": "",
          "type": "uint256[]"
        },
        {
          "internalType": "uint256[]",
          "name": "",
          "type": "uint256[]"
        },
        {
          "internalType": "bytes",
          "name": "",
          "type": "bytes"
        }
      ],
      "name": "onERC1155BatchReceived",
      "outputs": [
        {
          "internalType": "bytes4",
          "name": "",
          "type": "bytes4"
        }
      ],
      "stateMutability": "nonpayable",
      "type": "function"
    },
    {
      "inputs": [
        {
          "internalType": "address",
          "name": "",
          "type": "address"
        },
        {
          "internalType": "address",
          "name": "",
          "type": "address"
        },
        {
          "internalType": "uint256",
          "name": "",
          "type": "uint256"
        },
        {
          "internalType": "uint256",
          "name": "",
          "type": "uint256"
        },
        {
          "internalType": "bytes",
          "name": "",
          "type": "bytes"
        }
      ],
      "name": "onERC1155Received",
      "outputs": [
        {
          "internalType": "bytes4",
          "name": "",
          "type": "bytes4"
        }
      ],
      "stateMutability": "nonpayable",
      "type": "function"
    },
    {
      "inputs": [
        {
          "internalType": "bytes32",
          "name": "eventId",
          "type": "bytes32"
        }
      ],
      "name": "publishArticle",
      "outputs": [
        {
          "internalType": "uint256",
          "name": "",
          "type": "uint256"
        }
      ],
      "stateMutability": "payable",
      "type": "function"
    },
    {
      "inputs": [
        {
          "internalType": "bytes32",
          "name": "signature",
          "type": "bytes32"
        },
        {
          "internalType": "bytes32",
          "name": "nostrPublicKey",
          "type": "bytes32"
        }
      ],
      "name": "registerAuthor",
      "outputs": [],
      "stateMutability": "nonpayable",
      "type": "function"
    },
    {
      "inputs": [
        {
          "internalType": "bytes4",
          "name": "interfaceId",
          "type": "bytes4"
        }
      ],
      "name": "supportsInterface",
      "outputs": [
        {
          "internalType": "bool",
          "name": "",
          "type": "bool"
        }
      ],
      "stateMutability": "view",
      "type": "function"
    },
    {
      "inputs": [],
      "name": "totalArticles",
      "outputs": [
        {
          "internalType": "uint256",
          "name": "",
          "type": "uint256"
        }
      ],
      "stateMutability": "view",
      "type": "function"
    },
    {
      "inputs": [
        {
          "internalType": "uint256",
          "name": "articleId",
          "type": "uint256"
        },
        {
          "internalType": "bool",
          "name": "voteExpressed",
          "type": "bool"
        },
        {
          "internalType": "uint256",
          "name": "tokenSpentToVote",
          "type": "uint256"
        }
      ],
      "name": "vote",
      "outputs": [],
      "stateMutability": "payable",
      "type": "function"
    },
    {
      "stateMutability": "payable",
      "type": "receive"
    }
  ],
  "bytecode": "0x6101e06040523480156200001257600080fd5b5060405162002e2738038062002e278339810160408190526200003591620000ca565b66038d7ea4c68000608052662386f26fc1000060a0526103e860c05267016345785d8a000060e052681b1ae4d6e2ef50000061014052615a0061010052619d80610120526000600455671bc16d674ec800006101605266071afd498d0000610180526001600160a01b039182166101a052166101c05262000109565b6001600160a01b0381168114620000c757600080fd5b50565b60008060408385031215620000de57600080fd5b8251620000eb81620000b1565b6020840151909250620000fe81620000b1565b809150509250929050565b60805160a05160c05160e05161010051610120516101405161016051610180516101a0516101c051612bfd6200022a6000396000818161043d01528181610b6d01528181610cf9015261117b01526000818161060c01528181610d5f01528181611080015281816119d101528181611a720152611d390152600081816104710152610c4201526000818161038001528181610d8f01526110ac0152600081816103c9015281816113a80152611bdb0152600081816103050152610a0d0152600081816101ef01526109de0152600081816107bc0152818161175201526119920152600081816104a5015281816115a701528181611601015261182301526000818161034c01526108330152600081816107f001526120420152612bfd6000f3fe6080604052600436106101d15760003560e01c80639efbf501116100f7578063d46a5d7e11610095578063f1fddbae11610064578063f1fddbae1461075e578063f23a6e611461077e578063f4180e09146107aa578063fe4b899e146107de57600080fd5b8063d46a5d7e146105e7578063d5fef231146105fa578063e148c81d1461062e578063edcfafe61461064e57600080fd5b8063bc197c81116100d1578063bc197c8114610514578063bef2e1ee14610559578063bf9c50011461056f578063d10038111461059c57600080fd5b80639efbf50114610493578063a9c659e4146104c7578063ae169a50146104f457600080fd5b80634fd133911161016f5780636d7c55f51161013e5780636d7c55f5146103eb57806388c7c7071461040b578063897fdff01461042b5780639ea8931a1461045f57600080fd5b80634fd133911461033a578063577abe8d1461036e5780635b3e8437146103a257806365f4aded146103b757600080fd5b80630de26ef5116101ab5780630de26ef5146102855780630e92e864146102d35780632a0ca5da146102f35780634165c2fa1461032757600080fd5b80630140e93e146101dd57806301ffc9a7146102245780630b60b31f1461026557600080fd5b366101d857005b600080fd5b3480156101e957600080fd5b506102117f000000000000000000000000000000000000000000000000000000000000000081565b6040519081526020015b60405180910390f35b34801561023057600080fd5b5061025561023f366004612785565b6001600160e01b0319166301ffc9a760e01b1490565b604051901515815260200161021b565b34801561027157600080fd5b506102116102803660046127c6565b610812565b34801561029157600080fd5b506102bb6102a03660046127e1565b6001602052600090815260409020546001600160a01b031681565b6040516001600160a01b03909116815260200161021b565b3480156102df57600080fd5b506102116102ee3660046127c6565b61085f565b3480156102ff57600080fd5b506102117f000000000000000000000000000000000000000000000000000000000000000081565b6102116103353660046127e1565b610878565b34801561034657600080fd5b506102117f000000000000000000000000000000000000000000000000000000000000000081565b34801561037a57600080fd5b506102117f000000000000000000000000000000000000000000000000000000000000000081565b6103b56103b03660046127fa565b610b52565b005b3480156103c357600080fd5b506102117f000000000000000000000000000000000000000000000000000000000000000081565b3480156103f757600080fd5b506103b56104063660046127fa565b610e52565b34801561041757600080fd5b506103b56104263660046127fa565b610f6a565b34801561043757600080fd5b506102bb7f000000000000000000000000000000000000000000000000000000000000000081565b34801561046b57600080fd5b506102117f000000000000000000000000000000000000000000000000000000000000000081565b34801561049f57600080fd5b506102117f000000000000000000000000000000000000000000000000000000000000000081565b3480156104d357600080fd5b506102116104e23660046127e1565b600c6020526000908152604090205481565b34801561050057600080fd5b506103b561050f3660046127e1565b6111e3565b34801561052057600080fd5b5061054061052f366004612953565b63bc197c8160e01b95945050505050565b6040516001600160e01b0319909116815260200161021b565b34801561056557600080fd5b5061021160045481565b34801561057b57600080fd5b5061021161058a3660046127c6565b60006020819052908152604090205481565b3480156105a857600080fd5b506105d56105b73660046127c6565b6001600160a01b031660009081526003602052604090205460ff1690565b60405160ff909116815260200161021b565b6103b56105f5366004612a0b565b611b1d565b34801561060657600080fd5b506102bb7f000000000000000000000000000000000000000000000000000000000000000081565b34801561063a57600080fd5b506105d56106493660046127c6565b611fe6565b34801561065a57600080fd5b506106e86106693660046127e1565b600b6020528060005260406000206000915090508060000154908060010154908060020160009054906101000a90046001600160a01b03169080600301549080600401549080600501549080600601549080600701549080600801549080600901549080600a01549080600b01549080600c01549080600d015490508e565b604080519e8f5260208f019d909d526001600160a01b03909b169b8d019b909b5260608c019890985260808b019690965260a08a019490945260c089019290925260e08801526101008701526101208601526101408501526101608401526101808301919091526101a08201526101c00161021b565b34801561076a57600080fd5b506102116107793660046127c6565b61202f565b34801561078a57600080fd5b50610540610799366004612a43565b63f23a6e6160e01b95945050505050565b3480156107b657600080fd5b506102117f000000000000000000000000000000000000000000000000000000000000000081565b3480156107ea57600080fd5b506102117f000000000000000000000000000000000000000000000000000000000000000081565b6001600160a01b03811660009081526003602052604081205460ff166108587f000000000000000000000000000000000000000000000000000000000000000082612063565b9392505050565b60008061086b83611fe6565b90506108588160006120d3565b3360009081526020819052604081205481036108d35760405162461bcd60e51b81526020600482015260156024820152742cb7ba9030b932903737ba1030b71030baba3437b960591b60448201526064015b60405180910390fd5b6108dc33610812565b34101561091e5760405162461bcd60e51b815260206004820152601060248201526f2737ba1032b737bab3b41032ba3432b960811b60448201526064016108ca565b6000828152600c60205260409020541561097a5760405162461bcd60e51b815260206004820152601960248201527f41727469636c6520616c7265616479207075626c69736865640000000000000060448201526064016108ca565b60016004600082825461098d9190612abe565b9091555050600454604080516101c081018252828152602081018590523391810191909152600060608201819052608082018190523460a083015260c0820181905260e08201526101008101610a037f000000000000000000000000000000000000000000000000000000000000000043612abe565b8152602001610a327f000000000000000000000000000000000000000000000000000000000000000043612abe565b815260006020808301829052604080840183905260608085018490526080948501849052868452600b80845282852087518155878501516001820155878401516002820180546001600160a01b0319166001600160a01b0390921691909117905591870151600383015594860151600482015560a086015160058083019190915560c0870151600683015560e0870151600783015561010087015160088301556101208701516009830155610140870151600a83015561016087015195820195909555610180860151600c8201556101a090950151600d909501949094559190915220610b1f903361214b565b506000818152600660205260409020610b38903361214b565b506000838152600c6020526040902081905590505b919050565b604051627eeac760e11b8152306004820152602481018390527f00000000000000000000000000000000000000000000000000000000000000006001600160a01b03169062fdd58e90604401602060405180830381865afa158015610bbb573d6000803e3d6000fd5b505050506040513d601f19601f82011682018060405250810190610bdf9190612ad1565b811115610c3d5760405162461bcd60e51b815260206004820152602660248201527f546865726520617265206e6f7420736f206d616e79204e465420746f20626520604482015265189bdd59da1d60d21b60648201526084016108ca565b610c677f000000000000000000000000000000000000000000000000000000000000000082612aea565b341015610cc25760405162461bcd60e51b815260206004820152602360248201527f596f7520646964206e6f742070617920656e6f75676820666f7220746865204e60448201526246547360e81b60648201526084016108ca565b604051637921219560e11b8152306004820152336024820152604481018390526064810182905260a06084820152600060a48201527f00000000000000000000000000000000000000000000000000000000000000006001600160a01b03169063f242432a9060c401600060405180830381600087803b158015610d4557600080fd5b505af1158015610d59573d6000803e3d6000fd5b505050507f00000000000000000000000000000000000000000000000000000000000000006001600160a01b031663a9059cbb337f000000000000000000000000000000000000000000000000000000000000000084610db99190612aea565b6040516001600160e01b031960e085901b1681526001600160a01b03909216600483015260248201526044016020604051808303816000875af1158015610e04573d6000803e3d6000fd5b505050506040513d601f19601f82011682018060405250810190610e289190612b01565b506000828152600b6020526040902060020154610e4e906001600160a01b031634612160565b5050565b3360009081526020819052604090205415610eaf5760405162461bcd60e51b815260206004820152601960248201527f596f752061726520616c726561647920616e20617574686f720000000000000060448201526064016108ca565b6000818152600160205260409020546001600160a01b031615610f2f5760405162461bcd60e51b815260206004820152603260248201527f4e6f737472206163636f756e7420616c7265616479206173736f636961746564604482015271103a379030b737ba3432b91030baba3437b960711b60648201526084016108ca565b610f38336121fc565b33600081815260208181526040808320859055938252600190529190912080546001600160a01b031916909117905550565b33600090815260036020526040902054605a60ff90911611610ffe5760405162461bcd60e51b815260206004820152604160248201527f596f757220617574686f722072657075746174696f6e20697320746f6f206c6f60448201527f7720746f2061636365737320746f20746869732066756e6374696f6e616c69746064820152607960f81b608482015260a4016108ca565b6000828152600b60205260409020600201546001600160a01b031633146110765760405162461bcd60e51b815260206004820152602660248201527f596f7520617265206e6f742074686520617574686f72206f6620746869732061604482015265727469636c6560d01b60648201526084016108ca565b6001600160a01b037f0000000000000000000000000000000000000000000000000000000000000000166323b872dd33306110d17f000000000000000000000000000000000000000000000000000000000000000086612aea565b6040516001600160e01b031960e086901b1681526001600160a01b03938416600482015292909116602483015260448201526064016020604051808303816000875af1158015611125573d6000803e3d6000fd5b505050506040513d601f19601f820116820180604052508101906111499190612b01565b5060405163731133e960e01b8152306004820152602481018390526044810182905260806064820152600060848201527f00000000000000000000000000000000000000000000000000000000000000006001600160a01b03169063731133e99060a401600060405180830381600087803b1580156111c757600080fd5b505af11580156111db573d6000803e3d6000fd5b505050505050565b600081815260056020526040902081906111fd9033612245565b8061121b5750600081815260066020526040902061121b9033612245565b61125a5760405162461bcd60e51b815260206004820152601060248201526f596f7520646964206e6f7420766f746560801b60448201526064016108ca565b6000818152600b60205260409020600481015460039091015411156112e25760008181526005602052604090206112919033612245565b6112dd5760405162461bcd60e51b815260206004820152601b60248201527f596f7520617265206e6f7420696e20746865206d616a6f72697479000000000060448201526064016108ca565b61138b565b6000818152600b602052604090206004810154600390910154101561138b5760008181526006602052604090206113199033612245565b801561133f57506000818152600b60205260409020600201546001600160a01b03163314155b61138b5760405162461bcd60e51b815260206004820152601b60248201527f596f7520617265206e6f7420696e20746865206d616a6f72697479000000000060448201526064016108ca565b6000828152600b60205260409020600481015460039091015483917f0000000000000000000000000000000000000000000000000000000000000000916113d29190612abe565b101580156113f157506000818152600b60205260409020600801544310155b8061140c57506000818152600b602052604090206009015443115b6114475760405162461bcd60e51b815260206004820152600c60248201526b2b37ba329034b99037b832b760a11b60448201526064016108ca565b6000838152600b602052604081206004810154600390910154829182918291829103611525576000888152600b6020526040902060020154336001600160a01b03909116036114a9576000888152600b60205260409020600501549450611520565b600088815260086020908152604080832033808552908352818420548c8552600784528285209185529252909120546114e29190612abe565b6000898152600a6020908152604080832033808552908352818420548d85526009845282852091855292529091205491965061151d91612abe565b92505b600093505b6000888152600b602052604090206004810154600390910154111561178a576000888152600b6020526040902060020154336001600160a01b03909116036115df576000888152600b602081905260409091209081015460059091015461158c9190612abe565b6000898152600b60205260409020600501549095506115cb907f0000000000000000000000000000000000000000000000000000000000000000612267565b94506115da90503360016122b2565b611652565b60008881526007602090815260408083203384529091529020549450611625857f0000000000000000000000000000000000000000000000000000000000000000612267565b60008a81526009602090815260408083203380855292529091205491965090945061165291506001612378565b600088815260056020526040812061166990612422565b60008a81526006602052604081209192509061168490612422565b90506000611692828461242c565b60008c8152600b60205260409020600d8101546006909101549192506116b79161247c565b9450600090505b818110156117325760008c81526006602052604081206116de90826124af565b60008e8152600b60205260409020600201549091506001600160a01b0380831691161461171057611710816000612378565b60008d815260066020526040902061172890826124bb565b50506001016116be565b5060008b815260056020526040902061174b90336124bb565b50611776817f0000000000000000000000000000000000000000000000000000000000000000612267565b955061178490508588612abe565b96505050505b6000888152600b60205260409020600481015460039091015410156119bd576000888152600b602052604090206007810154600a82015460059092015490916117d291612abe565b6117dc9190612b34565b60008981526008602090815260408083203384529091529020546118009190612abe565b6000898152600860209081526040808320338452909152902054909550611847907f0000000000000000000000000000000000000000000000000000000000000000612267565b60008a8152600a602090815260408083203380855292529091205491965090945061187491506001612378565b600088815260066020526040812060019061188e90612422565b6118989190612b56565b60008a8152600560205260408120919250906118b390612422565b905060006118c1828461242c565b60008c8152600b60205260409020600c8101546007909101549192506118e69161247c565b9450600090505b818110156119725760008c815260056020526040812061190d90826124af565b60008e8152600b60205260409020600201549091506001600160a01b0390811690821603611945576119408160006122b2565b611950565b611950816000612378565b60008d815260056020526040902061196890826124bb565b50506001016118ed565b5060008b815260066020526040902061198b90336124bb565b506119b6817f0000000000000000000000000000000000000000000000000000000000000000612267565b9550505050505b6119c73386612160565b6001600160a01b037f0000000000000000000000000000000000000000000000000000000000000000166340c10f1933611a018588612abe565b6040516001600160e01b031960e085901b1681526001600160a01b0390921660048301526024820152604401600060405180830381600087803b158015611a4757600080fd5b505af1158015611a5b573d6000803e3d6000fd5b505050506000831115611b13576001600160a01b037f00000000000000000000000000000000000000000000000000000000000000001663a9059cbb33611aa28487612abe565b6040516001600160e01b031960e085901b1681526001600160a01b03909216600483015260248201526044016020604051808303816000875af1158015611aed573d6000803e3d6000fd5b505050506040513d601f19601f82011682018060405250810190611b119190612b01565b505b5050505050505050565b60008381526007602090815260408083203384529091529020548390158015611b5d57506000818152600860209081526040808320338452909152902054155b611ba25760405162461bcd60e51b8152602060048201526016602482015275165bdd481a185d9948185b1c9958591e481d9bdd195960521b60448201526064016108ca565b6000848152600b602052604090206009015484904311801590611c0657506000818152600b6020526040902060048101546003909101547f000000000000000000000000000000000000000000000000000000000000000091611c0491612abe565b105b80611c2157506000818152600b602052604090206008015443105b611c5e5760405162461bcd60e51b815260206004820152600e60248201526d159bdd19481a5cc818db1bdcd95960921b60448201526064016108ca565b611c673361202f565b341015611ca95760405162461bcd60e51b815260206004820152601060248201526f2737ba1032b737bab3b41032ba3432b960811b60448201526064016108ca565b611cb23361085f565b831115611d115760405162461bcd60e51b815260206004820152602760248201527f546f6f206d616e7920746f6b656e73207370656e7420746f20626f6f73742074604482015266686520766f746560c81b60648201526084016108ca565b8215611db0576040516323b872dd60e01b8152336004820152306024820152604481018490527f00000000000000000000000000000000000000000000000000000000000000006001600160a01b0316906323b872dd906064016020604051808303816000875af1158015611d8a573d6000803e3d6000fd5b505050506040513d601f19601f82011682018060405250810190611dae9190612b01565b505b611db9336124d0565b6000611dc433611fe6565b90508415611ed757611dd681856120d3565b6000878152600b602052604081206003018054909190611df7908490612abe565b90915550506000868152600b60205260408120600601805460019290611e1e908490612abe565b90915550506000868152600560205260409020611e3b903361214b565b50600086815260076020908152604080832033845282528083203490819055898452600b9092528220600a01805491929091611e78908490612abe565b9091555050600086815260096020908152604080832033845290915281208054869290611ea6908490612abe565b90915550506000868152600b60205260408120600c018054869290611ecc908490612abe565b909155506111db9050565b611ee181856120d3565b6000878152600b602052604081206004018054909190611f02908490612abe565b90915550506000868152600b60205260408120600701805460019290611f29908490612abe565b90915550506000868152600660205260409020611f46903361214b565b50600086815260086020908152604080832033845282528083203490819055898452600b92839052908320909101805491929091611f85908490612abe565b90915550506000868152600a6020908152604080832033845290915281208054869290611fb3908490612abe565b90915550506000868152600b60205260408120600d018054869290611fd9908490612abe565b9091555050505050505050565b6001600160a01b03811660009081526002602052604081205460ff16810361201057506033919050565b506001600160a01b031660009081526002602052604090205460ff1690565b60008061203b83611fe6565b90506108587f0000000000000000000000000000000000000000000000000000000000000000825b60008060338360ff16116120ab5760008061208260338660ff16612518565b92506120919050826002612267565b91506120a0905060648261253a565b93506120bd92505050565b6120b98360ff166033612518565b9150505b6120c984826064612555565b9150505b92915050565b60008060338460ff16116120f8576120ef8460ff16603161253a565b915061212d9050565b6000806121098660ff166033612518565b92506121189050826002612267565b9150612127905060648261253a565b93505050505b61213f8167016345785d8a0000612aea565b90506120c98382612abe565b6000610858836001600160a01b038416612619565b804710156121835760405163cd78605960e01b81523060048201526024016108ca565b6000826001600160a01b03168260405160006040518083038185875af1925050503d80600081146121d0576040519150601f19603f3d011682016040523d82523d6000602084013e6121d5565b606091505b50509050806121f757604051630a12f52160e11b815260040160405180910390fd5b505050565b6001600160a01b03811660009081526003602052604081205460ff169003612242576001600160a01b0381166000908152600360205260409020805460ff191660331790555b50565b6001600160a01b03811660009081526001830160205260408120541515610858565b6000808360000361227e57506001905060006122ab565b8383028385828161229157612291612b1e565b04146122a45760008092509250506122ab565b6001925090505b9250929050565b8015612326576001600160a01b038216600090815260036020526040902054606560ff9091161015610e4e576001600160a01b038216600090815260036020526040812080546001929061230a90849060ff16612b69565b92506101000a81548160ff021916908360ff1602179055505050565b6001600160a01b038216600090815260036020526040902054600160ff9091161115610e4e576001600160a01b038216600090815260036020526040812080546001929061230a90849060ff16612b82565b80156123d0576001600160a01b038216600090815260026020526040902054606560ff9091161015610e4e576001600160a01b038216600090815260026020526040812080546001929061230a90849060ff16612b69565b6001600160a01b038216600090815260026020526040902054600160ff9091161115610e4e576001600160a01b038216600090815260026020526040812080546001929061230a90849060ff16612b82565b60006120cd825490565b600081600003612447576124408284612b34565b90506120cd565b82156124735781612459600185612b56565b6124639190612b34565b61246e906001612abe565b610858565b50600092915050565b60008082600003612492575060009050806122ab565b60018385816124a3576124a3612b1e565b04915091509250929050565b60006108588383612668565b6000610858836001600160a01b038416612692565b6001600160a01b03811660009081526002602052604081205460ff169003612242576001600160a01b0381166000908152600260205260409020805460ff1916603317905550565b6000808383111561252e575060009050806122ab565b50600193919092039150565b600080838301848110156122a45760008092509250506122ab565b600083830281600019858709828110838203039150508060000361258c5783828161258257612582612b1e565b0492505050610858565b8084116125ac5760405163227bc15360e01b815260040160405180910390fd5b6000848688096000868103871696879004966002600389028118808a02820302808a02820302808a02820302808a02820302808a02820302808a02909103029181900381900460010186841190950394909402919094039290920491909117919091029150509392505050565b6000818152600183016020526040812054612660575081546001818101845560008481526020808220909301849055845484825282860190935260409020919091556120cd565b5060006120cd565b600082600001828154811061267f5761267f612b9b565b9060005260206000200154905092915050565b6000818152600183016020526040812054801561277b5760006126b6600183612b56565b85549091506000906126ca90600190612b56565b905080821461272f5760008660000182815481106126ea576126ea612b9b565b906000526020600020015490508087600001848154811061270d5761270d612b9b565b6000918252602080832090910192909255918252600188019052604090208390555b855486908061274057612740612bb1565b6001900381819060005260206000200160009055905585600101600086815260200190815260200160002060009055600193505050506120cd565b60009150506120cd565b60006020828403121561279757600080fd5b81356001600160e01b03198116811461085857600080fd5b80356001600160a01b0381168114610b4d57600080fd5b6000602082840312156127d857600080fd5b610858826127af565b6000602082840312156127f357600080fd5b5035919050565b6000806040838503121561280d57600080fd5b50508035926020909101359150565b634e487b7160e01b600052604160045260246000fd5b604051601f8201601f1916810167ffffffffffffffff8111828210171561285b5761285b61281c565b604052919050565b600082601f83011261287457600080fd5b8135602067ffffffffffffffff8211156128905761289061281c565b8160051b61289f828201612832565b92835284810182019282810190878511156128b957600080fd5b83870192505b848310156128d8578235825291830191908301906128bf565b979650505050505050565b600082601f8301126128f457600080fd5b813567ffffffffffffffff81111561290e5761290e61281c565b612921601f8201601f1916602001612832565b81815284602083860101111561293657600080fd5b816020850160208301376000918101602001919091529392505050565b600080600080600060a0868803121561296b57600080fd5b612974866127af565b9450612982602087016127af565b9350604086013567ffffffffffffffff8082111561299f57600080fd5b6129ab89838a01612863565b945060608801359150808211156129c157600080fd5b6129cd89838a01612863565b935060808801359150808211156129e357600080fd5b506129f0888289016128e3565b9150509295509295909350565b801515811461224257600080fd5b600080600060608486031215612a2057600080fd5b833592506020840135612a32816129fd565b929592945050506040919091013590565b600080600080600060a08688031215612a5b57600080fd5b612a64866127af565b9450612a72602087016127af565b93506040860135925060608601359150608086013567ffffffffffffffff811115612a9c57600080fd5b6129f0888289016128e3565b634e487b7160e01b600052601160045260246000fd5b808201808211156120cd576120cd612aa8565b600060208284031215612ae357600080fd5b5051919050565b80820281158282048414176120cd576120cd612aa8565b600060208284031215612b1357600080fd5b8151610858816129fd565b634e487b7160e01b600052601260045260246000fd5b600082612b5157634e487b7160e01b600052601260045260246000fd5b500490565b818103818111156120cd576120cd612aa8565b60ff81811683821601908111156120cd576120cd612aa8565b60ff82811682821603908111156120cd576120cd612aa8565b634e487b7160e01b600052603260045260246000fd5b634e487b7160e01b600052603160045260246000fdfea26469706673582212207e7afa8a102e13a363fda747afc7fa62acbaaac6f247dc218bd0ddcff28e005e64736f6c63430008160033",
  "linkReferences": {},
  "deployedLinkReferences": {}
}